{
  "_format": "hh-sol-artifact-1",
  "contractName": "Deferred",
  "sourceName": "contracts/Deferred.sol",
  "abi": [
    {
      "inputs": [
        {
          "internalType": "address",
          "name": "_initialOwner",
          "type": "address"
        }
      ],
      "stateMutability": "nonpayable",
      "type": "constructor"
    },
    {
      "inputs": [
        {
          "internalType": "address",
          "name": "sender",
          "type": "address"
        },
        {
          "internalType": "uint256",
          "name": "tokenId",
          "type": "uint256"
        },
        {
          "internalType": "address",
          "name": "owner",
          "type": "address"
        }
      ],
      "name": "ERC721IncorrectOwner",
      "type": "error"
    },
    {
      "inputs": [
        {
          "internalType": "address",
          "name": "operator",
          "type": "address"
        },
        {
          "internalType": "uint256",
          "name": "tokenId",
          "type": "uint256"
        }
      ],
      "name": "ERC721InsufficientApproval",
      "type": "error"
    },
    {
      "inputs": [
        {
          "internalType": "address",
          "name": "approver",
          "type": "address"
        }
      ],
      "name": "ERC721InvalidApprover",
      "type": "error"
    },
    {
      "inputs": [
        {
          "internalType": "address",
          "name": "operator",
          "type": "address"
        }
      ],
      "name": "ERC721InvalidOperator",
      "type": "error"
    },
    {
      "inputs": [
        {
          "internalType": "address",
          "name": "owner",
          "type": "address"
        }
      ],
      "name": "ERC721InvalidOwner",
      "type": "error"
    },
    {
      "inputs": [
        {
          "internalType": "address",
          "name": "receiver",
          "type": "address"
        }
      ],
      "name": "ERC721InvalidReceiver",
      "type": "error"
    },
    {
      "inputs": [
        {
          "internalType": "address",
          "name": "sender",
          "type": "address"
        }
      ],
      "name": "ERC721InvalidSender",
      "type": "error"
    },
    {
      "inputs": [
        {
          "internalType": "uint256",
          "name": "tokenId",
          "type": "uint256"
        }
      ],
      "name": "ERC721NonexistentToken",
      "type": "error"
    },
    {
      "inputs": [
        {
          "internalType": "address",
          "name": "owner",
          "type": "address"
        }
      ],
      "name": "OwnableInvalidOwner",
      "type": "error"
    },
    {
      "inputs": [
        {
          "internalType": "address",
          "name": "account",
          "type": "address"
        }
      ],
      "name": "OwnableUnauthorizedAccount",
      "type": "error"
    },
    {
      "anonymous": false,
      "inputs": [
        {
          "indexed": true,
          "internalType": "address",
          "name": "owner",
          "type": "address"
        },
        {
          "indexed": true,
          "internalType": "address",
          "name": "approved",
          "type": "address"
        },
        {
          "indexed": true,
          "internalType": "uint256",
          "name": "tokenId",
          "type": "uint256"
        }
      ],
      "name": "Approval",
      "type": "event"
    },
    {
      "anonymous": false,
      "inputs": [
        {
          "indexed": true,
          "internalType": "address",
          "name": "owner",
          "type": "address"
        },
        {
          "indexed": true,
          "internalType": "address",
          "name": "operator",
          "type": "address"
        },
        {
          "indexed": false,
          "internalType": "bool",
          "name": "approved",
          "type": "bool"
        }
      ],
      "name": "ApprovalForAll",
      "type": "event"
    },
    {
      "anonymous": false,
      "inputs": [
        {
          "indexed": true,
          "internalType": "uint256",
          "name": "sellContractId",
          "type": "uint256"
        }
      ],
      "name": "ContractClosed",
      "type": "event"
    },
    {
      "anonymous": false,
      "inputs": [
        {
          "indexed": true,
          "internalType": "uint256",
          "name": "sellContractId",
          "type": "uint256"
        }
      ],
      "name": "ContractCreated",
      "type": "event"
    },
    {
      "anonymous": false,
      "inputs": [
        {
          "indexed": true,
          "internalType": "address",
          "name": "previousOwner",
          "type": "address"
        },
        {
          "indexed": true,
          "internalType": "address",
          "name": "newOwner",
          "type": "address"
        }
      ],
      "name": "OwnershipTransferred",
      "type": "event"
    },
    {
      "anonymous": false,
      "inputs": [
        {
          "indexed": true,
          "internalType": "address",
          "name": "from",
          "type": "address"
        },
        {
          "indexed": true,
          "internalType": "address",
          "name": "to",
          "type": "address"
        },
        {
          "indexed": true,
          "internalType": "uint256",
          "name": "tokenId",
          "type": "uint256"
        }
      ],
      "name": "Transfer",
      "type": "event"
    },
    {
      "inputs": [
        {
          "internalType": "uint256",
          "name": "tokenId",
          "type": "uint256"
        }
      ],
      "name": "_inheritedOwnerOf",
      "outputs": [
        {
          "internalType": "address",
          "name": "",
          "type": "address"
        }
      ],
      "stateMutability": "view",
      "type": "function"
    },
    {
      "inputs": [
        {
          "internalType": "address",
          "name": "_deferredMinter",
          "type": "address"
        }
      ],
      "name": "adminSetDeferredMinter",
      "outputs": [],
      "stateMutability": "nonpayable",
      "type": "function"
    },
    {
      "inputs": [
        {
          "internalType": "address",
          "name": "_marketplace",
          "type": "address"
        }
      ],
      "name": "adminSetMarketplace",
      "outputs": [],
      "stateMutability": "nonpayable",
      "type": "function"
    },
    {
      "inputs": [
        {
          "internalType": "address",
          "name": "_rewardPool",
          "type": "address"
        }
      ],
      "name": "adminSetRewardPool",
      "outputs": [],
      "stateMutability": "nonpayable",
      "type": "function"
    },
    {
      "inputs": [
        {
          "internalType": "address",
          "name": "",
          "type": "address"
        },
        {
          "internalType": "uint256",
          "name": "",
          "type": "uint256"
        }
      ],
      "name": "approve",
      "outputs": [],
      "stateMutability": "pure",
      "type": "function"
    },
    {
      "inputs": [
        {
          "internalType": "address",
          "name": "owner",
          "type": "address"
        }
      ],
      "name": "balanceOf",
      "outputs": [
        {
          "internalType": "uint256",
          "name": "balance",
          "type": "uint256"
        }
      ],
      "stateMutability": "view",
      "type": "function"
    },
    {
      "inputs": [
        {
          "internalType": "uint256",
          "name": "_contractId",
          "type": "uint256"
        }
      ],
      "name": "closeContract",
      "outputs": [],
      "stateMutability": "nonpayable",
      "type": "function"
    },
    {
      "inputs": [
        {
          "components": [
            {
              "internalType": "uint256",
              "name": "contractId",
              "type": "uint256"
            },
            {
              "internalType": "string",
              "name": "metadataUri",
              "type": "string"
            },
            {
              "components": [
                {
                  "internalType": "address",
                  "name": "seller",
                  "type": "address"
                },
                {
                  "internalType": "uint8",
                  "name": "quota",
                  "type": "uint8"
                }
              ],
              "internalType": "struct Deferred.SellerRequest[]",
              "name": "sellers",
              "type": "tuple[]"
            },
            {
              "internalType": "address[]",
              "name": "buyers",
              "type": "address[]"
            },
            {
              "internalType": "uint256",
              "name": "ekokeReward",
              "type": "uint256"
            },
            {
              "internalType": "uint256",
              "name": "tokenPriceUsd",
              "type": "uint256"
            },
            {
              "internalType": "uint256",
              "name": "tokensAmount",
              "type": "uint256"
            }
          ],
          "internalType": "struct Deferred.CreateContractRequest",
          "name": "_request",
          "type": "tuple"
        }
      ],
      "name": "createContract",
      "outputs": [],
      "stateMutability": "nonpayable",
      "type": "function"
    },
    {
      "inputs": [],
      "name": "deferredMinter",
      "outputs": [
        {
          "internalType": "address",
          "name": "",
          "type": "address"
        }
      ],
      "stateMutability": "view",
      "type": "function"
    },
    {
      "inputs": [
        {
          "internalType": "uint256",
          "name": "tokenId",
          "type": "uint256"
        }
      ],
      "name": "getApproved",
      "outputs": [
        {
          "internalType": "address",
          "name": "",
          "type": "address"
        }
      ],
      "stateMutability": "view",
      "type": "function"
    },
    {
      "inputs": [
        {
          "internalType": "address",
          "name": "owner",
          "type": "address"
        },
        {
          "internalType": "address",
          "name": "operator",
          "type": "address"
        }
      ],
      "name": "isApprovedForAll",
      "outputs": [
        {
          "internalType": "bool",
          "name": "",
          "type": "bool"
        }
      ],
      "stateMutability": "view",
      "type": "function"
    },
    {
      "inputs": [],
      "name": "marketplace",
      "outputs": [
        {
          "internalType": "address",
          "name": "",
          "type": "address"
        }
      ],
      "stateMutability": "view",
      "type": "function"
    },
    {
      "inputs": [],
      "name": "name",
      "outputs": [
        {
          "internalType": "string",
          "name": "",
          "type": "string"
        }
      ],
      "stateMutability": "view",
      "type": "function"
    },
    {
      "inputs": [],
      "name": "owner",
      "outputs": [
        {
          "internalType": "address",
          "name": "",
          "type": "address"
        }
      ],
      "stateMutability": "view",
      "type": "function"
    },
    {
      "inputs": [
        {
          "internalType": "uint256",
          "name": "tokenId",
          "type": "uint256"
        }
      ],
      "name": "ownerOf",
      "outputs": [
        {
          "internalType": "address",
          "name": "owner",
          "type": "address"
        }
      ],
      "stateMutability": "view",
      "type": "function"
    },
    {
      "inputs": [],
      "name": "renounceOwnership",
      "outputs": [],
      "stateMutability": "nonpayable",
      "type": "function"
    },
    {
      "inputs": [],
      "name": "rewardPool",
      "outputs": [
        {
          "internalType": "address",
          "name": "",
          "type": "address"
        }
      ],
      "stateMutability": "view",
      "type": "function"
    },
    {
      "inputs": [
        {
          "internalType": "address",
          "name": "from",
          "type": "address"
        },
        {
          "internalType": "address",
          "name": "to",
          "type": "address"
        },
        {
          "internalType": "uint256",
          "name": "tokenId",
          "type": "uint256"
        }
      ],
      "name": "safeTransferFrom",
      "outputs": [],
      "stateMutability": "nonpayable",
      "type": "function"
    },
    {
      "inputs": [
        {
          "internalType": "address",
          "name": "from",
          "type": "address"
        },
        {
          "internalType": "address",
          "name": "to",
          "type": "address"
        },
        {
          "internalType": "uint256",
          "name": "tokenId",
          "type": "uint256"
        },
        {
          "internalType": "bytes",
          "name": "data",
          "type": "bytes"
        }
      ],
      "name": "safeTransferFrom",
      "outputs": [],
      "stateMutability": "nonpayable",
      "type": "function"
    },
    {
      "inputs": [
        {
          "internalType": "address",
          "name": "",
          "type": "address"
        },
        {
          "internalType": "bool",
          "name": "",
          "type": "bool"
        }
      ],
      "name": "setApprovalForAll",
      "outputs": [],
      "stateMutability": "pure",
      "type": "function"
    },
    {
      "inputs": [
        {
          "internalType": "bytes4",
          "name": "interfaceId",
          "type": "bytes4"
        }
      ],
      "name": "supportsInterface",
      "outputs": [
        {
          "internalType": "bool",
          "name": "",
          "type": "bool"
        }
      ],
      "stateMutability": "view",
      "type": "function"
    },
    {
      "inputs": [],
      "name": "symbol",
      "outputs": [
        {
          "internalType": "string",
          "name": "",
          "type": "string"
        }
      ],
      "stateMutability": "view",
      "type": "function"
    },
    {
      "inputs": [
        {
          "internalType": "uint256",
          "name": "tokenId",
          "type": "uint256"
        }
      ],
      "name": "tokenContract",
      "outputs": [
        {
          "components": [
            {
              "internalType": "string",
              "name": "metadataUri",
              "type": "string"
            },
            {
              "components": [
                {
                  "internalType": "address",
                  "name": "seller",
                  "type": "address"
                },
                {
                  "internalType": "uint256",
                  "name": "tokenFromId",
                  "type": "uint256"
                },
                {
                  "internalType": "uint256",
                  "name": "tokenToId",
                  "type": "uint256"
                }
              ],
              "internalType": "struct Deferred.Seller[]",
              "name": "sellers",
              "type": "tuple[]"
            },
            {
              "internalType": "address[]",
              "name": "buyers",
              "type": "address[]"
            },
            {
              "internalType": "uint256",
              "name": "ekokeReward",
              "type": "uint256"
            },
            {
              "internalType": "uint256",
              "name": "tokenPriceUsd",
              "type": "uint256"
            },
            {
              "internalType": "uint256",
              "name": "tokenFromId",
              "type": "uint256"
            },
            {
              "internalType": "uint256",
              "name": "tokenToId",
              "type": "uint256"
            },
            {
              "internalType": "bool",
              "name": "closed",
              "type": "bool"
            },
            {
              "internalType": "bool",
              "name": "created",
              "type": "bool"
            }
          ],
          "internalType": "struct Deferred.SellContract",
          "name": "",
          "type": "tuple"
        }
      ],
      "stateMutability": "view",
      "type": "function"
    },
    {
      "inputs": [
        {
          "internalType": "uint256",
          "name": "tokenId",
          "type": "uint256"
        }
      ],
      "name": "tokenPriceUsd",
      "outputs": [
        {
          "internalType": "uint256",
          "name": "",
          "type": "uint256"
        }
      ],
      "stateMutability": "view",
      "type": "function"
    },
    {
      "inputs": [
        {
          "internalType": "uint256",
          "name": "tokenId",
          "type": "uint256"
        }
      ],
      "name": "tokenURI",
      "outputs": [
        {
          "internalType": "string",
          "name": "",
          "type": "string"
        }
      ],
      "stateMutability": "view",
      "type": "function"
    },
    {
      "inputs": [
        {
          "internalType": "address",
          "name": "from",
          "type": "address"
        },
        {
          "internalType": "address",
          "name": "to",
          "type": "address"
        },
        {
          "internalType": "uint256",
          "name": "tokenId",
          "type": "uint256"
        }
      ],
      "name": "transferFrom",
      "outputs": [],
      "stateMutability": "nonpayable",
      "type": "function"
    },
    {
      "inputs": [
        {
          "internalType": "address",
          "name": "newOwner",
          "type": "address"
        }
      ],
      "name": "transferOwnership",
      "outputs": [],
      "stateMutability": "nonpayable",
      "type": "function"
    }
  ],
  "bytecode": "0x60806040526000600a55600b80546001600160a01b0319908116909155600c805482169055600d8054909116905534801561003957600080fd5b50604051612ffe380380612ffe8339810160408190526100589161014a565b8060405180604001604052806008815260200167111959995c9c995960c21b81525060405180604001604052806008815260200167111151915494915160c21b81525081600090816100aa9190610219565b5060016100b78282610219565b5050506001600160a01b0381166100e857604051631e4fbdf760e01b81526000600482015260240160405180910390fd5b6100f1816100f8565b50506102d7565b600680546001600160a01b038381166001600160a01b0319831681179093556040519116919082907f8be0079c531659141344cd1fd0a4f28419497f9722a3daafe3b4186f6b6457e090600090a35050565b60006020828403121561015c57600080fd5b81516001600160a01b038116811461017357600080fd5b9392505050565b634e487b7160e01b600052604160045260246000fd5b600181811c908216806101a457607f821691505b6020821081036101c457634e487b7160e01b600052602260045260246000fd5b50919050565b601f82111561021457806000526020600020601f840160051c810160208510156101f15750805b601f840160051c820191505b8181101561021157600081556001016101fd565b50505b505050565b81516001600160401b038111156102325761023261017a565b610246816102408454610190565b846101ca565b6020601f82116001811461027a57600083156102625750848201515b600019600385901b1c1916600184901b178455610211565b600084815260208120601f198516915b828110156102aa578785015182556020948501946001909201910161028a565b50848210156102c85786840151600019600387901b60f8161c191681555b50505050600190811b01905550565b612d18806102e66000396000f3fe608060405234801561001057600080fd5b50600436106101a95760003560e01c8063715018a6116100f9578063abc8c7af11610097578063d0ce736011610071578063d0ce736014610397578063d471cf5d146103aa578063e985e9c5146103bd578063f2fde38b146103d057600080fd5b8063abc8c7af1461035e578063b88d4fde14610371578063c87b56dd1461038457600080fd5b806395d89b41116100d357806395d89b41146103105780639be78f0514610318578063a22cb4651461032b578063a30fb0201461033e57600080fd5b8063715018a6146102e457806382558c2a146102ec5780638da5cb5b146102ff57600080fd5b806323b872dd116101665780635926912211610140578063592691221461028a5780636352211e146102ab57806366666aa9146102be57806370a08231146102d157600080fd5b806323b872dd146102515780633a0432421461026457806342842e0e1461027757600080fd5b8063017d6f99146101ae57806301ffc9a7146101de57806306fdde0314610201578063081812fc14610216578063095ea7b3146102295780631892dd9f1461023e575b600080fd5b600d546101c1906001600160a01b031681565b6040516001600160a01b0390911681526020015b60405180910390f35b6101f16101ec3660046122b7565b6103e3565b60405190151581526020016101d5565b610209610435565b6040516101d5919061231a565b6101c161022436600461232d565b6104c7565b61023c61023736600461235b565b6104f1565b005b61023c61024c366004612387565b61053e565b61023c61025f3660046123a4565b610568565b6101c161027236600461232d565b61064d565b61023c6102853660046123a4565b610658565b61029d61029836600461232d565b610673565b6040519081526020016101d5565b6101c16102b936600461232d565b610688565b600c546101c1906001600160a01b031681565b61029d6102df366004612387565b6106b3565b61023c6106df565b61023c6102fa366004612387565b6106f3565b6006546001600160a01b03166101c1565b61020961071d565b61023c610326366004612387565b61072c565b61023c6103393660046123e5565b610756565b61035161034c36600461232d565b6107b1565b6040516101d591906124bc565b600b546101c1906001600160a01b031681565b61023c61037f36600461265b565b610a3f565b61020961039236600461232d565b610b2b565b61023c6103a536600461232d565b610b3d565b61023c6103b8366004612835565b610c83565b6101f16103cb366004612928565b611414565b61023c6103de366004612387565b61144b565b60006001600160e01b031982166380ac58cd60e01b148061041457506001600160e01b03198216635b5e139f60e01b145b8061042f57506301ffc9a760e01b6001600160e01b03198316145b92915050565b60606000805461044490612956565b80601f016020809104026020016040519081016040528092919081815260200182805461047090612956565b80156104bd5780601f10610492576101008083540402835291602001916104bd565b820191906000526020600020905b8154815290600101906020018083116104a057829003601f168201915b5050505050905090565b60006104d282611489565b156104e8575050600b546001600160a01b031690565b61042f826114f9565b60405162461bcd60e51b815260206004820181905260248201527f44656665727265643a20617070726f7665206973206e6f7420616c6c6f77656460448201526064015b60405180910390fd5b610546611522565b600b80546001600160a01b0319166001600160a01b0392909216919091179055565b600b546001600160a01b03163314801561058c5750600b546001600160a01b031615155b6105a85760405162461bcd60e51b815260040161053590612990565b6105b181611489565b15610609576105c0818361154f565b6001600160a01b03831660009081526008602052604081208054600192906105e99084906129ed565b9091555050600b54610604906001600160a01b03168261155d565b505050565b600b546001600160a01b031661061e826114f9565b6001600160a01b03161461064257600b54610642906001600160a01b03168261155d565b610604838383611568565b600061042f826115ed565b61060483838360405180602001604052806000815250610a3f565b600061067e826107b1565b6080015192915050565b600061069382611489565b156106aa5761042f6106a4836115f8565b8361185a565b61042f826115ed565b6001600160a01b0381166000908152600860205260408120546106d583611c5a565b61042f9190612a00565b6106e7611522565b6106f16000611ca2565b565b6106fb611522565b600c80546001600160a01b0319166001600160a01b0392909216919091179055565b60606001805461044490612956565b610734611522565b600d80546001600160a01b0319166001600160a01b0392909216919091179055565b60405162461bcd60e51b815260206004820152602a60248201527f44656665727265643a20736574417070726f76616c466f72416c6c206973206e6044820152691bdd08185b1b1bddd95960b21b6064820152608401610535565b610804604051806101200160405280606081526020016060815260200160608152602001600081526020016000815260200160008152602001600081526020016000151581526020016000151581525090565b600061080f836115f8565b9050600081116108615760405162461bcd60e51b815260206004820152601e60248201527f44656665727265643a20746f6b656e20646f6573206e6f7420657869737400006044820152606401610535565b600081815260076020526040908190208151610120810190925280548290829061088a90612956565b80601f01602080910402602001604051908101604052809291908181526020018280546108b690612956565b80156109035780601f106108d857610100808354040283529160200191610903565b820191906000526020600020905b8154815290600101906020018083116108e657829003601f168201915b5050505050815260200160018201805480602002602001604051908101604052809291908181526020016000905b82821015610986576000848152602090819020604080516060810182526003860290920180546001600160a01b0316835260018082015484860152600290910154918301919091529083529092019101610931565b505050508152602001600282018054806020026020016040519081016040528092919081815260200182805480156109e757602002820191906000526020600020905b81546001600160a01b031681526001909101906020018083116109c9575b50505091835250506003820154602082015260048201546040820152600582015460608201526006820154608082015260079091015460ff808216151560a084015261010090910416151560c0909101529392505050565b600b546001600160a01b031633148015610a635750600b546001600160a01b031615155b610a7f5760405162461bcd60e51b815260040161053590612990565b610a8882611489565b15610ae057610a97828461154f565b6001600160a01b0384166000908152600860205260408120805460019290610ac09084906129ed565b9091555050600b54610adb906001600160a01b03168361155d565b610b25565b600b546001600160a01b0316610af5836114f9565b6001600160a01b031614610b1957600b54610b19906001600160a01b03168361155d565b610b2584848484611cf4565b50505050565b6060610b36826107b1565b5192915050565b600d546001600160a01b031633148015610b615750600d546001600160a01b031615155b610b7d5760405162461bcd60e51b815260040161053590612a13565b60008111610b9d5760405162461bcd60e51b815260040161053590612a55565b60008181526007602081905260409091200154610100900460ff16610bd45760405162461bcd60e51b815260040161053590612aa0565b60008181526007602081905260409091209081015460ff1615610c455760405162461bcd60e51b8152602060048201526024808201527f44656665727265643a20636f6e747261637420697320616c726561647920636c6044820152631bdcd95960e21b6064820152608401610535565b60078101805460ff1916600117905560405182907fd79ef0d7f68df3d827e7c4b6a13ec4570e9a30515c4717bbaa647da58ca68be190600090a25050565b600d546001600160a01b031633148015610ca75750600d546001600160a01b031615155b610cc35760405162461bcd60e51b815260040161053590612a13565b805180610ce25760405162461bcd60e51b815260040161053590612a55565b60008181526007602081905260409091200154610100900460ff1615610d585760405162461bcd60e51b815260206004820152602560248201527f44656665727265643a20636f6e747261637420697320616c726561647920637260448201526419585d195960da1b6064820152608401610535565b600c546001600160a01b0316610db05760405162461bcd60e51b815260206004820181905260248201527f44656665727265643a2072657761726420706f6f6c206973206e6f74207365746044820152606401610535565b60008260c0015111610e1a5760405162461bcd60e51b815260206004820152602d60248201527f44656665727265643a20746f6b656e73416d6f756e74206d757374206265206760448201526c0726561746572207468616e203609c1b6064820152608401610535565b6000805b836040015151811015610ee55760006001600160a01b031684604001518281518110610e4c57610e4c612ae1565b6020026020010151600001516001600160a01b031603610eae5760405162461bcd60e51b815260206004820152601c60248201527f44656665727265643a2073656c6c6572206d75737420626520736574000000006044820152606401610535565b83604001518181518110610ec457610ec4612ae1565b60200260200101516020015182610edb9190612af7565b9150600101610e1e565b508060ff16606414610f435760405162461bcd60e51b815260206004820152602160248201527f44656665727265643a20746f74616c2071756f7461206d7573742062652031306044820152600360fc1b6064820152608401610535565b60008360a0015111610fae5760405162461bcd60e51b815260206004820152602e60248201527f44656665727265643a20746f6b656e5072696365557364206d7573742062652060448201526d067726561746572207468616e20360941b6064820152608401610535565b60648360c00151610fbf9190612b26565b156110245760405162461bcd60e51b815260206004820152602f60248201527f44656665727265643a20746f6b656e73416d6f756e74206d757374206265206460448201526e06976697369626c652062792031303608c1b6064820152608401610535565b60808301511561109d57600c54608084015160c08501516040516376b88f1160e11b8152600481019290925260248201526001600160a01b039091169063ed711e2290604401600060405180830381600087803b15801561108457600080fd5b505af1158015611098573d6000803e3d6000fd5b505050505b600a5460c08401516000906001906110b59084612a00565b6110bf91906129ed565b9050600085604001515167ffffffffffffffff8111156110e1576110e161256c565b60405190808252806020026020018201604052801561113f57816020015b61112c604051806060016040528060006001600160a01b0316815260200160008152602001600081525090565b8152602001906001900390816110ff5790505b5090506000839050600060648860c0015161115a9190612b3a565b905060005b8860400151518110156112945760008960400151828151811061118457611184612ae1565b602002602001015190506000816020015160ff16846111a39190612b4e565b9050600060016111b38388612a00565b6111bd91906129ed565b905060405180606001604052808d6040015186815181106111e0576111e0612ae1565b6020026020010151600001516001600160a01b031681526020018781526020018281525087858151811061121657611216612ae1565b602090810291909101015261122c816001612a00565b9550816008600089878151811061124557611245612ae1565b6020026020010151600001516001600160a01b03166001600160a01b0316815260200190815260200160002060008282546112809190612a00565b90915550506001909301925061115f915050565b5060008781526007602090815260409091209089015181906112b69082612bac565b50606089015180516112d29160028401916020909101906121d9565b506080890151600382015560a08901516004820155600581018690556006810185905560078101805461ffff191661010017905561131460018201600061223e565b60005b8451811015611391578160010185828151811061133657611336612ae1565b602090810291909101810151825460018082018555600094855293839020825160039092020180546001600160a01b0319166001600160a01b0390921691909117815591810151828401556040015160029091015501611317565b508860c00151600a60008282546113a89190612a00565b90915550506009805460018101825560009182527f6e1540171b6c0c960b71a7020d9f60077f6af931a8bbf590da0223dacf75c7af0189905560405189917f9e3c7e008a15a3c864482ee94fd7315bcc9d0c04f3a9041ab922f816acffbe0691a2505050505050505050565b600b546000906001600160a01b03838116911614806114445750826001600160a01b0316826001600160a01b0316145b9392505050565b611453611522565b6001600160a01b03811661147d57604051631e4fbdf760e01b815260006004820152602401610535565b61148681611ca2565b50565b604051631d02192160e11b8152600481018290526000903090633a04324290602401602060405180830381865afa9250505080156114e4575060408051601f3d908101601f191682019092526114e191810190612c6b565b60015b6114f057506001919050565b50600092915050565b600061150482611d0b565b506000828152600460205260409020546001600160a01b031661042f565b6006546001600160a01b031633146106f15760405163118cdaa760e01b8152336004820152602401610535565b6115598183611d44565b5050565b611559828233611d5e565b6001600160a01b03821661159257604051633250574960e11b815260006004820152602401610535565b600061159f838333611d6b565b9050836001600160a01b0316816001600160a01b031614610b25576040516364283d7b60e01b81526001600160a01b0380861660048301526024820184905282166044820152606401610535565b600061042f82611d0b565b6000805b6009548110156114f05760006009828154811061161b5761161b612ae1565b906000526020600020015490506000600760008381526020019081526020016000206040518061012001604052908160008201805461165990612956565b80601f016020809104026020016040519081016040528092919081815260200182805461168590612956565b80156116d25780601f106116a7576101008083540402835291602001916116d2565b820191906000526020600020905b8154815290600101906020018083116116b557829003601f168201915b5050505050815260200160018201805480602002602001604051908101604052809291908181526020016000905b82821015611755576000848152602090819020604080516060810182526003860290920180546001600160a01b0316835260018082015484860152600290910154918301919091529083529092019101611700565b505050508152602001600282018054806020026020016040519081016040528092919081815260200182805480156117b657602002820191906000526020600020905b81546001600160a01b03168152600190910190602001808311611798575b50505091835250506003820154602082015260048201546040820152600582015460608201526006820154608082015260079091015460ff808216151560a08085019190915261010090920416151560c090920191909152810151909150851080159061182757508060c001518511155b801561183557508060e00151155b801561184357508061010001515b1561185057509392505050565b50506001016115fc565b600080831161187b5760405162461bcd60e51b815260040161053590612a55565b60008381526007602081905260409091200154610100900460ff166118b25760405162461bcd60e51b815260040161053590612aa0565b6000838152600760205260409020600501548210156119395760405162461bcd60e51b815260206004820152603e60248201527f44656665727265643a20746f6b656e4964206d7573742062652067726561746560448201527f72207468616e206f7220657175616c20746f20746f6b656e46726f6d496400006064820152608401610535565b6000838152600760205260409020600601548211156119c05760405162461bcd60e51b815260206004820152603960248201527f44656665727265643a20746f6b656e4964206d757374206265206c657373207460448201527f68616e206f7220657175616c20746f20746f6b656e546f4964000000000000006064820152608401610535565b600083815260076020526040808220815161012081019092528054829082906119e890612956565b80601f0160208091040260200160405190810160405280929190818152602001828054611a1490612956565b8015611a615780601f10611a3657610100808354040283529160200191611a61565b820191906000526020600020905b815481529060010190602001808311611a4457829003601f168201915b5050505050815260200160018201805480602002602001604051908101604052809291908181526020016000905b82821015611ae4576000848152602090819020604080516060810182526003860290920180546001600160a01b0316835260018082015484860152600290910154918301919091529083529092019101611a8f565b50505050815260200160028201805480602002602001604051908101604052809291908181526020018280548015611b4557602002820191906000526020600020905b81546001600160a01b03168152600190910190602001808311611b27575b50505091835250506003820154602082015260048201546040820152600582015460608201526006820154608082015260079091015460ff808216151560a084015261010090910416151560c090910152905060005b816020015151811015611bfb57600082602001518281518110611bc057611bc0612ae1565b6020026020010151905084816020015111158015611be2575080604001518511155b15611bf25751925061042f915050565b50600101611b9b565b5060405162461bcd60e51b815260206004820152602d60248201527f44656665727265643a20746f6b656e20646f6573206e6f742062656c6f6e672060448201526c3a379030b73c9039b2b63632b960991b6064820152608401610535565b60006001600160a01b038216611c86576040516322718ad960e21b815260006004820152602401610535565b506001600160a01b031660009081526003602052604090205490565b600680546001600160a01b038381166001600160a01b0319831681179093556040519116919082907f8be0079c531659141344cd1fd0a4f28419497f9722a3daafe3b4186f6b6457e090600090a35050565b611cff848484610568565b610b2584848484611e64565b6000818152600260205260408120546001600160a01b03168061042f57604051637e27328960e01b815260048101849052602401610535565b611559828260405180602001604052806000815250611f8d565b6106048383836001611fa4565b6000828152600260205260408120546001600160a01b0390811690831615611d9857611d988184866120aa565b6001600160a01b03811615611dd657611db5600085600080611fa4565b6001600160a01b038116600090815260036020526040902080546000190190555b6001600160a01b03851615611e05576001600160a01b0385166000908152600360205260409020805460010190555b60008481526002602052604080822080546001600160a01b0319166001600160a01b0389811691821790925591518793918516917fddf252ad1be2c89b69c2b068fc378daa952ba7f163c4a11628f55a4df523b3ef91a4949350505050565b6001600160a01b0383163b15610b2557604051630a85bd0160e11b81526001600160a01b0384169063150b7a0290611ea6903390889087908790600401612c88565b6020604051808303816000875af1925050508015611ee1575060408051601f3d908101601f19168201909252611ede91810190612cc5565b60015b611f4a573d808015611f0f576040519150601f19603f3d011682016040523d82523d6000602084013e611f14565b606091505b508051600003611f4257604051633250574960e11b81526001600160a01b0385166004820152602401610535565b805181602001fd5b6001600160e01b03198116630a85bd0160e11b14611f8657604051633250574960e11b81526001600160a01b0385166004820152602401610535565b5050505050565b611f97838361210e565b6106046000848484611e64565b8080611fb857506001600160a01b03821615155b1561207a576000611fc884611d0b565b90506001600160a01b03831615801590611ff45750826001600160a01b0316816001600160a01b031614155b801561200757506120058184611414565b155b156120305760405163a9fbf51f60e01b81526001600160a01b0384166004820152602401610535565b81156120785783856001600160a01b0316826001600160a01b03167f8c5be1e5ebec7d5bd14f71427d1e84f3dd0314c0f7b2291e5b200ac8c7c3b92560405160405180910390a45b505b5050600090815260046020526040902080546001600160a01b0319166001600160a01b0392909216919091179055565b6120b5838383612173565b610604576001600160a01b0383166120e357604051637e27328960e01b815260048101829052602401610535565b60405163177e802f60e01b81526001600160a01b038316600482015260248101829052604401610535565b6001600160a01b03821661213857604051633250574960e11b815260006004820152602401610535565b600061214683836000611d6b565b90506001600160a01b03811615610604576040516339e3563760e11b815260006004820152602401610535565b60006001600160a01b038316158015906121d15750826001600160a01b0316846001600160a01b031614806121ad57506121ad8484611414565b806121d157506000828152600460205260409020546001600160a01b038481169116145b949350505050565b82805482825590600052602060002090810192821561222e579160200282015b8281111561222e57825182546001600160a01b0319166001600160a01b039091161782556020909201916001909101906121f9565b5061223a92915061225f565b5090565b50805460008255600302906000526020600020908101906114869190612274565b5b8082111561223a5760008155600101612260565b5b8082111561223a5780546001600160a01b03191681556000600182018190556002820155600301612275565b6001600160e01b03198116811461148657600080fd5b6000602082840312156122c957600080fd5b8135611444816122a1565b6000815180845260005b818110156122fa576020818501810151868301820152016122de565b506000602082860101526020601f19601f83011685010191505092915050565b60208152600061144460208301846122d4565b60006020828403121561233f57600080fd5b5035919050565b6001600160a01b038116811461148657600080fd5b6000806040838503121561236e57600080fd5b823561237981612346565b946020939093013593505050565b60006020828403121561239957600080fd5b813561144481612346565b6000806000606084860312156123b957600080fd5b83356123c481612346565b925060208401356123d481612346565b929592945050506040919091013590565b600080604083850312156123f857600080fd5b823561240381612346565b91506020830135801515811461241857600080fd5b809150509250929050565b600081518084526020840193506020830160005b8281101561247757815180516001600160a01b03168752602080820151818901526040918201519188019190915260609096019590910190600101612437565b5093949350505050565b600081518084526020840193506020830160005b828110156124775781516001600160a01b0316865260209586019590910190600101612495565b602081526000825161012060208401526124da6101408401826122d4565b90506020840151601f198483030160408501526124f78282612423565b9150506040840151601f198483030160608501526125158282612481565b91505060608401516080840152608084015160a084015260a084015160c084015260c084015160e084015260e084015161255461010085018215159052565b50610100840151801515610120850152509392505050565b634e487b7160e01b600052604160045260246000fd5b6040805190810167ffffffffffffffff811182821017156125a5576125a561256c565b60405290565b60405160e0810167ffffffffffffffff811182821017156125a5576125a561256c565b604051601f8201601f1916810167ffffffffffffffff811182821017156125f7576125f761256c565b604052919050565b60008067ffffffffffffffff84111561261a5761261a61256c565b50601f8301601f191660200161262f816125ce565b91505082815283838301111561264457600080fd5b828260208301376000602084830101529392505050565b6000806000806080858703121561267157600080fd5b843561267c81612346565b9350602085013561268c81612346565b925060408501359150606085013567ffffffffffffffff8111156126af57600080fd5b8501601f810187136126c057600080fd5b6126cf878235602084016125ff565b91505092959194509250565b600082601f8301126126ec57600080fd5b611444838335602085016125ff565b600067ffffffffffffffff8211156127155761271561256c565b5060051b60200190565b600082601f83011261273057600080fd5b813561274361273e826126fb565b6125ce565b8082825260208201915060208360061b86010192508583111561276557600080fd5b602085015b838110156127c4576040818803121561278257600080fd5b61278a612582565b813561279581612346565b8152602082013560ff811681146127ab57600080fd5b602082810191909152908452929092019160400161276a565b5095945050505050565b600082601f8301126127df57600080fd5b81356127ed61273e826126fb565b8082825260208201915060208360051b86010192508583111561280f57600080fd5b602085015b838110156127c457803561282781612346565b835260209283019201612814565b60006020828403121561284757600080fd5b813567ffffffffffffffff81111561285e57600080fd5b820160e0818503121561287057600080fd5b6128786125ab565b81358152602082013567ffffffffffffffff81111561289657600080fd5b6128a2868285016126db565b602083015250604082013567ffffffffffffffff8111156128c257600080fd5b6128ce8682850161271f565b604083015250606082013567ffffffffffffffff8111156128ee57600080fd5b6128fa868285016127ce565b6060830152506080828101359082015260a0808301359082015260c091820135918101919091529392505050565b6000806040838503121561293b57600080fd5b823561294681612346565b9150602083013561241881612346565b600181811c9082168061296a57607f821691505b60208210810361298a57634e487b7160e01b600052602260045260246000fd5b50919050565b60208082526027908201527f44656665727265643a2063616c6c6572206973206e6f7420746865206d61726b6040820152666574706c61636560c81b606082015260800190565b634e487b7160e01b600052601160045260246000fd5b8181038181111561042f5761042f6129d7565b8082018082111561042f5761042f6129d7565b60208082526022908201527f44656665727265643a2063616c6c6572206973206e6f7420746865206d696e7460408201526132b960f11b606082015260800190565b6020808252602b908201527f44656665727265643a20636f6e74726163744964206d7573742062652067726560408201526a061746572207468616e20360ac1b606082015260800190565b60208082526021908201527f44656665727265643a20636f6e747261637420646f6573206e6f7420657869736040820152601d60fa1b606082015260800190565b634e487b7160e01b600052603260045260246000fd5b60ff818116838216019081111561042f5761042f6129d7565b634e487b7160e01b600052601260045260246000fd5b600082612b3557612b35612b10565b500690565b600082612b4957612b49612b10565b500490565b808202811582820484141761042f5761042f6129d7565b601f82111561060457806000526020600020601f840160051c81016020851015612b8c5750805b601f840160051c820191505b81811015611f865760008155600101612b98565b815167ffffffffffffffff811115612bc657612bc661256c565b612bda81612bd48454612956565b84612b65565b6020601f821160018114612c0e5760008315612bf65750848201515b600019600385901b1c1916600184901b178455611f86565b600084815260208120601f198516915b82811015612c3e5787850151825560209485019460019092019101612c1e565b5084821015612c5c5786840151600019600387901b60f8161c191681555b50505050600190811b01905550565b600060208284031215612c7d57600080fd5b815161144481612346565b6001600160a01b0385811682528416602082015260408101839052608060608201819052600090612cbb908301846122d4565b9695505050505050565b600060208284031215612cd757600080fd5b8151611444816122a156fea2646970667358221220196efd2875dfc69ac9dfd4ff176f02be1bac0045cc1d181aea6dc39c48785ae364736f6c634300081c0033",
  "linkReferences": {},
  "deployedLinkReferences": {}
}