{
  "_format": "hh-sol-artifact-1",
  "contractName": "Deferred",
  "sourceName": "contracts/Deferred.sol",
  "abi": [
    {
      "inputs": [
        {
          "internalType": "address",
          "name": "_initialOwner",
          "type": "address"
        }
      ],
      "stateMutability": "nonpayable",
      "type": "constructor"
    },
    {
      "inputs": [
        {
          "internalType": "address",
          "name": "sender",
          "type": "address"
        },
        {
          "internalType": "uint256",
          "name": "tokenId",
          "type": "uint256"
        },
        {
          "internalType": "address",
          "name": "owner",
          "type": "address"
        }
      ],
      "name": "ERC721IncorrectOwner",
      "type": "error"
    },
    {
      "inputs": [
        {
          "internalType": "address",
          "name": "operator",
          "type": "address"
        },
        {
          "internalType": "uint256",
          "name": "tokenId",
          "type": "uint256"
        }
      ],
      "name": "ERC721InsufficientApproval",
      "type": "error"
    },
    {
      "inputs": [
        {
          "internalType": "address",
          "name": "approver",
          "type": "address"
        }
      ],
      "name": "ERC721InvalidApprover",
      "type": "error"
    },
    {
      "inputs": [
        {
          "internalType": "address",
          "name": "operator",
          "type": "address"
        }
      ],
      "name": "ERC721InvalidOperator",
      "type": "error"
    },
    {
      "inputs": [
        {
          "internalType": "address",
          "name": "owner",
          "type": "address"
        }
      ],
      "name": "ERC721InvalidOwner",
      "type": "error"
    },
    {
      "inputs": [
        {
          "internalType": "address",
          "name": "receiver",
          "type": "address"
        }
      ],
      "name": "ERC721InvalidReceiver",
      "type": "error"
    },
    {
      "inputs": [
        {
          "internalType": "address",
          "name": "sender",
          "type": "address"
        }
      ],
      "name": "ERC721InvalidSender",
      "type": "error"
    },
    {
      "inputs": [
        {
          "internalType": "uint256",
          "name": "tokenId",
          "type": "uint256"
        }
      ],
      "name": "ERC721NonexistentToken",
      "type": "error"
    },
    {
      "inputs": [
        {
          "internalType": "address",
          "name": "owner",
          "type": "address"
        }
      ],
      "name": "OwnableInvalidOwner",
      "type": "error"
    },
    {
      "inputs": [
        {
          "internalType": "address",
          "name": "account",
          "type": "address"
        }
      ],
      "name": "OwnableUnauthorizedAccount",
      "type": "error"
    },
    {
      "anonymous": false,
      "inputs": [
        {
          "indexed": true,
          "internalType": "address",
          "name": "owner",
          "type": "address"
        },
        {
          "indexed": true,
          "internalType": "address",
          "name": "approved",
          "type": "address"
        },
        {
          "indexed": true,
          "internalType": "uint256",
          "name": "tokenId",
          "type": "uint256"
        }
      ],
      "name": "Approval",
      "type": "event"
    },
    {
      "anonymous": false,
      "inputs": [
        {
          "indexed": true,
          "internalType": "address",
          "name": "owner",
          "type": "address"
        },
        {
          "indexed": true,
          "internalType": "address",
          "name": "operator",
          "type": "address"
        },
        {
          "indexed": false,
          "internalType": "bool",
          "name": "approved",
          "type": "bool"
        }
      ],
      "name": "ApprovalForAll",
      "type": "event"
    },
    {
      "anonymous": false,
      "inputs": [
        {
          "indexed": true,
          "internalType": "uint256",
          "name": "sellContractId",
          "type": "uint256"
        }
      ],
      "name": "ContractClosed",
      "type": "event"
    },
    {
      "anonymous": false,
      "inputs": [
        {
          "indexed": true,
          "internalType": "uint256",
          "name": "sellContractId",
          "type": "uint256"
        }
      ],
      "name": "ContractCreated",
      "type": "event"
    },
    {
      "anonymous": false,
      "inputs": [
        {
          "indexed": true,
          "internalType": "address",
          "name": "previousOwner",
          "type": "address"
        },
        {
          "indexed": true,
          "internalType": "address",
          "name": "newOwner",
          "type": "address"
        }
      ],
      "name": "OwnershipTransferred",
      "type": "event"
    },
    {
      "anonymous": false,
      "inputs": [
        {
          "indexed": true,
          "internalType": "address",
          "name": "from",
          "type": "address"
        },
        {
          "indexed": true,
          "internalType": "address",
          "name": "to",
          "type": "address"
        },
        {
          "indexed": true,
          "internalType": "uint256",
          "name": "tokenId",
          "type": "uint256"
        }
      ],
      "name": "Transfer",
      "type": "event"
    },
    {
      "inputs": [
        {
          "internalType": "uint256",
          "name": "tokenId",
          "type": "uint256"
        }
      ],
      "name": "_inheritedOwnerOf",
      "outputs": [
        {
          "internalType": "address",
          "name": "",
          "type": "address"
        }
      ],
      "stateMutability": "view",
      "type": "function"
    },
    {
      "inputs": [
        {
          "internalType": "address",
          "name": "_deferredMinter",
          "type": "address"
        }
      ],
      "name": "adminSetDeferredMinter",
      "outputs": [],
      "stateMutability": "nonpayable",
      "type": "function"
    },
    {
      "inputs": [
        {
          "internalType": "address",
          "name": "_marketplace",
          "type": "address"
        }
      ],
      "name": "adminSetMarketplace",
      "outputs": [],
      "stateMutability": "nonpayable",
      "type": "function"
    },
    {
      "inputs": [
        {
          "internalType": "address",
          "name": "_rewardPool",
          "type": "address"
        }
      ],
      "name": "adminSetRewardPool",
      "outputs": [],
      "stateMutability": "nonpayable",
      "type": "function"
    },
    {
      "inputs": [
        {
          "internalType": "address",
          "name": "",
          "type": "address"
        },
        {
          "internalType": "uint256",
          "name": "",
          "type": "uint256"
        }
      ],
      "name": "approve",
      "outputs": [],
      "stateMutability": "pure",
      "type": "function"
    },
    {
      "inputs": [
        {
          "internalType": "address",
          "name": "owner",
          "type": "address"
        }
      ],
      "name": "balanceOf",
      "outputs": [
        {
          "internalType": "uint256",
          "name": "balance",
          "type": "uint256"
        }
      ],
      "stateMutability": "view",
      "type": "function"
    },
    {
      "inputs": [
        {
          "internalType": "uint256",
          "name": "_contractId",
          "type": "uint256"
        }
      ],
      "name": "closeContract",
      "outputs": [],
      "stateMutability": "nonpayable",
      "type": "function"
    },
    {
      "inputs": [
        {
          "components": [
            {
              "internalType": "uint256",
              "name": "contractId",
              "type": "uint256"
            },
            {
              "internalType": "string",
              "name": "metadataUri",
              "type": "string"
            },
            {
              "components": [
                {
                  "internalType": "address",
                  "name": "seller",
                  "type": "address"
                },
                {
                  "internalType": "uint8",
                  "name": "quota",
                  "type": "uint8"
                }
              ],
              "internalType": "struct Deferred.SellerRequest[]",
              "name": "sellers",
              "type": "tuple[]"
            },
            {
              "internalType": "address[]",
              "name": "buyers",
              "type": "address[]"
            },
            {
              "internalType": "uint256",
              "name": "ekokeReward",
              "type": "uint256"
            },
            {
              "internalType": "uint256",
              "name": "tokenPriceUsd",
              "type": "uint256"
            },
            {
              "internalType": "uint256",
              "name": "tokensAmount",
              "type": "uint256"
            }
          ],
          "internalType": "struct Deferred.CreateContractRequest",
          "name": "_request",
          "type": "tuple"
        }
      ],
      "name": "createContract",
      "outputs": [],
      "stateMutability": "nonpayable",
      "type": "function"
    },
    {
      "inputs": [],
      "name": "deferredMinter",
      "outputs": [
        {
          "internalType": "address",
          "name": "",
          "type": "address"
        }
      ],
      "stateMutability": "view",
      "type": "function"
    },
    {
      "inputs": [
        {
          "internalType": "uint256",
          "name": "tokenId",
          "type": "uint256"
        }
      ],
      "name": "getApproved",
      "outputs": [
        {
          "internalType": "address",
          "name": "",
          "type": "address"
        }
      ],
      "stateMutability": "view",
      "type": "function"
    },
    {
      "inputs": [
        {
          "internalType": "address",
          "name": "owner",
          "type": "address"
        },
        {
          "internalType": "address",
          "name": "operator",
          "type": "address"
        }
      ],
      "name": "isApprovedForAll",
      "outputs": [
        {
          "internalType": "bool",
          "name": "",
          "type": "bool"
        }
      ],
      "stateMutability": "view",
      "type": "function"
    },
    {
      "inputs": [],
      "name": "marketplace",
      "outputs": [
        {
          "internalType": "address",
          "name": "",
          "type": "address"
        }
      ],
      "stateMutability": "view",
      "type": "function"
    },
    {
      "inputs": [],
      "name": "name",
      "outputs": [
        {
          "internalType": "string",
          "name": "",
          "type": "string"
        }
      ],
      "stateMutability": "view",
      "type": "function"
    },
    {
      "inputs": [],
      "name": "owner",
      "outputs": [
        {
          "internalType": "address",
          "name": "",
          "type": "address"
        }
      ],
      "stateMutability": "view",
      "type": "function"
    },
    {
      "inputs": [
        {
          "internalType": "uint256",
          "name": "tokenId",
          "type": "uint256"
        }
      ],
      "name": "ownerOf",
      "outputs": [
        {
          "internalType": "address",
          "name": "owner",
          "type": "address"
        }
      ],
      "stateMutability": "view",
      "type": "function"
    },
    {
      "inputs": [],
      "name": "renounceOwnership",
      "outputs": [],
      "stateMutability": "nonpayable",
      "type": "function"
    },
    {
      "inputs": [],
      "name": "rewardPool",
      "outputs": [
        {
          "internalType": "address",
          "name": "",
          "type": "address"
        }
      ],
      "stateMutability": "view",
      "type": "function"
    },
    {
      "inputs": [
        {
          "internalType": "address",
          "name": "from",
          "type": "address"
        },
        {
          "internalType": "address",
          "name": "to",
          "type": "address"
        },
        {
          "internalType": "uint256",
          "name": "tokenId",
          "type": "uint256"
        }
      ],
      "name": "safeTransferFrom",
      "outputs": [],
      "stateMutability": "nonpayable",
      "type": "function"
    },
    {
      "inputs": [
        {
          "internalType": "address",
          "name": "from",
          "type": "address"
        },
        {
          "internalType": "address",
          "name": "to",
          "type": "address"
        },
        {
          "internalType": "uint256",
          "name": "tokenId",
          "type": "uint256"
        },
        {
          "internalType": "bytes",
          "name": "data",
          "type": "bytes"
        }
      ],
      "name": "safeTransferFrom",
      "outputs": [],
      "stateMutability": "nonpayable",
      "type": "function"
    },
    {
      "inputs": [
        {
          "internalType": "address",
          "name": "",
          "type": "address"
        },
        {
          "internalType": "bool",
          "name": "",
          "type": "bool"
        }
      ],
      "name": "setApprovalForAll",
      "outputs": [],
      "stateMutability": "pure",
      "type": "function"
    },
    {
      "inputs": [
        {
          "internalType": "bytes4",
          "name": "interfaceId",
          "type": "bytes4"
        }
      ],
      "name": "supportsInterface",
      "outputs": [
        {
          "internalType": "bool",
          "name": "",
          "type": "bool"
        }
      ],
      "stateMutability": "view",
      "type": "function"
    },
    {
      "inputs": [],
      "name": "symbol",
      "outputs": [
        {
          "internalType": "string",
          "name": "",
          "type": "string"
        }
      ],
      "stateMutability": "view",
      "type": "function"
    },
    {
      "inputs": [
        {
          "internalType": "uint256",
          "name": "tokenId",
          "type": "uint256"
        }
      ],
      "name": "tokenContract",
      "outputs": [
        {
          "components": [
            {
              "internalType": "string",
              "name": "metadataUri",
              "type": "string"
            },
            {
              "components": [
                {
                  "internalType": "address",
                  "name": "seller",
                  "type": "address"
                },
                {
                  "internalType": "uint256",
                  "name": "tokenFromId",
                  "type": "uint256"
                },
                {
                  "internalType": "uint256",
                  "name": "tokenToId",
                  "type": "uint256"
                }
              ],
              "internalType": "struct Deferred.Seller[]",
              "name": "sellers",
              "type": "tuple[]"
            },
            {
              "internalType": "address[]",
              "name": "buyers",
              "type": "address[]"
            },
            {
              "internalType": "uint256",
              "name": "ekokeReward",
              "type": "uint256"
            },
            {
              "internalType": "uint256",
              "name": "tokenPriceUsd",
              "type": "uint256"
            },
            {
              "internalType": "uint256",
              "name": "tokenFromId",
              "type": "uint256"
            },
            {
              "internalType": "uint256",
              "name": "tokenToId",
              "type": "uint256"
            },
            {
              "internalType": "bool",
              "name": "closed",
              "type": "bool"
            },
            {
              "internalType": "bool",
              "name": "created",
              "type": "bool"
            }
          ],
          "internalType": "struct Deferred.SellContract",
          "name": "",
          "type": "tuple"
        }
      ],
      "stateMutability": "view",
      "type": "function"
    },
    {
      "inputs": [
        {
          "internalType": "uint256",
          "name": "tokenId",
          "type": "uint256"
        }
      ],
      "name": "tokenPriceUsd",
      "outputs": [
        {
          "internalType": "uint256",
          "name": "",
          "type": "uint256"
        }
      ],
      "stateMutability": "view",
      "type": "function"
    },
    {
      "inputs": [
        {
          "internalType": "uint256",
          "name": "tokenId",
          "type": "uint256"
        }
      ],
      "name": "tokenURI",
      "outputs": [
        {
          "internalType": "string",
          "name": "",
          "type": "string"
        }
      ],
      "stateMutability": "view",
      "type": "function"
    },
    {
      "inputs": [
        {
          "internalType": "address",
          "name": "from",
          "type": "address"
        },
        {
          "internalType": "address",
          "name": "to",
          "type": "address"
        },
        {
          "internalType": "uint256",
          "name": "tokenId",
          "type": "uint256"
        }
      ],
      "name": "transferFrom",
      "outputs": [],
      "stateMutability": "nonpayable",
      "type": "function"
    },
    {
      "inputs": [
        {
          "internalType": "address",
          "name": "newOwner",
          "type": "address"
        }
      ],
      "name": "transferOwnership",
      "outputs": [],
      "stateMutability": "nonpayable",
      "type": "function"
    }
  ],
  "bytecode": "0x60806040526000600a556000600b60006101000a81548173ffffffffffffffffffffffffffffffffffffffff021916908373ffffffffffffffffffffffffffffffffffffffff1602179055506000600c60006101000a81548173ffffffffffffffffffffffffffffffffffffffff021916908373ffffffffffffffffffffffffffffffffffffffff1602179055506000600d60006101000a81548173ffffffffffffffffffffffffffffffffffffffff021916908373ffffffffffffffffffffffffffffffffffffffff160217905550348015620000dc57600080fd5b506040516200597738038062005977833981810160405281019062000102919062000353565b806040518060400160405280600881526020017f44656665727265640000000000000000000000000000000000000000000000008152506040518060400160405280600881526020017f44454645525245440000000000000000000000000000000000000000000000008152508160009081620001809190620005ff565b508060019081620001929190620005ff565b505050600073ffffffffffffffffffffffffffffffffffffffff168173ffffffffffffffffffffffffffffffffffffffff16036200020a5760006040517f1e4fbdf7000000000000000000000000000000000000000000000000000000008152600401620002019190620006f7565b60405180910390fd5b6200021b816200022360201b60201c565b505062000714565b6000600660009054906101000a900473ffffffffffffffffffffffffffffffffffffffff16905081600660006101000a81548173ffffffffffffffffffffffffffffffffffffffff021916908373ffffffffffffffffffffffffffffffffffffffff1602179055508173ffffffffffffffffffffffffffffffffffffffff168173ffffffffffffffffffffffffffffffffffffffff167f8be0079c531659141344cd1fd0a4f28419497f9722a3daafe3b4186f6b6457e060405160405180910390a35050565b600080fd5b600073ffffffffffffffffffffffffffffffffffffffff82169050919050565b60006200031b82620002ee565b9050919050565b6200032d816200030e565b81146200033957600080fd5b50565b6000815190506200034d8162000322565b92915050565b6000602082840312156200036c576200036b620002e9565b5b60006200037c848285016200033c565b91505092915050565b600081519050919050565b7f4e487b7100000000000000000000000000000000000000000000000000000000600052604160045260246000fd5b7f4e487b7100000000000000000000000000000000000000000000000000000000600052602260045260246000fd5b600060028204905060018216806200040757607f821691505b6020821081036200041d576200041c620003bf565b5b50919050565b60008190508160005260206000209050919050565b60006020601f8301049050919050565b600082821b905092915050565b600060088302620004877fffffffffffffffffffffffffffffffffffffffffffffffffffffffffffffffff8262000448565b62000493868362000448565b95508019841693508086168417925050509392505050565b6000819050919050565b6000819050919050565b6000620004e0620004da620004d484620004ab565b620004b5565b620004ab565b9050919050565b6000819050919050565b620004fc83620004bf565b620005146200050b82620004e7565b84845462000455565b825550505050565b600090565b6200052b6200051c565b62000538818484620004f1565b505050565b5b8181101562000560576200055460008262000521565b6001810190506200053e565b5050565b601f821115620005af57620005798162000423565b620005848462000438565b8101602085101562000594578190505b620005ac620005a38562000438565b8301826200053d565b50505b505050565b600082821c905092915050565b6000620005d460001984600802620005b4565b1980831691505092915050565b6000620005ef8383620005c1565b9150826002028217905092915050565b6200060a8262000385565b67ffffffffffffffff81111562000626576200062562000390565b5b620006328254620003ee565b6200063f82828562000564565b600060209050601f83116001811462000677576000841562000662578287015190505b6200066e8582620005e1565b865550620006de565b601f198416620006878662000423565b60005b82811015620006b1578489015182556001820191506020850194506020810190506200068a565b86831015620006d15784890151620006cd601f891682620005c1565b8355505b6001600288020188555050505b505050505050565b620006f1816200030e565b82525050565b60006020820190506200070e6000830184620006e6565b92915050565b61525380620007246000396000f3fe608060405234801561001057600080fd5b50600436106101a95760003560e01c8063715018a6116100f9578063abc8c7af11610097578063d0ce736011610071578063d0ce7360146104cc578063d471cf5d146104e8578063e985e9c514610504578063f2fde38b14610534576101a9565b8063abc8c7af14610462578063b88d4fde14610480578063c87b56dd1461049c576101a9565b806395d89b41116100d357806395d89b41146103dc5780639be78f05146103fa578063a22cb46514610416578063a30fb02014610432576101a9565b8063715018a61461039857806382558c2a146103a25780638da5cb5b146103be576101a9565b806323b872dd11610166578063592691221161014057806359269122146102ea5780636352211e1461031a57806366666aa91461034a57806370a0823114610368576101a9565b806323b872dd146102825780633a0432421461029e57806342842e0e146102ce576101a9565b8063017d6f99146101ae57806301ffc9a7146101cc57806306fdde03146101fc578063081812fc1461021a578063095ea7b31461024a5780631892dd9f14610266575b600080fd5b6101b6610550565b6040516101c3919061353a565b60405180910390f35b6101e660048036038101906101e191906135c1565b610576565b6040516101f39190613609565b60405180910390f35b610204610658565b60405161021191906136b4565b60405180910390f35b610234600480360381019061022f919061370c565b6106ea565b604051610241919061353a565b60405180910390f35b610264600480360381019061025f9190613765565b610735565b005b610280600480360381019061027b91906137a5565b610770565b005b61029c600480360381019061029791906137d2565b6107bc565b005b6102b860048036038101906102b3919061370c565b6109e2565b6040516102c5919061353a565b60405180910390f35b6102e860048036038101906102e391906137d2565b6109f4565b005b61030460048036038101906102ff919061370c565b610a14565b6040516103119190613834565b60405180910390f35b610334600480360381019061032f919061370c565b610a2a565b604051610341919061353a565b60405180910390f35b610352610a64565b60405161035f919061353a565b60405180910390f35b610382600480360381019061037d91906137a5565b610a8a565b60405161038f9190613834565b60405180910390f35b6103a0610ae6565b005b6103bc60048036038101906103b791906137a5565b610afa565b005b6103c6610b46565b6040516103d3919061353a565b60405180910390f35b6103e4610b70565b6040516103f191906136b4565b60405180910390f35b610414600480360381019061040f91906137a5565b610c02565b005b610430600480360381019061042b919061387b565b610c4e565b005b61044c6004803603810190610447919061370c565b610c89565b6040516104599190613ba5565b60405180910390f35b61046a610f4f565b604051610477919061353a565b60405180910390f35b61049a60048036038101906104959190613cfc565b610f75565b005b6104b660048036038101906104b1919061370c565b61119d565b6040516104c391906136b4565b60405180910390f35b6104e660048036038101906104e1919061370c565b6111b3565b005b61050260048036038101906104fd9190614146565b6113fb565b005b61051e6004803603810190610519919061418f565b611ceb565b60405161052b9190613609565b60405180910390f35b61054e600480360381019061054991906137a5565b611d7c565b005b600d60009054906101000a900473ffffffffffffffffffffffffffffffffffffffff1681565b60007f80ac58cd000000000000000000000000000000000000000000000000000000007bffffffffffffffffffffffffffffffffffffffffffffffffffffffff1916827bffffffffffffffffffffffffffffffffffffffffffffffffffffffff1916148061064157507f5b5e139f000000000000000000000000000000000000000000000000000000007bffffffffffffffffffffffffffffffffffffffffffffffffffffffff1916827bffffffffffffffffffffffffffffffffffffffffffffffffffffffff1916145b80610651575061065082611e02565b5b9050919050565b606060008054610667906141fe565b80601f0160208091040260200160405190810160405280929190818152602001828054610693906141fe565b80156106e05780601f106106b5576101008083540402835291602001916106e0565b820191906000526020600020905b8154815290600101906020018083116106c357829003601f168201915b5050505050905090565b60006106f582611e6c565b1561072457600b60009054906101000a900473ffffffffffffffffffffffffffffffffffffffff169050610730565b61072d82611ef9565b90505b919050565b6040517f08c379a00000000000000000000000000000000000000000000000000000000081526004016107679061427b565b60405180910390fd5b610778611f15565b80600b60006101000a81548173ffffffffffffffffffffffffffffffffffffffff021916908373ffffffffffffffffffffffffffffffffffffffff16021790555050565b600b60009054906101000a900473ffffffffffffffffffffffffffffffffffffffff1673ffffffffffffffffffffffffffffffffffffffff163373ffffffffffffffffffffffffffffffffffffffff161480156108685750600073ffffffffffffffffffffffffffffffffffffffff16600b60009054906101000a900473ffffffffffffffffffffffffffffffffffffffff1673ffffffffffffffffffffffffffffffffffffffff1614155b6108a7576040517f08c379a000000000000000000000000000000000000000000000000000000000815260040161089e9061430d565b60405180910390fd5b6108b081611e6c565b15610947576108bf8183611f9c565b6001600860008573ffffffffffffffffffffffffffffffffffffffff1673ffffffffffffffffffffffffffffffffffffffff168152602001908152602001600020600082825461090f919061435c565b92505081905550610942600b60009054906101000a900473ffffffffffffffffffffffffffffffffffffffff1682611faa565b6109dd565b600b60009054906101000a900473ffffffffffffffffffffffffffffffffffffffff1673ffffffffffffffffffffffffffffffffffffffff1661098982611ef9565b73ffffffffffffffffffffffffffffffffffffffff16146109d1576109d0600b60009054906101000a900473ffffffffffffffffffffffffffffffffffffffff1682611faa565b5b6109dc838383611fc0565b5b505050565b60006109ed826120c2565b9050919050565b610a0f83838360405180602001604052806000815250610f75565b505050565b6000610a1f82610c89565b608001519050919050565b6000610a3582611e6c565b15610a5357610a4c610a46836120d4565b836123da565b9050610a5f565b610a5c826120c2565b90505b919050565b600c60009054906101000a900473ffffffffffffffffffffffffffffffffffffffff1681565b6000600860008373ffffffffffffffffffffffffffffffffffffffff1673ffffffffffffffffffffffffffffffffffffffff16815260200190815260200160002054610ad583612852565b610adf9190614390565b9050919050565b610aee611f15565b610af8600061290c565b565b610b02611f15565b80600c60006101000a81548173ffffffffffffffffffffffffffffffffffffffff021916908373ffffffffffffffffffffffffffffffffffffffff16021790555050565b6000600660009054906101000a900473ffffffffffffffffffffffffffffffffffffffff16905090565b606060018054610b7f906141fe565b80601f0160208091040260200160405190810160405280929190818152602001828054610bab906141fe565b8015610bf85780601f10610bcd57610100808354040283529160200191610bf8565b820191906000526020600020905b815481529060010190602001808311610bdb57829003601f168201915b5050505050905090565b610c0a611f15565b80600d60006101000a81548173ffffffffffffffffffffffffffffffffffffffff021916908373ffffffffffffffffffffffffffffffffffffffff16021790555050565b6040517f08c379a0000000000000000000000000000000000000000000000000000000008152600401610c8090614436565b60405180910390fd5b610c91613359565b6000610c9c836120d4565b905060008111610ce1576040517f08c379a0000000000000000000000000000000000000000000000000000000008152600401610cd8906144a2565b60405180910390fd5b6007600082815260200190815260200160002060405180610120016040529081600082018054610d10906141fe565b80601f0160208091040260200160405190810160405280929190818152602001828054610d3c906141fe565b8015610d895780601f10610d5e57610100808354040283529160200191610d89565b820191906000526020600020905b815481529060010190602001808311610d6c57829003601f168201915b5050505050815260200160018201805480602002602001604051908101604052809291908181526020016000905b82821015610e5357838290600052602060002090600302016040518060600160405290816000820160009054906101000a900473ffffffffffffffffffffffffffffffffffffffff1673ffffffffffffffffffffffffffffffffffffffff1673ffffffffffffffffffffffffffffffffffffffff1681526020016001820154815260200160028201548152505081526020019060010190610db7565b50505050815260200160028201805480602002602001604051908101604052809291908181526020018280548015610ee057602002820191906000526020600020905b8160009054906101000a900473ffffffffffffffffffffffffffffffffffffffff1673ffffffffffffffffffffffffffffffffffffffff1681526020019060010190808311610e96575b50505050508152602001600382015481526020016004820154815260200160058201548152602001600682015481526020016007820160009054906101000a900460ff161515151581526020016007820160019054906101000a900460ff161515151581525050915050919050565b600b60009054906101000a900473ffffffffffffffffffffffffffffffffffffffff1681565b600b60009054906101000a900473ffffffffffffffffffffffffffffffffffffffff1673ffffffffffffffffffffffffffffffffffffffff163373ffffffffffffffffffffffffffffffffffffffff161480156110215750600073ffffffffffffffffffffffffffffffffffffffff16600b60009054906101000a900473ffffffffffffffffffffffffffffffffffffffff1673ffffffffffffffffffffffffffffffffffffffff1614155b611060576040517f08c379a00000000000000000000000000000000000000000000000000000000081526004016110579061430d565b60405180910390fd5b61106982611e6c565b15611100576110788284611f9c565b6001600860008673ffffffffffffffffffffffffffffffffffffffff1673ffffffffffffffffffffffffffffffffffffffff16815260200190815260200160002060008282546110c8919061435c565b925050819055506110fb600b60009054906101000a900473ffffffffffffffffffffffffffffffffffffffff1683611faa565b611197565b600b60009054906101000a900473ffffffffffffffffffffffffffffffffffffffff1673ffffffffffffffffffffffffffffffffffffffff1661114283611ef9565b73ffffffffffffffffffffffffffffffffffffffff161461118a57611189600b60009054906101000a900473ffffffffffffffffffffffffffffffffffffffff1683611faa565b5b611196848484846129d2565b5b50505050565b60606111a882610c89565b600001519050919050565b600d60009054906101000a900473ffffffffffffffffffffffffffffffffffffffff1673ffffffffffffffffffffffffffffffffffffffff163373ffffffffffffffffffffffffffffffffffffffff1614801561125f5750600073ffffffffffffffffffffffffffffffffffffffff16600d60009054906101000a900473ffffffffffffffffffffffffffffffffffffffff1673ffffffffffffffffffffffffffffffffffffffff1614155b61129e576040517f08c379a000000000000000000000000000000000000000000000000000000000815260040161129590614534565b60405180910390fd5b600081116112e1576040517f08c379a00000000000000000000000000000000000000000000000000000000081526004016112d8906145c6565b60405180910390fd5b6007600082815260200190815260200160002060070160019054906101000a900460ff16611344576040517f08c379a000000000000000000000000000000000000000000000000000000000815260040161133b90614658565b60405180910390fd5b60006007600083815260200190815260200160002090508060070160009054906101000a900460ff16156113ad576040517f08c379a00000000000000000000000000000000000000000000000000000000081526004016113a4906146ea565b60405180910390fd5b60018160070160006101000a81548160ff021916908315150217905550817fd79ef0d7f68df3d827e7c4b6a13ec4570e9a30515c4717bbaa647da58ca68be160405160405180910390a25050565b600d60009054906101000a900473ffffffffffffffffffffffffffffffffffffffff1673ffffffffffffffffffffffffffffffffffffffff163373ffffffffffffffffffffffffffffffffffffffff161480156114a75750600073ffffffffffffffffffffffffffffffffffffffff16600d60009054906101000a900473ffffffffffffffffffffffffffffffffffffffff1673ffffffffffffffffffffffffffffffffffffffff1614155b6114e6576040517f08c379a00000000000000000000000000000000000000000000000000000000081526004016114dd90614534565b60405180910390fd5b60008160000151905060008111611532576040517f08c379a0000000000000000000000000000000000000000000000000000000008152600401611529906145c6565b60405180910390fd5b6007600082815260200190815260200160002060070160019054906101000a900460ff1615611596576040517f08c379a000000000000000000000000000000000000000000000000000000000815260040161158d9061477c565b60405180910390fd5b600073ffffffffffffffffffffffffffffffffffffffff16600c60009054906101000a900473ffffffffffffffffffffffffffffffffffffffff1673ffffffffffffffffffffffffffffffffffffffff1603611627576040517f08c379a000000000000000000000000000000000000000000000000000000000815260040161161e906147e8565b60405180910390fd5b60008260c001511161166e576040517f08c379a00000000000000000000000000000000000000000000000000000000081526004016116659061487a565b60405180910390fd5b6000805b83604001515181101561175357600073ffffffffffffffffffffffffffffffffffffffff16846040015182815181106116ae576116ad61489a565b5b60200260200101516000015173ffffffffffffffffffffffffffffffffffffffff1603611710576040517f08c379a000000000000000000000000000000000000000000000000000000000815260040161170790614915565b60405180910390fd5b836040015181815181106117275761172661489a565b5b6020026020010151602001518261173e9190614935565b9150808061174b9061496a565b915050611672565b5060648160ff161461179a576040517f08c379a000000000000000000000000000000000000000000000000000000000815260040161179190614a24565b60405180910390fd5b60008360a00151116117e1576040517f08c379a00000000000000000000000000000000000000000000000000000000081526004016117d890614ab6565b60405180910390fd5b600060648460c001516117f49190614b05565b14611834576040517f08c379a000000000000000000000000000000000000000000000000000000000815260040161182b90614ba8565b60405180910390fd5b6000836080015111156118d957600c60009054906101000a900473ffffffffffffffffffffffffffffffffffffffff1673ffffffffffffffffffffffffffffffffffffffff1663ed711e2284608001518560c001516040518363ffffffff1660e01b81526004016118a6929190614bc8565b600060405180830381600087803b1580156118c057600080fd5b505af11580156118d4573d6000803e3d6000fd5b505050505b6000600a549050600060018560c00151836118f49190614390565b6118fe919061435c565b9050600085604001515167ffffffffffffffff81111561192157611920613bd1565b5b60405190808252806020026020018201604052801561195a57816020015b6119476133a9565b81526020019060019003908161193f5790505b5090506000839050600060648860c001516119759190614bf1565b905060005b886040015151811015611ae7576000896040015182815181106119a05761199f61489a565b5b602002602001015190506000816020015160ff16846119bf9190614c22565b90506000600182876119d19190614390565b6119db919061435c565b905060405180606001604052808d6040015186815181106119ff576119fe61489a565b5b60200260200101516000015173ffffffffffffffffffffffffffffffffffffffff16815260200187815260200182815250878581518110611a4357611a4261489a565b5b6020026020010181905250600181611a5b9190614390565b95508160086000898781518110611a7557611a7461489a565b5b60200260200101516000015173ffffffffffffffffffffffffffffffffffffffff1673ffffffffffffffffffffffffffffffffffffffff1681526020019081526020016000206000828254611aca9190614390565b925050819055505050508080611adf9061496a565b91505061197a565b5060006007600089815260200190815260200160002090508860200151816000019081611b149190614e10565b508860600151816002019080519060200190611b319291906133e0565b50886080015181600301819055508860a00151816004018190555085816005018190555084816006018190555060008160070160006101000a81548160ff02191690831515021790555060018160070160016101000a81548160ff021916908315150217905550806001016000611ba8919061346a565b60005b8451811015611c6c5781600101858281518110611bcb57611bca61489a565b5b6020026020010151908060018154018082558091505060019003906000526020600020906003020160009091909190915060008201518160000160006101000a81548173ffffffffffffffffffffffffffffffffffffffff021916908373ffffffffffffffffffffffffffffffffffffffff160217905550602082015181600101556040820151816002015550508080611c649061496a565b915050611bab565b508860c00151600a6000828254611c839190614390565b925050819055506009889080600181540180825580915050600190039060005260206000200160009091909190915055877f9e3c7e008a15a3c864482ee94fd7315bcc9d0c04f3a9041ab922f816acffbe0660405160405180910390a2505050505050505050565b6000600b60009054906101000a900473ffffffffffffffffffffffffffffffffffffffff1673ffffffffffffffffffffffffffffffffffffffff168273ffffffffffffffffffffffffffffffffffffffff161480611d7457508273ffffffffffffffffffffffffffffffffffffffff168273ffffffffffffffffffffffffffffffffffffffff16145b905092915050565b611d84611f15565b600073ffffffffffffffffffffffffffffffffffffffff168173ffffffffffffffffffffffffffffffffffffffff1603611df65760006040517f1e4fbdf7000000000000000000000000000000000000000000000000000000008152600401611ded919061353a565b60405180910390fd5b611dff8161290c565b50565b60007f01ffc9a7000000000000000000000000000000000000000000000000000000007bffffffffffffffffffffffffffffffffffffffffffffffffffffffff1916827bffffffffffffffffffffffffffffffffffffffffffffffffffffffff1916149050919050565b60003073ffffffffffffffffffffffffffffffffffffffff16633a043242836040518263ffffffff1660e01b8152600401611ea79190613834565b602060405180830381865afa925050508015611ee157506040513d601f19601f82011682018060405250810190611ede9190614ef7565b60015b611eee5760019050611ef4565b60009150505b919050565b6000611f04826129ef565b50611f0e82612a77565b9050919050565b611f1d612ab4565b73ffffffffffffffffffffffffffffffffffffffff16611f3b610b46565b73ffffffffffffffffffffffffffffffffffffffff1614611f9a57611f5e612ab4565b6040517f118cdaa7000000000000000000000000000000000000000000000000000000008152600401611f91919061353a565b60405180910390fd5b565b611fa68183612abc565b5050565b611fbc8282611fb7612ab4565b612ada565b5050565b600073ffffffffffffffffffffffffffffffffffffffff168273ffffffffffffffffffffffffffffffffffffffff16036120325760006040517f64a0ae92000000000000000000000000000000000000000000000000000000008152600401612029919061353a565b60405180910390fd5b60006120468383612041612ab4565b612aec565b90508373ffffffffffffffffffffffffffffffffffffffff168173ffffffffffffffffffffffffffffffffffffffff16146120bc578382826040517f64283d7b0000000000000000000000000000000000000000000000000000000081526004016120b393929190614f24565b60405180910390fd5b50505050565b60006120cd826129ef565b9050919050565b600080600090505b6009805490508110156123cf576000600982815481106120ff576120fe61489a565b5b906000526020600020015490506000600760008381526020019081526020016000206040518061012001604052908160008201805461213d906141fe565b80601f0160208091040260200160405190810160405280929190818152602001828054612169906141fe565b80156121b65780601f1061218b576101008083540402835291602001916121b6565b820191906000526020600020905b81548152906001019060200180831161219957829003601f168201915b5050505050815260200160018201805480602002602001604051908101604052809291908181526020016000905b8282101561228057838290600052602060002090600302016040518060600160405290816000820160009054906101000a900473ffffffffffffffffffffffffffffffffffffffff1673ffffffffffffffffffffffffffffffffffffffff1673ffffffffffffffffffffffffffffffffffffffff16815260200160018201548152602001600282015481525050815260200190600101906121e4565b5050505081526020016002820180548060200260200160405190810160405280929190818152602001828054801561230d57602002820191906000526020600020905b8160009054906101000a900473ffffffffffffffffffffffffffffffffffffffff1673ffffffffffffffffffffffffffffffffffffffff16815260200190600101908083116122c3575b50505050508152602001600382015481526020016004820154815260200160058201548152602001600682015481526020016007820160009054906101000a900460ff161515151581526020016007820160019054906101000a900460ff1615151515815250509050848160a001511115801561238e57508060c001518511155b801561239c57508060e00151155b80156123aa57508061010001515b156123ba578193505050506123d5565b505080806123c79061496a565b9150506120dc565b50600090505b919050565b600080831161241e576040517f08c379a0000000000000000000000000000000000000000000000000000000008152600401612415906145c6565b60405180910390fd5b6007600084815260200190815260200160002060070160019054906101000a900460ff16612481576040517f08c379a000000000000000000000000000000000000000000000000000000000815260040161247890614658565b60405180910390fd5b60076000848152602001908152602001600020600501548210156124da576040517f08c379a00000000000000000000000000000000000000000000000000000000081526004016124d190614fcd565b60405180910390fd5b6007600084815260200190815260200160002060060154821115612533576040517f08c379a000000000000000000000000000000000000000000000000000000000815260040161252a9061505f565b60405180910390fd5b60006007600085815260200190815260200160002060405180610120016040529081600082018054612564906141fe565b80601f0160208091040260200160405190810160405280929190818152602001828054612590906141fe565b80156125dd5780601f106125b2576101008083540402835291602001916125dd565b820191906000526020600020905b8154815290600101906020018083116125c057829003601f168201915b5050505050815260200160018201805480602002602001604051908101604052809291908181526020016000905b828210156126a757838290600052602060002090600302016040518060600160405290816000820160009054906101000a900473ffffffffffffffffffffffffffffffffffffffff1673ffffffffffffffffffffffffffffffffffffffff1673ffffffffffffffffffffffffffffffffffffffff168152602001600182015481526020016002820154815250508152602001906001019061260b565b5050505081526020016002820180548060200260200160405190810160405280929190818152602001828054801561273457602002820191906000526020600020905b8160009054906101000a900473ffffffffffffffffffffffffffffffffffffffff1673ffffffffffffffffffffffffffffffffffffffff16815260200190600101908083116126ea575b50505050508152602001600382015481526020016004820154815260200160058201548152602001600682015481526020016007820160009054906101000a900460ff161515151581526020016007820160019054906101000a900460ff161515151581525050905060005b816020015151811015612810576000826020015182815181106127c6576127c561489a565b5b60200260200101519050848160200151111580156127e8575080604001518511155b156127fc578060000151935050505061284c565b5080806128089061496a565b9150506127a0565b506040517f08c379a0000000000000000000000000000000000000000000000000000000008152600401612843906150f1565b60405180910390fd5b92915050565b60008073ffffffffffffffffffffffffffffffffffffffff168273ffffffffffffffffffffffffffffffffffffffff16036128c55760006040517f89c62b640000000000000000000000000000000000000000000000000000000081526004016128bc919061353a565b60405180910390fd5b600360008373ffffffffffffffffffffffffffffffffffffffff1673ffffffffffffffffffffffffffffffffffffffff168152602001908152602001600020549050919050565b6000600660009054906101000a900473ffffffffffffffffffffffffffffffffffffffff16905081600660006101000a81548173ffffffffffffffffffffffffffffffffffffffff021916908373ffffffffffffffffffffffffffffffffffffffff1602179055508173ffffffffffffffffffffffffffffffffffffffff168173ffffffffffffffffffffffffffffffffffffffff167f8be0079c531659141344cd1fd0a4f28419497f9722a3daafe3b4186f6b6457e060405160405180910390a35050565b6129dd8484846107bc565b6129e984848484612d06565b50505050565b6000806129fb83612ebd565b9050600073ffffffffffffffffffffffffffffffffffffffff168173ffffffffffffffffffffffffffffffffffffffff1603612a6e57826040517f7e273289000000000000000000000000000000000000000000000000000000008152600401612a659190613834565b60405180910390fd5b80915050919050565b60006004600083815260200190815260200160002060009054906101000a900473ffffffffffffffffffffffffffffffffffffffff169050919050565b600033905090565b612ad6828260405180602001604052806000815250612efa565b5050565b612ae78383836001612f16565b505050565b600080612af884612ebd565b9050600073ffffffffffffffffffffffffffffffffffffffff168373ffffffffffffffffffffffffffffffffffffffff1614612b3a57612b398184866130db565b5b600073ffffffffffffffffffffffffffffffffffffffff168173ffffffffffffffffffffffffffffffffffffffff1614612bcb57612b7c600085600080612f16565b6001600360008373ffffffffffffffffffffffffffffffffffffffff1673ffffffffffffffffffffffffffffffffffffffff168152602001908152602001600020600082825403925050819055505b600073ffffffffffffffffffffffffffffffffffffffff168573ffffffffffffffffffffffffffffffffffffffff1614612c4e576001600360008773ffffffffffffffffffffffffffffffffffffffff1673ffffffffffffffffffffffffffffffffffffffff168152602001908152602001600020600082825401925050819055505b846002600086815260200190815260200160002060006101000a81548173ffffffffffffffffffffffffffffffffffffffff021916908373ffffffffffffffffffffffffffffffffffffffff160217905550838573ffffffffffffffffffffffffffffffffffffffff168273ffffffffffffffffffffffffffffffffffffffff167fddf252ad1be2c89b69c2b068fc378daa952ba7f163c4a11628f55a4df523b3ef60405160405180910390a4809150509392505050565b60008373ffffffffffffffffffffffffffffffffffffffff163b1115612eb7578273ffffffffffffffffffffffffffffffffffffffff1663150b7a02612d4a612ab4565b8685856040518563ffffffff1660e01b8152600401612d6c9493929190615166565b6020604051808303816000875af1925050508015612da857506040513d601f19601f82011682018060405250810190612da591906151c7565b60015b612e2c573d8060008114612dd8576040519150601f19603f3d011682016040523d82523d6000602084013e612ddd565b606091505b506000815103612e2457836040517f64a0ae92000000000000000000000000000000000000000000000000000000008152600401612e1b919061353a565b60405180910390fd5b805181602001fd5b63150b7a0260e01b7bffffffffffffffffffffffffffffffffffffffffffffffffffffffff1916817bffffffffffffffffffffffffffffffffffffffffffffffffffffffff191614612eb557836040517f64a0ae92000000000000000000000000000000000000000000000000000000008152600401612eac919061353a565b60405180910390fd5b505b50505050565b60006002600083815260200190815260200160002060009054906101000a900473ffffffffffffffffffffffffffffffffffffffff169050919050565b612f04838361319f565b612f116000848484612d06565b505050565b8080612f4f5750600073ffffffffffffffffffffffffffffffffffffffff168273ffffffffffffffffffffffffffffffffffffffff1614155b15613083576000612f5f846129ef565b9050600073ffffffffffffffffffffffffffffffffffffffff168373ffffffffffffffffffffffffffffffffffffffff1614158015612fca57508273ffffffffffffffffffffffffffffffffffffffff168173ffffffffffffffffffffffffffffffffffffffff1614155b8015612fdd5750612fdb8184611ceb565b155b1561301f57826040517fa9fbf51f000000000000000000000000000000000000000000000000000000008152600401613016919061353a565b60405180910390fd5b811561308157838573ffffffffffffffffffffffffffffffffffffffff168273ffffffffffffffffffffffffffffffffffffffff167f8c5be1e5ebec7d5bd14f71427d1e84f3dd0314c0f7b2291e5b200ac8c7c3b92560405160405180910390a45b505b836004600085815260200190815260200160002060006101000a81548173ffffffffffffffffffffffffffffffffffffffff021916908373ffffffffffffffffffffffffffffffffffffffff16021790555050505050565b6130e6838383613298565b61319a57600073ffffffffffffffffffffffffffffffffffffffff168373ffffffffffffffffffffffffffffffffffffffff160361315b57806040517f7e2732890000000000000000000000000000000000000000000000000000000081526004016131529190613834565b60405180910390fd5b81816040517f177e802f0000000000000000000000000000000000000000000000000000000081526004016131919291906151f4565b60405180910390fd5b505050565b600073ffffffffffffffffffffffffffffffffffffffff168273ffffffffffffffffffffffffffffffffffffffff16036132115760006040517f64a0ae92000000000000000000000000000000000000000000000000000000008152600401613208919061353a565b60405180910390fd5b600061321f83836000612aec565b9050600073ffffffffffffffffffffffffffffffffffffffff168173ffffffffffffffffffffffffffffffffffffffff16146132935760006040517f73c6ac6e00000000000000000000000000000000000000000000000000000000815260040161328a919061353a565b60405180910390fd5b505050565b60008073ffffffffffffffffffffffffffffffffffffffff168373ffffffffffffffffffffffffffffffffffffffff161415801561335057508273ffffffffffffffffffffffffffffffffffffffff168473ffffffffffffffffffffffffffffffffffffffff16148061331157506133108484611ceb565b5b8061334f57508273ffffffffffffffffffffffffffffffffffffffff1661333783612a77565b73ffffffffffffffffffffffffffffffffffffffff16145b5b90509392505050565b604051806101200160405280606081526020016060815260200160608152602001600081526020016000815260200160008152602001600081526020016000151581526020016000151581525090565b6040518060600160405280600073ffffffffffffffffffffffffffffffffffffffff16815260200160008152602001600081525090565b828054828255906000526020600020908101928215613459579160200282015b828111156134585782518260006101000a81548173ffffffffffffffffffffffffffffffffffffffff021916908373ffffffffffffffffffffffffffffffffffffffff16021790555091602001919060010190613400565b5b509050613466919061348e565b5090565b508054600082556003029060005260206000209081019061348b91906134ab565b50565b5b808211156134a757600081600090555060010161348f565b5090565b5b808211156134f557600080820160006101000a81549073ffffffffffffffffffffffffffffffffffffffff021916905560018201600090556002820160009055506003016134ac565b5090565b600073ffffffffffffffffffffffffffffffffffffffff82169050919050565b6000613524826134f9565b9050919050565b61353481613519565b82525050565b600060208201905061354f600083018461352b565b92915050565b6000604051905090565b600080fd5b600080fd5b60007fffffffff0000000000000000000000000000000000000000000000000000000082169050919050565b61359e81613569565b81146135a957600080fd5b50565b6000813590506135bb81613595565b92915050565b6000602082840312156135d7576135d661355f565b5b60006135e5848285016135ac565b91505092915050565b60008115159050919050565b613603816135ee565b82525050565b600060208201905061361e60008301846135fa565b92915050565b600081519050919050565b600082825260208201905092915050565b60005b8381101561365e578082015181840152602081019050613643565b60008484015250505050565b6000601f19601f8301169050919050565b600061368682613624565b613690818561362f565b93506136a0818560208601613640565b6136a98161366a565b840191505092915050565b600060208201905081810360008301526136ce818461367b565b905092915050565b6000819050919050565b6136e9816136d6565b81146136f457600080fd5b50565b600081359050613706816136e0565b92915050565b6000602082840312156137225761372161355f565b5b6000613730848285016136f7565b91505092915050565b61374281613519565b811461374d57600080fd5b50565b60008135905061375f81613739565b92915050565b6000806040838503121561377c5761377b61355f565b5b600061378a85828601613750565b925050602061379b858286016136f7565b9150509250929050565b6000602082840312156137bb576137ba61355f565b5b60006137c984828501613750565b91505092915050565b6000806000606084860312156137eb576137ea61355f565b5b60006137f986828701613750565b935050602061380a86828701613750565b925050604061381b868287016136f7565b9150509250925092565b61382e816136d6565b82525050565b60006020820190506138496000830184613825565b92915050565b613858816135ee565b811461386357600080fd5b50565b6000813590506138758161384f565b92915050565b600080604083850312156138925761389161355f565b5b60006138a085828601613750565b92505060206138b185828601613866565b9150509250929050565b600082825260208201905092915050565b60006138d782613624565b6138e181856138bb565b93506138f1818560208601613640565b6138fa8161366a565b840191505092915050565b600081519050919050565b600082825260208201905092915050565b6000819050602082019050919050565b61393a81613519565b82525050565b613949816136d6565b82525050565b6060820160008201516139656000850182613931565b5060208201516139786020850182613940565b50604082015161398b6040850182613940565b50505050565b600061399d838361394f565b60608301905092915050565b6000602082019050919050565b60006139c182613905565b6139cb8185613910565b93506139d683613921565b8060005b83811015613a075781516139ee8882613991565b97506139f9836139a9565b9250506001810190506139da565b5085935050505092915050565b600081519050919050565b600082825260208201905092915050565b6000819050602082019050919050565b6000613a4c8383613931565b60208301905092915050565b6000602082019050919050565b6000613a7082613a14565b613a7a8185613a1f565b9350613a8583613a30565b8060005b83811015613ab6578151613a9d8882613a40565b9750613aa883613a58565b925050600181019050613a89565b5085935050505092915050565b613acc816135ee565b82525050565b6000610120830160008301518482036000860152613af082826138cc565b91505060208301518482036020860152613b0a82826139b6565b91505060408301518482036040860152613b248282613a65565b9150506060830151613b396060860182613940565b506080830151613b4c6080860182613940565b5060a0830151613b5f60a0860182613940565b5060c0830151613b7260c0860182613940565b5060e0830151613b8560e0860182613ac3565b50610100830151613b9a610100860182613ac3565b508091505092915050565b60006020820190508181036000830152613bbf8184613ad2565b905092915050565b600080fd5b600080fd5b7f4e487b7100000000000000000000000000000000000000000000000000000000600052604160045260246000fd5b613c098261366a565b810181811067ffffffffffffffff82111715613c2857613c27613bd1565b5b80604052505050565b6000613c3b613555565b9050613c478282613c00565b919050565b600067ffffffffffffffff821115613c6757613c66613bd1565b5b613c708261366a565b9050602081019050919050565b82818337600083830152505050565b6000613c9f613c9a84613c4c565b613c31565b905082815260208101848484011115613cbb57613cba613bcc565b5b613cc6848285613c7d565b509392505050565b600082601f830112613ce357613ce2613bc7565b5b8135613cf3848260208601613c8c565b91505092915050565b60008060008060808587031215613d1657613d1561355f565b5b6000613d2487828801613750565b9450506020613d3587828801613750565b9350506040613d46878288016136f7565b925050606085013567ffffffffffffffff811115613d6757613d66613564565b5b613d7387828801613cce565b91505092959194509250565b600080fd5b600080fd5b600067ffffffffffffffff821115613da457613da3613bd1565b5b613dad8261366a565b9050602081019050919050565b6000613dcd613dc884613d89565b613c31565b905082815260208101848484011115613de957613de8613bcc565b5b613df4848285613c7d565b509392505050565b600082601f830112613e1157613e10613bc7565b5b8135613e21848260208601613dba565b91505092915050565b600067ffffffffffffffff821115613e4557613e44613bd1565b5b602082029050602081019050919050565b600080fd5b600060ff82169050919050565b613e7181613e5b565b8114613e7c57600080fd5b50565b600081359050613e8e81613e68565b92915050565b600060408284031215613eaa57613ea9613d7f565b5b613eb46040613c31565b90506000613ec484828501613750565b6000830152506020613ed884828501613e7f565b60208301525092915050565b6000613ef7613ef284613e2a565b613c31565b90508083825260208201905060408402830185811115613f1a57613f19613e56565b5b835b81811015613f435780613f2f8882613e94565b845260208401935050604081019050613f1c565b5050509392505050565b600082601f830112613f6257613f61613bc7565b5b8135613f72848260208601613ee4565b91505092915050565b600067ffffffffffffffff821115613f9657613f95613bd1565b5b602082029050602081019050919050565b6000613fba613fb584613f7b565b613c31565b90508083825260208201905060208402830185811115613fdd57613fdc613e56565b5b835b818110156140065780613ff28882613750565b845260208401935050602081019050613fdf565b5050509392505050565b600082601f83011261402557614024613bc7565b5b8135614035848260208601613fa7565b91505092915050565b600060e0828403121561405457614053613d7f565b5b61405e60e0613c31565b9050600061406e848285016136f7565b600083015250602082013567ffffffffffffffff81111561409257614091613d84565b5b61409e84828501613dfc565b602083015250604082013567ffffffffffffffff8111156140c2576140c1613d84565b5b6140ce84828501613f4d565b604083015250606082013567ffffffffffffffff8111156140f2576140f1613d84565b5b6140fe84828501614010565b6060830152506080614112848285016136f7565b60808301525060a0614126848285016136f7565b60a08301525060c061413a848285016136f7565b60c08301525092915050565b60006020828403121561415c5761415b61355f565b5b600082013567ffffffffffffffff81111561417a57614179613564565b5b6141868482850161403e565b91505092915050565b600080604083850312156141a6576141a561355f565b5b60006141b485828601613750565b92505060206141c585828601613750565b9150509250929050565b7f4e487b7100000000000000000000000000000000000000000000000000000000600052602260045260246000fd5b6000600282049050600182168061421657607f821691505b602082108103614229576142286141cf565b5b50919050565b7f44656665727265643a20617070726f7665206973206e6f7420616c6c6f776564600082015250565b600061426560208361362f565b91506142708261422f565b602082019050919050565b6000602082019050818103600083015261429481614258565b9050919050565b7f44656665727265643a2063616c6c6572206973206e6f7420746865206d61726b60008201527f6574706c61636500000000000000000000000000000000000000000000000000602082015250565b60006142f760278361362f565b91506143028261429b565b604082019050919050565b60006020820190508181036000830152614326816142ea565b9050919050565b7f4e487b7100000000000000000000000000000000000000000000000000000000600052601160045260246000fd5b6000614367826136d6565b9150614372836136d6565b925082820390508181111561438a5761438961432d565b5b92915050565b600061439b826136d6565b91506143a6836136d6565b92508282019050808211156143be576143bd61432d565b5b92915050565b7f44656665727265643a20736574417070726f76616c466f72416c6c206973206e60008201527f6f7420616c6c6f77656400000000000000000000000000000000000000000000602082015250565b6000614420602a8361362f565b915061442b826143c4565b604082019050919050565b6000602082019050818103600083015261444f81614413565b9050919050565b7f44656665727265643a20746f6b656e20646f6573206e6f742065786973740000600082015250565b600061448c601e8361362f565b915061449782614456565b602082019050919050565b600060208201905081810360008301526144bb8161447f565b9050919050565b7f44656665727265643a2063616c6c6572206973206e6f7420746865206d696e7460008201527f6572000000000000000000000000000000000000000000000000000000000000602082015250565b600061451e60228361362f565b9150614529826144c2565b604082019050919050565b6000602082019050818103600083015261454d81614511565b9050919050565b7f44656665727265643a20636f6e74726163744964206d7573742062652067726560008201527f61746572207468616e2030000000000000000000000000000000000000000000602082015250565b60006145b0602b8361362f565b91506145bb82614554565b604082019050919050565b600060208201905081810360008301526145df816145a3565b9050919050565b7f44656665727265643a20636f6e747261637420646f6573206e6f74206578697360008201527f7400000000000000000000000000000000000000000000000000000000000000602082015250565b600061464260218361362f565b915061464d826145e6565b604082019050919050565b6000602082019050818103600083015261467181614635565b9050919050565b7f44656665727265643a20636f6e747261637420697320616c726561647920636c60008201527f6f73656400000000000000000000000000000000000000000000000000000000602082015250565b60006146d460248361362f565b91506146df82614678565b604082019050919050565b60006020820190508181036000830152614703816146c7565b9050919050565b7f44656665727265643a20636f6e747261637420697320616c726561647920637260008201527f6561746564000000000000000000000000000000000000000000000000000000602082015250565b600061476660258361362f565b91506147718261470a565b604082019050919050565b6000602082019050818103600083015261479581614759565b9050919050565b7f44656665727265643a2072657761726420706f6f6c206973206e6f7420736574600082015250565b60006147d260208361362f565b91506147dd8261479c565b602082019050919050565b60006020820190508181036000830152614801816147c5565b9050919050565b7f44656665727265643a20746f6b656e73416d6f756e74206d757374206265206760008201527f726561746572207468616e203000000000000000000000000000000000000000602082015250565b6000614864602d8361362f565b915061486f82614808565b604082019050919050565b6000602082019050818103600083015261489381614857565b9050919050565b7f4e487b7100000000000000000000000000000000000000000000000000000000600052603260045260246000fd5b7f44656665727265643a2073656c6c6572206d7573742062652073657400000000600082015250565b60006148ff601c8361362f565b915061490a826148c9565b602082019050919050565b6000602082019050818103600083015261492e816148f2565b9050919050565b600061494082613e5b565b915061494b83613e5b565b9250828201905060ff8111156149645761496361432d565b5b92915050565b6000614975826136d6565b91507fffffffffffffffffffffffffffffffffffffffffffffffffffffffffffffffff82036149a7576149a661432d565b5b600182019050919050565b7f44656665727265643a20746f74616c2071756f7461206d75737420626520313060008201527f3000000000000000000000000000000000000000000000000000000000000000602082015250565b6000614a0e60218361362f565b9150614a19826149b2565b604082019050919050565b60006020820190508181036000830152614a3d81614a01565b9050919050565b7f44656665727265643a20746f6b656e5072696365557364206d7573742062652060008201527f67726561746572207468616e2030000000000000000000000000000000000000602082015250565b6000614aa0602e8361362f565b9150614aab82614a44565b604082019050919050565b60006020820190508181036000830152614acf81614a93565b9050919050565b7f4e487b7100000000000000000000000000000000000000000000000000000000600052601260045260246000fd5b6000614b10826136d6565b9150614b1b836136d6565b925082614b2b57614b2a614ad6565b5b828206905092915050565b7f44656665727265643a20746f6b656e73416d6f756e74206d757374206265206460008201527f6976697369626c65206279203130300000000000000000000000000000000000602082015250565b6000614b92602f8361362f565b9150614b9d82614b36565b604082019050919050565b60006020820190508181036000830152614bc181614b85565b9050919050565b6000604082019050614bdd6000830185613825565b614bea6020830184613825565b9392505050565b6000614bfc826136d6565b9150614c07836136d6565b925082614c1757614c16614ad6565b5b828204905092915050565b6000614c2d826136d6565b9150614c38836136d6565b9250828202614c46816136d6565b91508282048414831517614c5d57614c5c61432d565b5b5092915050565b60008190508160005260206000209050919050565b60006020601f8301049050919050565b600082821b905092915050565b600060088302614cc67fffffffffffffffffffffffffffffffffffffffffffffffffffffffffffffffff82614c89565b614cd08683614c89565b95508019841693508086168417925050509392505050565b6000819050919050565b6000614d0d614d08614d03846136d6565b614ce8565b6136d6565b9050919050565b6000819050919050565b614d2783614cf2565b614d3b614d3382614d14565b848454614c96565b825550505050565b600090565b614d50614d43565b614d5b818484614d1e565b505050565b5b81811015614d7f57614d74600082614d48565b600181019050614d61565b5050565b601f821115614dc457614d9581614c64565b614d9e84614c79565b81016020851015614dad578190505b614dc1614db985614c79565b830182614d60565b50505b505050565b600082821c905092915050565b6000614de760001984600802614dc9565b1980831691505092915050565b6000614e008383614dd6565b9150826002028217905092915050565b614e1982613624565b67ffffffffffffffff811115614e3257614e31613bd1565b5b614e3c82546141fe565b614e47828285614d83565b600060209050601f831160018114614e7a5760008415614e68578287015190505b614e728582614df4565b865550614eda565b601f198416614e8886614c64565b60005b82811015614eb057848901518255600182019150602085019450602081019050614e8b565b86831015614ecd5784890151614ec9601f891682614dd6565b8355505b6001600288020188555050505b505050505050565b600081519050614ef181613739565b92915050565b600060208284031215614f0d57614f0c61355f565b5b6000614f1b84828501614ee2565b91505092915050565b6000606082019050614f39600083018661352b565b614f466020830185613825565b614f53604083018461352b565b949350505050565b7f44656665727265643a20746f6b656e4964206d7573742062652067726561746560008201527f72207468616e206f7220657175616c20746f20746f6b656e46726f6d49640000602082015250565b6000614fb7603e8361362f565b9150614fc282614f5b565b604082019050919050565b60006020820190508181036000830152614fe681614faa565b9050919050565b7f44656665727265643a20746f6b656e4964206d757374206265206c657373207460008201527f68616e206f7220657175616c20746f20746f6b656e546f496400000000000000602082015250565b600061504960398361362f565b915061505482614fed565b604082019050919050565b600060208201905081810360008301526150788161503c565b9050919050565b7f44656665727265643a20746f6b656e20646f6573206e6f742062656c6f6e672060008201527f746f20616e792073656c6c657200000000000000000000000000000000000000602082015250565b60006150db602d8361362f565b91506150e68261507f565b604082019050919050565b6000602082019050818103600083015261510a816150ce565b9050919050565b600081519050919050565b600082825260208201905092915050565b600061513882615111565b615142818561511c565b9350615152818560208601613640565b61515b8161366a565b840191505092915050565b600060808201905061517b600083018761352b565b615188602083018661352b565b6151956040830185613825565b81810360608301526151a7818461512d565b905095945050505050565b6000815190506151c181613595565b92915050565b6000602082840312156151dd576151dc61355f565b5b60006151eb848285016151b2565b91505092915050565b6000604082019050615209600083018561352b565b6152166020830184613825565b939250505056fea26469706673582212208fb7dcbf22056fd9625970b88ad1342b51cd8be2b9c2d5d141a31e736a73c72b64736f6c63430008140033",
  "linkReferences": {},
  "deployedLinkReferences": {}
}