{
  "_format": "hh-sol-artifact-1",
  "contractName": "Deferred",
  "sourceName": "contracts/Deferred.sol",
  "abi": [
    {
      "inputs": [
        {
          "internalType": "address",
          "name": "_initialOwner",
          "type": "address"
        }
      ],
      "stateMutability": "nonpayable",
      "type": "constructor"
    },
    {
      "inputs": [
        {
          "internalType": "address",
          "name": "sender",
          "type": "address"
        },
        {
          "internalType": "uint256",
          "name": "tokenId",
          "type": "uint256"
        },
        {
          "internalType": "address",
          "name": "owner",
          "type": "address"
        }
      ],
      "name": "ERC721IncorrectOwner",
      "type": "error"
    },
    {
      "inputs": [
        {
          "internalType": "address",
          "name": "operator",
          "type": "address"
        },
        {
          "internalType": "uint256",
          "name": "tokenId",
          "type": "uint256"
        }
      ],
      "name": "ERC721InsufficientApproval",
      "type": "error"
    },
    {
      "inputs": [
        {
          "internalType": "address",
          "name": "approver",
          "type": "address"
        }
      ],
      "name": "ERC721InvalidApprover",
      "type": "error"
    },
    {
      "inputs": [
        {
          "internalType": "address",
          "name": "operator",
          "type": "address"
        }
      ],
      "name": "ERC721InvalidOperator",
      "type": "error"
    },
    {
      "inputs": [
        {
          "internalType": "address",
          "name": "owner",
          "type": "address"
        }
      ],
      "name": "ERC721InvalidOwner",
      "type": "error"
    },
    {
      "inputs": [
        {
          "internalType": "address",
          "name": "receiver",
          "type": "address"
        }
      ],
      "name": "ERC721InvalidReceiver",
      "type": "error"
    },
    {
      "inputs": [
        {
          "internalType": "address",
          "name": "sender",
          "type": "address"
        }
      ],
      "name": "ERC721InvalidSender",
      "type": "error"
    },
    {
      "inputs": [
        {
          "internalType": "uint256",
          "name": "tokenId",
          "type": "uint256"
        }
      ],
      "name": "ERC721NonexistentToken",
      "type": "error"
    },
    {
      "inputs": [
        {
          "internalType": "address",
          "name": "owner",
          "type": "address"
        }
      ],
      "name": "OwnableInvalidOwner",
      "type": "error"
    },
    {
      "inputs": [
        {
          "internalType": "address",
          "name": "account",
          "type": "address"
        }
      ],
      "name": "OwnableUnauthorizedAccount",
      "type": "error"
    },
    {
      "anonymous": false,
      "inputs": [
        {
          "indexed": true,
          "internalType": "address",
          "name": "owner",
          "type": "address"
        },
        {
          "indexed": true,
          "internalType": "address",
          "name": "approved",
          "type": "address"
        },
        {
          "indexed": true,
          "internalType": "uint256",
          "name": "tokenId",
          "type": "uint256"
        }
      ],
      "name": "Approval",
      "type": "event"
    },
    {
      "anonymous": false,
      "inputs": [
        {
          "indexed": true,
          "internalType": "address",
          "name": "owner",
          "type": "address"
        },
        {
          "indexed": true,
          "internalType": "address",
          "name": "operator",
          "type": "address"
        },
        {
          "indexed": false,
          "internalType": "bool",
          "name": "approved",
          "type": "bool"
        }
      ],
      "name": "ApprovalForAll",
      "type": "event"
    },
    {
      "anonymous": false,
      "inputs": [
        {
          "indexed": true,
          "internalType": "uint256",
          "name": "sellContractId",
          "type": "uint256"
        }
      ],
      "name": "ContractClosed",
      "type": "event"
    },
    {
      "anonymous": false,
      "inputs": [
        {
          "indexed": true,
          "internalType": "uint256",
          "name": "sellContractId",
          "type": "uint256"
        }
      ],
      "name": "ContractCreated",
      "type": "event"
    },
    {
      "anonymous": false,
      "inputs": [
        {
          "indexed": true,
          "internalType": "address",
          "name": "previousOwner",
          "type": "address"
        },
        {
          "indexed": true,
          "internalType": "address",
          "name": "newOwner",
          "type": "address"
        }
      ],
      "name": "OwnershipTransferred",
      "type": "event"
    },
    {
      "anonymous": false,
      "inputs": [
        {
          "indexed": true,
          "internalType": "address",
          "name": "from",
          "type": "address"
        },
        {
          "indexed": true,
          "internalType": "address",
          "name": "to",
          "type": "address"
        },
        {
          "indexed": true,
          "internalType": "uint256",
          "name": "tokenId",
          "type": "uint256"
        }
      ],
      "name": "Transfer",
      "type": "event"
    },
    {
      "inputs": [
        {
          "internalType": "uint256",
          "name": "tokenId",
          "type": "uint256"
        }
      ],
      "name": "_inheritedOwnerOf",
      "outputs": [
        {
          "internalType": "address",
          "name": "",
          "type": "address"
        }
      ],
      "stateMutability": "view",
      "type": "function"
    },
    {
      "inputs": [
        {
          "internalType": "address",
          "name": "_deferredMinter",
          "type": "address"
        }
      ],
      "name": "adminSetDeferredMinter",
      "outputs": [],
      "stateMutability": "nonpayable",
      "type": "function"
    },
    {
      "inputs": [
        {
          "internalType": "address",
          "name": "_marketplace",
          "type": "address"
        }
      ],
      "name": "adminSetMarketplace",
      "outputs": [],
      "stateMutability": "nonpayable",
      "type": "function"
    },
    {
      "inputs": [
        {
          "internalType": "address",
          "name": "_rewardPool",
          "type": "address"
        }
      ],
      "name": "adminSetRewardPool",
      "outputs": [],
      "stateMutability": "nonpayable",
      "type": "function"
    },
    {
      "inputs": [
        {
          "internalType": "address",
          "name": "",
          "type": "address"
        },
        {
          "internalType": "uint256",
          "name": "",
          "type": "uint256"
        }
      ],
      "name": "approve",
      "outputs": [],
      "stateMutability": "pure",
      "type": "function"
    },
    {
      "inputs": [
        {
          "internalType": "address",
          "name": "owner",
          "type": "address"
        }
      ],
      "name": "balanceOf",
      "outputs": [
        {
          "internalType": "uint256",
          "name": "balance",
          "type": "uint256"
        }
      ],
      "stateMutability": "view",
      "type": "function"
    },
    {
      "inputs": [
        {
          "internalType": "uint256",
          "name": "_contractId",
          "type": "uint256"
        }
      ],
      "name": "closeContract",
      "outputs": [],
      "stateMutability": "nonpayable",
      "type": "function"
    },
    {
      "inputs": [
        {
          "internalType": "uint256",
          "name": "_contractId",
          "type": "uint256"
        }
      ],
      "name": "contractCompleted",
      "outputs": [
        {
          "internalType": "bool",
          "name": "completed",
          "type": "bool"
        }
      ],
      "stateMutability": "view",
      "type": "function"
    },
    {
      "inputs": [
        {
          "internalType": "uint256",
          "name": "_contractId",
          "type": "uint256"
        }
      ],
      "name": "contractProgress",
      "outputs": [
        {
          "internalType": "uint256",
          "name": "_progress",
          "type": "uint256"
        }
      ],
      "stateMutability": "view",
      "type": "function"
    },
    {
      "inputs": [
        {
          "components": [
            {
              "internalType": "uint256",
              "name": "contractId",
              "type": "uint256"
            },
            {
              "internalType": "string",
              "name": "metadataUri",
              "type": "string"
            },
            {
              "components": [
                {
                  "internalType": "address",
                  "name": "seller",
                  "type": "address"
                },
                {
                  "internalType": "uint8",
                  "name": "quota",
                  "type": "uint8"
                }
              ],
              "internalType": "struct Deferred.SellerRequest[]",
              "name": "sellers",
              "type": "tuple[]"
            },
            {
              "internalType": "address[]",
              "name": "buyers",
              "type": "address[]"
            },
            {
              "internalType": "uint256",
              "name": "ekokeReward",
              "type": "uint256"
            },
            {
              "internalType": "uint256",
              "name": "tokenPriceUsd",
              "type": "uint256"
            },
            {
              "internalType": "uint256",
              "name": "tokensAmount",
              "type": "uint256"
            }
          ],
          "internalType": "struct Deferred.CreateContractRequest",
          "name": "_request",
          "type": "tuple"
        }
      ],
      "name": "createContract",
      "outputs": [],
      "stateMutability": "nonpayable",
      "type": "function"
    },
    {
      "inputs": [],
      "name": "deferredMinter",
      "outputs": [
        {
          "internalType": "address",
          "name": "",
          "type": "address"
        }
      ],
      "stateMutability": "view",
      "type": "function"
    },
    {
      "inputs": [
        {
          "internalType": "uint256",
          "name": "tokenId",
          "type": "uint256"
        }
      ],
      "name": "getApproved",
      "outputs": [
        {
          "internalType": "address",
          "name": "",
          "type": "address"
        }
      ],
      "stateMutability": "view",
      "type": "function"
    },
    {
      "inputs": [
        {
          "internalType": "uint256",
          "name": "_contractId",
          "type": "uint256"
        }
      ],
      "name": "getContract",
      "outputs": [
        {
          "components": [
            {
              "internalType": "string",
              "name": "metadataUri",
              "type": "string"
            },
            {
              "components": [
                {
                  "internalType": "address",
                  "name": "seller",
                  "type": "address"
                },
                {
                  "internalType": "uint256",
                  "name": "tokenFromId",
                  "type": "uint256"
                },
                {
                  "internalType": "uint256",
                  "name": "tokenToId",
                  "type": "uint256"
                }
              ],
              "internalType": "struct Deferred.Seller[]",
              "name": "sellers",
              "type": "tuple[]"
            },
            {
              "internalType": "address[]",
              "name": "buyers",
              "type": "address[]"
            },
            {
              "internalType": "uint256",
              "name": "ekokeReward",
              "type": "uint256"
            },
            {
              "internalType": "uint256",
              "name": "tokenPriceUsd",
              "type": "uint256"
            },
            {
              "internalType": "uint256",
              "name": "tokenFromId",
              "type": "uint256"
            },
            {
              "internalType": "uint256",
              "name": "tokenToId",
              "type": "uint256"
            },
            {
              "internalType": "bool",
              "name": "closed",
              "type": "bool"
            },
            {
              "internalType": "bool",
              "name": "created",
              "type": "bool"
            }
          ],
          "internalType": "struct Deferred.SellContract",
          "name": "_sellContract",
          "type": "tuple"
        }
      ],
      "stateMutability": "view",
      "type": "function"
    },
    {
      "inputs": [
        {
          "internalType": "address",
          "name": "owner",
          "type": "address"
        },
        {
          "internalType": "address",
          "name": "operator",
          "type": "address"
        }
      ],
      "name": "isApprovedForAll",
      "outputs": [
        {
          "internalType": "bool",
          "name": "",
          "type": "bool"
        }
      ],
      "stateMutability": "view",
      "type": "function"
    },
    {
      "inputs": [],
      "name": "marketplace",
      "outputs": [
        {
          "internalType": "address",
          "name": "",
          "type": "address"
        }
      ],
      "stateMutability": "view",
      "type": "function"
    },
    {
      "inputs": [],
      "name": "name",
      "outputs": [
        {
          "internalType": "string",
          "name": "",
          "type": "string"
        }
      ],
      "stateMutability": "view",
      "type": "function"
    },
    {
      "inputs": [
        {
          "internalType": "uint256",
          "name": "_contractId",
          "type": "uint256"
        }
      ],
      "name": "nextTokenIdToBuy",
      "outputs": [
        {
          "internalType": "uint256",
          "name": "_nextTokenId",
          "type": "uint256"
        }
      ],
      "stateMutability": "view",
      "type": "function"
    },
    {
      "inputs": [
        {
          "internalType": "uint256",
          "name": "_contractId",
          "type": "uint256"
        },
        {
          "internalType": "address",
          "name": "_caller",
          "type": "address"
        }
      ],
      "name": "nextTokenIdToBuyFor",
      "outputs": [
        {
          "internalType": "uint256",
          "name": "",
          "type": "uint256"
        }
      ],
      "stateMutability": "view",
      "type": "function"
    },
    {
      "inputs": [],
      "name": "owner",
      "outputs": [
        {
          "internalType": "address",
          "name": "",
          "type": "address"
        }
      ],
      "stateMutability": "view",
      "type": "function"
    },
    {
      "inputs": [
        {
          "internalType": "uint256",
          "name": "tokenId",
          "type": "uint256"
        }
      ],
      "name": "ownerOf",
      "outputs": [
        {
          "internalType": "address",
          "name": "owner",
          "type": "address"
        }
      ],
      "stateMutability": "view",
      "type": "function"
    },
    {
      "inputs": [],
      "name": "renounceOwnership",
      "outputs": [],
      "stateMutability": "nonpayable",
      "type": "function"
    },
    {
      "inputs": [],
      "name": "rewardPool",
      "outputs": [
        {
          "internalType": "address",
          "name": "",
          "type": "address"
        }
      ],
      "stateMutability": "view",
      "type": "function"
    },
    {
      "inputs": [
        {
          "internalType": "address",
          "name": "from",
          "type": "address"
        },
        {
          "internalType": "address",
          "name": "to",
          "type": "address"
        },
        {
          "internalType": "uint256",
          "name": "tokenId",
          "type": "uint256"
        }
      ],
      "name": "safeTransferFrom",
      "outputs": [],
      "stateMutability": "nonpayable",
      "type": "function"
    },
    {
      "inputs": [
        {
          "internalType": "address",
          "name": "",
          "type": "address"
        },
        {
          "internalType": "address",
          "name": "",
          "type": "address"
        },
        {
          "internalType": "uint256",
          "name": "",
          "type": "uint256"
        },
        {
          "internalType": "bytes",
          "name": "",
          "type": "bytes"
        }
      ],
      "name": "safeTransferFrom",
      "outputs": [],
      "stateMutability": "pure",
      "type": "function"
    },
    {
      "inputs": [
        {
          "internalType": "address",
          "name": "",
          "type": "address"
        },
        {
          "internalType": "bool",
          "name": "",
          "type": "bool"
        }
      ],
      "name": "setApprovalForAll",
      "outputs": [],
      "stateMutability": "pure",
      "type": "function"
    },
    {
      "inputs": [
        {
          "internalType": "bytes4",
          "name": "interfaceId",
          "type": "bytes4"
        }
      ],
      "name": "supportsInterface",
      "outputs": [
        {
          "internalType": "bool",
          "name": "",
          "type": "bool"
        }
      ],
      "stateMutability": "view",
      "type": "function"
    },
    {
      "inputs": [],
      "name": "symbol",
      "outputs": [
        {
          "internalType": "string",
          "name": "",
          "type": "string"
        }
      ],
      "stateMutability": "view",
      "type": "function"
    },
    {
      "inputs": [
        {
          "internalType": "uint256",
          "name": "tokenId",
          "type": "uint256"
        }
      ],
      "name": "tokenContract",
      "outputs": [
        {
          "components": [
            {
              "internalType": "string",
              "name": "metadataUri",
              "type": "string"
            },
            {
              "components": [
                {
                  "internalType": "address",
                  "name": "seller",
                  "type": "address"
                },
                {
                  "internalType": "uint256",
                  "name": "tokenFromId",
                  "type": "uint256"
                },
                {
                  "internalType": "uint256",
                  "name": "tokenToId",
                  "type": "uint256"
                }
              ],
              "internalType": "struct Deferred.Seller[]",
              "name": "sellers",
              "type": "tuple[]"
            },
            {
              "internalType": "address[]",
              "name": "buyers",
              "type": "address[]"
            },
            {
              "internalType": "uint256",
              "name": "ekokeReward",
              "type": "uint256"
            },
            {
              "internalType": "uint256",
              "name": "tokenPriceUsd",
              "type": "uint256"
            },
            {
              "internalType": "uint256",
              "name": "tokenFromId",
              "type": "uint256"
            },
            {
              "internalType": "uint256",
              "name": "tokenToId",
              "type": "uint256"
            },
            {
              "internalType": "bool",
              "name": "closed",
              "type": "bool"
            },
            {
              "internalType": "bool",
              "name": "created",
              "type": "bool"
            }
          ],
          "internalType": "struct Deferred.SellContract",
          "name": "",
          "type": "tuple"
        }
      ],
      "stateMutability": "view",
      "type": "function"
    },
    {
      "inputs": [
        {
          "internalType": "uint256",
          "name": "tokenId",
          "type": "uint256"
        }
      ],
      "name": "tokenPriceUsd",
      "outputs": [
        {
          "internalType": "uint256",
          "name": "",
          "type": "uint256"
        }
      ],
      "stateMutability": "view",
      "type": "function"
    },
    {
      "inputs": [
        {
          "internalType": "uint256",
          "name": "tokenId",
          "type": "uint256"
        }
      ],
      "name": "tokenURI",
      "outputs": [
        {
          "internalType": "string",
          "name": "",
          "type": "string"
        }
      ],
      "stateMutability": "view",
      "type": "function"
    },
    {
      "inputs": [
        {
          "internalType": "address",
          "name": "",
          "type": "address"
        },
        {
          "internalType": "address",
          "name": "",
          "type": "address"
        },
        {
          "internalType": "uint256",
          "name": "",
          "type": "uint256"
        }
      ],
      "name": "transferFrom",
      "outputs": [],
      "stateMutability": "pure",
      "type": "function"
    },
    {
      "inputs": [
        {
          "internalType": "address",
          "name": "newOwner",
          "type": "address"
        }
      ],
      "name": "transferOwnership",
      "outputs": [],
      "stateMutability": "nonpayable",
      "type": "function"
    },
    {
      "inputs": [
        {
          "internalType": "uint256",
          "name": "_contractId",
          "type": "uint256"
        },
        {
          "internalType": "address",
          "name": "from",
          "type": "address"
        },
        {
          "internalType": "address",
          "name": "to",
          "type": "address"
        }
      ],
      "name": "transferToken",
      "outputs": [
        {
          "internalType": "uint256",
          "name": "_tokenId",
          "type": "uint256"
        }
      ],
      "stateMutability": "nonpayable",
      "type": "function"
    }
  ],
  "bytecode": "0x60806040526000600d55600e80546001600160a01b0319908116909155600f80548216905560108054909116905534801561003957600080fd5b50604051613bdd380380613bdd8339810160408190526100589161014a565b8060405180604001604052806008815260200167111959995c9c995960c21b81525060405180604001604052806008815260200167111151915494915160c21b81525081600090816100aa9190610219565b5060016100b78282610219565b5050506001600160a01b0381166100e857604051631e4fbdf760e01b81526000600482015260240160405180910390fd5b6100f1816100f8565b50506102d7565b600680546001600160a01b038381166001600160a01b0319831681179093556040519116919082907f8be0079c531659141344cd1fd0a4f28419497f9722a3daafe3b4186f6b6457e090600090a35050565b60006020828403121561015c57600080fd5b81516001600160a01b038116811461017357600080fd5b9392505050565b634e487b7160e01b600052604160045260246000fd5b600181811c908216806101a457607f821691505b6020821081036101c457634e487b7160e01b600052602260045260246000fd5b50919050565b601f82111561021457806000526020600020601f840160051c810160208510156101f15750805b601f840160051c820191505b8181101561021157600081556001016101fd565b50505b505050565b81516001600160401b038111156102325761023261017a565b610246816102408454610190565b846101ca565b6020601f82116001811461027a57600083156102625750848201515b600019600385901b1c1916600184901b178455610211565b600084815260208120601f198516915b828110156102aa578785015182556020948501946001909201910161028a565b50848210156102c85786840151600019600387901b60f8161c191681555b50505050600190811b01905550565b6138f7806102e66000396000f3fe608060405234801561001057600080fd5b50600436106101fb5760003560e01c806370a082311161011a578063a30fb020116100ad578063c87b56dd1161007c578063c87b56dd14610455578063d0ce736014610468578063d471cf5d1461047b578063e985e9c51461048e578063f2fde38b146104a157600080fd5b8063a30fb02014610409578063abc8c7af1461041c578063b7e62e5d1461042f578063b88d4fde1461044257600080fd5b80638da5cb5b116100e95780638da5cb5b146103ca57806395d89b41146103db5780639be78f05146103e3578063a22cb465146103f657600080fd5b806370a0823114610389578063715018a61461039c57806375229c55146103a457806382558c2a146103b757600080fd5b806342842e0e116101925780635a6aef60116101615780635a6aef60146103235780636352211e1461034357806366666aa9146103565780636ebc8c861461036957600080fd5b806342842e0e146102c95780634a2a1fb0146102dc578063559de7b8146102fd578063592691221461031057600080fd5b8063095ea7b3116101ce578063095ea7b31461027b5780631892dd9f1461029057806323b872dd146102a35780633a043242146102b657600080fd5b8063017d6f991461020057806301ffc9a71461023057806306fdde0314610253578063081812fc14610268575b600080fd5b601054610213906001600160a01b031681565b6040516001600160a01b0390911681526020015b60405180910390f35b61024361023e366004612e76565b6104b4565b6040519015158152602001610227565b61025b610506565b6040516102279190612ed9565b610213610276366004612eec565b610598565b61028e610289366004612f1a565b6105c2565b005b61028e61029e366004612f46565b61060f565b61028e6102b1366004612f63565b610639565b6102136102c4366004612eec565b61068f565b61028e6102d7366004612f63565b61069a565b6102ef6102ea366004612fa4565b6106ba565b604051908152602001610227565b61024361030b366004612eec565b610b83565b6102ef61031e366004612eec565b610dbb565b6102ef610331366004612eec565b6000908152600b602052604090205490565b610213610351366004612eec565b610dd0565b600f54610213906001600160a01b031681565b61037c610377366004612eec565b610dfb565b604051610227919061307f565b6102ef610397366004612f46565b610fff565b61028e61102b565b6102ef6103b2366004612eec565b61103f565b61028e6103c5366004612f46565b61104b565b6006546001600160a01b0316610213565b61025b611075565b61028e6103f1366004612f46565b611084565b61028e61040436600461312f565b6110ae565b61037c610417366004612eec565b611109565b600e54610213906001600160a01b031681565b6102ef61043d36600461316d565b61134c565b61028e610450366004613281565b611632565b61025b610463366004612eec565b61168c565b61028e610476366004612eec565b61169e565b61028e61048936600461345b565b6117e4565b61024361049c36600461354e565b611f9f565b61028e6104af366004612f46565b611fcb565b60006001600160e01b031982166380ac58cd60e01b14806104e557506001600160e01b03198216635b5e139f60e01b145b8061050057506301ffc9a760e01b6001600160e01b03198316145b92915050565b6060600080546105159061357c565b80601f01602080910402602001604051908101604052809291908181526020018280546105419061357c565b801561058e5780601f106105635761010080835404028352916020019161058e565b820191906000526020600020905b81548152906001019060200180831161057157829003601f168201915b5050505050905090565b60006105a382612009565b156105b9575050600e546001600160a01b031690565b61050082612079565b60405162461bcd60e51b815260206004820181905260248201527f44656665727265643a20617070726f7665206973206e6f7420616c6c6f77656460448201526064015b60405180910390fd5b6106176120a2565b600e80546001600160a01b0319166001600160a01b0392909216919091179055565b60405162461bcd60e51b815260206004820152602560248201527f44656665727265643a207472616e7366657246726f6d206973206e6f7420616c6044820152641b1bddd95960da1b6064820152608401610606565b6000610500826120cf565b6106b583838360405180602001604052806000815250611632565b505050565b600e546000906001600160a01b0316331480156106e15750600e546001600160a01b031615155b61073d5760405162461bcd60e51b815260206004820152602760248201527f44656665727265643a2063616c6c6572206973206e6f7420746865206d61726b6044820152666574706c61636560c81b6064820152608401610606565b600084815260076020526040808220815161012081019092528054829082906107659061357c565b80601f01602080910402602001604051908101604052809291908181526020018280546107919061357c565b80156107de5780601f106107b3576101008083540402835291602001916107de565b820191906000526020600020905b8154815290600101906020018083116107c157829003601f168201915b5050505050815260200160018201805480602002602001604051908101604052809291908181526020016000905b82821015610861576000848152602090819020604080516060810182526003860290920180546001600160a01b031683526001808201548486015260029091015491830191909152908352909201910161080c565b505050508152602001600282018054806020026020016040519081016040528092919081815260200182805480156108c257602002820191906000526020600020905b81546001600160a01b031681526001909101906020018083116108a4575b50505091835250506003820154602082015260048201546040820152600582015460608201526006820154608082015260079091015460ff808216151560a084015261010090910416151560c09091015290506000610921868561134c565b9050846001600160a01b031661093682610dd0565b6001600160a01b0316146109a15760405162461bcd60e51b815260206004820152602c60248201527f44656665727265643a2066726f6d206973206e6f7420746865206f776e65722060448201526b37b3103a3432903a37b5b2b760a11b6064820152608401610606565b6000805b8360400151518110156109f957836040015181815181106109c8576109c86135b6565b60200260200101516001600160a01b0316866001600160a01b0316036109f157600191506109f9565b6001016109a5565b508015610a89576000878152600960205260408120805460019290610a1f9084906135e2565b90915550506000878152600b60205260408120805460019290610a439084906135e2565b9091555050600087815260096020908152604080832054600a9092529091205411610a8457600087815260096020908152604080832054600a909252909120555b610aae565b6000878152600a60205260408120805460019290610aa89084906135e2565b90915550505b610ab782612009565b15610b3357610ac682866120da565b6001600160a01b03861660009081526008602052604090205415610b13576001600160a01b0386166000908152600860205260408120805460019290610b0d9084906135f5565b90915550505b600e54610b29906001600160a01b0316836120e8565b509150610b7c9050565b600e546001600160a01b0316610b4883612079565b6001600160a01b031614610b6c57600e54610b6c906001600160a01b0316836120e8565b610b778686846120f3565b509150505b9392505050565b6000818152600760205260408082208151610120810190925280548392919082908290610baf9061357c565b80601f0160208091040260200160405190810160405280929190818152602001828054610bdb9061357c565b8015610c285780601f10610bfd57610100808354040283529160200191610c28565b820191906000526020600020905b815481529060010190602001808311610c0b57829003601f168201915b5050505050815260200160018201805480602002602001604051908101604052809291908181526020016000905b82821015610cab576000848152602090819020604080516060810182526003860290920180546001600160a01b0316835260018082015484860152600290910154918301919091529083529092019101610c56565b50505050815260200160028201805480602002602001604051908101604052809291908181526020018280548015610d0c57602002820191906000526020600020905b81546001600160a01b03168152600190910190602001808311610cee575b50505091835250506003820154602082015260048201546040820152600582015460608201526006820154608082015260079091015460ff808216151560a08401526101009182900416151560c090920191909152810151909150610d835760405162461bcd60e51b815260040161060690613608565b8060a001518160c00151610d9791906135f5565b610da29060016135e2565b6000938452600b60205260409093205490921492915050565b6000610dc682611109565b6080015192915050565b6000610ddb82612009565b15610df257610500610dec8361217e565b836123e0565b610500826120cf565b610e03612d48565b60008281526007602052604080822081516101208101909252805482908290610e2b9061357c565b80601f0160208091040260200160405190810160405280929190818152602001828054610e579061357c565b8015610ea45780601f10610e7957610100808354040283529160200191610ea4565b820191906000526020600020905b815481529060010190602001808311610e8757829003601f168201915b5050505050815260200160018201805480602002602001604051908101604052809291908181526020016000905b82821015610f27576000848152602090819020604080516060810182526003860290920180546001600160a01b0316835260018082015484860152600290910154918301919091529083529092019101610ed2565b50505050815260200160028201805480602002602001604051908101604052809291908181526020018280548015610f8857602002820191906000526020600020905b81546001600160a01b03168152600190910190602001808311610f6a575b50505091835250506003820154602082015260048201546040820152600582015460608201526006820154608082015260079091015460ff808216151560a08401526101009182900416151560c0909201919091528101519091506105005760405162461bcd60e51b815260040161060690613608565b6001600160a01b038116600090815260086020526040812054611021836127e0565b61050091906135e2565b6110336120a2565b61103d6000612828565b565b6000610500823361134c565b6110536120a2565b600f80546001600160a01b0319166001600160a01b0392909216919091179055565b6060600180546105159061357c565b61108c6120a2565b601080546001600160a01b0319166001600160a01b0392909216919091179055565b60405162461bcd60e51b815260206004820152602a60248201527f44656665727265643a20736574417070726f76616c466f72416c6c206973206e6044820152691bdd08185b1b1bddd95960b21b6064820152608401610606565b611111612d48565b600061111c8361217e565b90506000811161116e5760405162461bcd60e51b815260206004820152601e60248201527f44656665727265643a20746f6b656e20646f6573206e6f7420657869737400006044820152606401610606565b60008181526007602052604090819020815161012081019092528054829082906111979061357c565b80601f01602080910402602001604051908101604052809291908181526020018280546111c39061357c565b80156112105780601f106111e557610100808354040283529160200191611210565b820191906000526020600020905b8154815290600101906020018083116111f357829003601f168201915b5050505050815260200160018201805480602002602001604051908101604052809291908181526020016000905b82821015611293576000848152602090819020604080516060810182526003860290920180546001600160a01b031683526001808201548486015260029091015491830191909152908352909201910161123e565b505050508152602001600282018054806020026020016040519081016040528092919081815260200182805480156112f457602002820191906000526020600020905b81546001600160a01b031681526001909101906020018083116112d6575b50505091835250506003820154602082015260048201546040820152600582015460608201526006820154608082015260079091015460ff808216151560a084015261010090910416151560c0909101529392505050565b60008281526007602052604080822081516101208101909252805483929190829082906113789061357c565b80601f01602080910402602001604051908101604052809291908181526020018280546113a49061357c565b80156113f15780601f106113c6576101008083540402835291602001916113f1565b820191906000526020600020905b8154815290600101906020018083116113d457829003601f168201915b5050505050815260200160018201805480602002602001604051908101604052809291908181526020016000905b82821015611474576000848152602090819020604080516060810182526003860290920180546001600160a01b031683526001808201548486015260029091015491830191909152908352909201910161141f565b505050508152602001600282018054806020026020016040519081016040528092919081815260200182805480156114d557602002820191906000526020600020905b81546001600160a01b031681526001909101906020018083116114b7575b50505091835250506003820154602082015260048201546040820152600582015460608201526006820154608082015260079091015460ff808216151560a08401526101009182900416151560c09092019190915281015190915061154c5760405162461bcd60e51b815260040161060690613608565b60008060005b8360400151518110156115a65783604001518181518110611575576115756135b6565b60200260200101516001600160a01b0316866001600160a01b03160361159e57600191506115a6565b600101611552565b5080156115c35760008681526009602052604090205491506115d5565b6000868152600a602052604090205491505b8260c001518211156116295760405162461bcd60e51b815260206004820152601f60248201527f44656665727265643a206e6f206d6f726520746f6b656e7320746f20627579006044820152606401610606565b50949350505050565b60405162461bcd60e51b815260206004820152602960248201527f44656665727265643a20736166655472616e7366657246726f6d206973206e6f6044820152681d08185b1b1bddd95960ba1b6064820152608401610606565b606061169782611109565b5192915050565b6010546001600160a01b0316331480156116c257506010546001600160a01b031615155b6116de5760405162461bcd60e51b815260040161060690613649565b600081116116fe5760405162461bcd60e51b81526004016106069061368b565b60008181526007602081905260409091200154610100900460ff166117355760405162461bcd60e51b815260040161060690613608565b60008181526007602081905260409091209081015460ff16156117a65760405162461bcd60e51b8152602060048201526024808201527f44656665727265643a20636f6e747261637420697320616c726561647920636c6044820152631bdcd95960e21b6064820152608401610606565b60078101805460ff1916600117905560405182907fd79ef0d7f68df3d827e7c4b6a13ec4570e9a30515c4717bbaa647da58ca68be190600090a25050565b6010546001600160a01b03163314801561180857506010546001600160a01b031615155b6118245760405162461bcd60e51b815260040161060690613649565b8051806118435760405162461bcd60e51b81526004016106069061368b565b60008181526007602081905260409091200154610100900460ff16156118b95760405162461bcd60e51b815260206004820152602560248201527f44656665727265643a20636f6e747261637420697320616c726561647920637260448201526419585d195960da1b6064820152608401610606565b600f546001600160a01b03166119115760405162461bcd60e51b815260206004820181905260248201527f44656665727265643a2072657761726420706f6f6c206973206e6f74207365746044820152606401610606565b60008260c001511161197b5760405162461bcd60e51b815260206004820152602d60248201527f44656665727265643a20746f6b656e73416d6f756e74206d757374206265206760448201526c0726561746572207468616e203609c1b6064820152608401610606565b6000805b836040015151811015611a465760006001600160a01b0316846040015182815181106119ad576119ad6135b6565b6020026020010151600001516001600160a01b031603611a0f5760405162461bcd60e51b815260206004820152601c60248201527f44656665727265643a2073656c6c6572206d75737420626520736574000000006044820152606401610606565b83604001518181518110611a2557611a256135b6565b60200260200101516020015182611a3c91906136d6565b915060010161197f565b508060ff16606414611aa45760405162461bcd60e51b815260206004820152602160248201527f44656665727265643a20746f74616c2071756f7461206d7573742062652031306044820152600360fc1b6064820152608401610606565b60008360a0015111611b0f5760405162461bcd60e51b815260206004820152602e60248201527f44656665727265643a20746f6b656e5072696365557364206d7573742062652060448201526d067726561746572207468616e20360941b6064820152608401610606565b60648360c00151611b209190613705565b15611b855760405162461bcd60e51b815260206004820152602f60248201527f44656665727265643a20746f6b656e73416d6f756e74206d757374206265206460448201526e06976697369626c652062792031303608c1b6064820152608401610606565b608083015115611bfe57600f54608084015160c08501516040516376b88f1160e11b8152600481019290925260248201526001600160a01b039091169063ed711e2290604401600060405180830381600087803b158015611be557600080fd5b505af1158015611bf9573d6000803e3d6000fd5b505050505b600d5460c0840151600090600190611c1690846135e2565b611c2091906135f5565b9050600085604001515167ffffffffffffffff811115611c4257611c42613192565b604051908082528060200260200182016040528015611ca057816020015b611c8d604051806060016040528060006001600160a01b0316815260200160008152602001600081525090565b815260200190600190039081611c605790505b5090506000839050600060648860c00151611cbb9190613719565b905060005b886040015151811015611df557600089604001518281518110611ce557611ce56135b6565b602002602001015190506000816020015160ff1684611d04919061372d565b905060006001611d1483886135e2565b611d1e91906135f5565b905060405180606001604052808d604001518681518110611d4157611d416135b6565b6020026020010151600001516001600160a01b0316815260200187815260200182815250878581518110611d7757611d776135b6565b6020908102919091010152611d8d8160016135e2565b95508160086000898781518110611da657611da66135b6565b6020026020010151600001516001600160a01b03166001600160a01b031681526020019081526020016000206000828254611de191906135e2565b909155505060019093019250611cc0915050565b506000878152600760209081526040909120908901518190611e17908261378b565b5060608901518051611e33916002840191602090910190612d98565b506080890151600382015560a08901516004820155600581018690556006810185905560078101805461ffff1916610100179055611e75600182016000612dfd565b60005b8451811015611ef25781600101858281518110611e9757611e976135b6565b602090810291909101810151825460018082018555600094855293839020825160039092020180546001600160a01b0319166001600160a01b0390921691909117815591810151828401556040015160029091015501611e78565b506000888152600960209081526040808320899055600a8252808320899055600b909152812081905560c08a0151600d805491929091611f339084906135e2565b9091555050600c805460018101825560009182527fdf6966c971051c3d54ec59162606531493a51404a002842f56009d7e5cf4a8c70189905560405189917f9e3c7e008a15a3c864482ee94fd7315bcc9d0c04f3a9041ab922f816acffbe0691a2505050505050505050565b600e546000906001600160a01b0383811691161480610b7c5750506001600160a01b0390811691161490565b611fd36120a2565b6001600160a01b038116611ffd57604051631e4fbdf760e01b815260006004820152602401610606565b61200681612828565b50565b604051631d02192160e11b8152600481018290526000903090633a04324290602401602060405180830381865afa925050508015612064575060408051601f3d908101601f191682019092526120619181019061384a565b60015b61207057506001919050565b50600092915050565b60006120848261287a565b506000828152600460205260409020546001600160a01b0316610500565b6006546001600160a01b0316331461103d5760405163118cdaa760e01b8152336004820152602401610606565b60006105008261287a565b6120e481836128b3565b5050565b6120e48282336128cd565b6001600160a01b03821661211d57604051633250574960e11b815260006004820152602401610606565b600061212a8383336128da565b9050836001600160a01b0316816001600160a01b031614612178576040516364283d7b60e01b81526001600160a01b0380861660048301526024820184905282166044820152606401610606565b50505050565b6000805b600c54811015612070576000600c82815481106121a1576121a16135b6565b90600052602060002001549050600060076000838152602001908152602001600020604051806101200160405290816000820180546121df9061357c565b80601f016020809104026020016040519081016040528092919081815260200182805461220b9061357c565b80156122585780601f1061222d57610100808354040283529160200191612258565b820191906000526020600020905b81548152906001019060200180831161223b57829003601f168201915b5050505050815260200160018201805480602002602001604051908101604052809291908181526020016000905b828210156122db576000848152602090819020604080516060810182526003860290920180546001600160a01b0316835260018082015484860152600290910154918301919091529083529092019101612286565b5050505081526020016002820180548060200260200160405190810160405280929190818152602001828054801561233c57602002820191906000526020600020905b81546001600160a01b0316815260019091019060200180831161231e575b50505091835250506003820154602082015260048201546040820152600582015460608201526006820154608082015260079091015460ff808216151560a08085019190915261010090920416151560c09092019190915281015190915085108015906123ad57508060c001518511155b80156123bb57508060e00151155b80156123c957508061010001515b156123d657509392505050565b5050600101612182565b60008083116124015760405162461bcd60e51b81526004016106069061368b565b60008381526007602081905260409091200154610100900460ff166124385760405162461bcd60e51b815260040161060690613608565b6000838152600760205260409020600501548210156124bf5760405162461bcd60e51b815260206004820152603e60248201527f44656665727265643a20746f6b656e4964206d7573742062652067726561746560448201527f72207468616e206f7220657175616c20746f20746f6b656e46726f6d496400006064820152608401610606565b6000838152600760205260409020600601548211156125465760405162461bcd60e51b815260206004820152603960248201527f44656665727265643a20746f6b656e4964206d757374206265206c657373207460448201527f68616e206f7220657175616c20746f20746f6b656e546f4964000000000000006064820152608401610606565b6000838152600760205260408082208151610120810190925280548290829061256e9061357c565b80601f016020809104026020016040519081016040528092919081815260200182805461259a9061357c565b80156125e75780601f106125bc576101008083540402835291602001916125e7565b820191906000526020600020905b8154815290600101906020018083116125ca57829003601f168201915b5050505050815260200160018201805480602002602001604051908101604052809291908181526020016000905b8282101561266a576000848152602090819020604080516060810182526003860290920180546001600160a01b0316835260018082015484860152600290910154918301919091529083529092019101612615565b505050508152602001600282018054806020026020016040519081016040528092919081815260200182805480156126cb57602002820191906000526020600020905b81546001600160a01b031681526001909101906020018083116126ad575b50505091835250506003820154602082015260048201546040820152600582015460608201526006820154608082015260079091015460ff808216151560a084015261010090910416151560c090910152905060005b81602001515181101561278157600082602001518281518110612746576127466135b6565b6020026020010151905084816020015111158015612768575080604001518511155b1561277857519250610500915050565b50600101612721565b5060405162461bcd60e51b815260206004820152602d60248201527f44656665727265643a20746f6b656e20646f6573206e6f742062656c6f6e672060448201526c3a379030b73c9039b2b63632b960991b6064820152608401610606565b60006001600160a01b03821661280c576040516322718ad960e21b815260006004820152602401610606565b506001600160a01b031660009081526003602052604090205490565b600680546001600160a01b038381166001600160a01b0319831681179093556040519116919082907f8be0079c531659141344cd1fd0a4f28419497f9722a3daafe3b4186f6b6457e090600090a35050565b6000818152600260205260408120546001600160a01b03168061050057604051637e27328960e01b815260048101849052602401610606565b6120e48282604051806020016040528060008152506129d3565b6106b583838360016129ea565b6000828152600260205260408120546001600160a01b039081169083161561290757612907818486612af0565b6001600160a01b03811615612945576129246000856000806129ea565b6001600160a01b038116600090815260036020526040902080546000190190555b6001600160a01b03851615612974576001600160a01b0385166000908152600360205260409020805460010190555b60008481526002602052604080822080546001600160a01b0319166001600160a01b0389811691821790925591518793918516917fddf252ad1be2c89b69c2b068fc378daa952ba7f163c4a11628f55a4df523b3ef91a4949350505050565b6129dd8383612b54565b6106b56000848484612bb9565b80806129fe57506001600160a01b03821615155b15612ac0576000612a0e8461287a565b90506001600160a01b03831615801590612a3a5750826001600160a01b0316816001600160a01b031614155b8015612a4d5750612a4b8184611f9f565b155b15612a765760405163a9fbf51f60e01b81526001600160a01b0384166004820152602401610606565b8115612abe5783856001600160a01b0316826001600160a01b03167f8c5be1e5ebec7d5bd14f71427d1e84f3dd0314c0f7b2291e5b200ac8c7c3b92560405160405180910390a45b505b5050600090815260046020526040902080546001600160a01b0319166001600160a01b0392909216919091179055565b612afb838383612ce2565b6106b5576001600160a01b038316612b2957604051637e27328960e01b815260048101829052602401610606565b60405163177e802f60e01b81526001600160a01b038316600482015260248101829052604401610606565b6001600160a01b038216612b7e57604051633250574960e11b815260006004820152602401610606565b6000612b8c838360006128da565b90506001600160a01b038116156106b5576040516339e3563760e11b815260006004820152602401610606565b6001600160a01b0383163b1561217857604051630a85bd0160e11b81526001600160a01b0384169063150b7a0290612bfb903390889087908790600401613867565b6020604051808303816000875af1925050508015612c36575060408051601f3d908101601f19168201909252612c33918101906138a4565b60015b612c9f573d808015612c64576040519150601f19603f3d011682016040523d82523d6000602084013e612c69565b606091505b508051600003612c9757604051633250574960e11b81526001600160a01b0385166004820152602401610606565b805181602001fd5b6001600160e01b03198116630a85bd0160e11b14612cdb57604051633250574960e11b81526001600160a01b0385166004820152602401610606565b5050505050565b60006001600160a01b03831615801590612d405750826001600160a01b0316846001600160a01b03161480612d1c5750612d1c8484611f9f565b80612d4057506000828152600460205260409020546001600160a01b038481169116145b949350505050565b604051806101200160405280606081526020016060815260200160608152602001600081526020016000815260200160008152602001600081526020016000151581526020016000151581525090565b828054828255906000526020600020908101928215612ded579160200282015b82811115612ded57825182546001600160a01b0319166001600160a01b03909116178255602090920191600190910190612db8565b50612df9929150612e1e565b5090565b50805460008255600302906000526020600020908101906120069190612e33565b5b80821115612df95760008155600101612e1f565b5b80821115612df95780546001600160a01b03191681556000600182018190556002820155600301612e34565b6001600160e01b03198116811461200657600080fd5b600060208284031215612e8857600080fd5b8135610b7c81612e60565b6000815180845260005b81811015612eb957602081850181015186830182015201612e9d565b506000602082860101526020601f19601f83011685010191505092915050565b602081526000610b7c6020830184612e93565b600060208284031215612efe57600080fd5b5035919050565b6001600160a01b038116811461200657600080fd5b60008060408385031215612f2d57600080fd5b8235612f3881612f05565b946020939093013593505050565b600060208284031215612f5857600080fd5b8135610b7c81612f05565b600080600060608486031215612f7857600080fd5b8335612f8381612f05565b92506020840135612f9381612f05565b929592945050506040919091013590565b600080600060608486031215612fb957600080fd5b833592506020840135612fcb81612f05565b91506040840135612fdb81612f05565b809150509250925092565b600081518084526020840193506020830160005b8281101561303a57815180516001600160a01b03168752602080820151818901526040918201519188019190915260609096019590910190600101612ffa565b5093949350505050565b600081518084526020840193506020830160005b8281101561303a5781516001600160a01b0316865260209586019590910190600101613058565b6020815260008251610120602084015261309d610140840182612e93565b90506020840151601f198483030160408501526130ba8282612fe6565b9150506040840151601f198483030160608501526130d88282613044565b91505060608401516080840152608084015160a084015260a084015160c084015260c084015160e084015260e084015161311761010085018215159052565b50610100840151801515610120850152509392505050565b6000806040838503121561314257600080fd5b823561314d81612f05565b91506020830135801515811461316257600080fd5b809150509250929050565b6000806040838503121561318057600080fd5b82359150602083013561316281612f05565b634e487b7160e01b600052604160045260246000fd5b6040805190810167ffffffffffffffff811182821017156131cb576131cb613192565b60405290565b60405160e0810167ffffffffffffffff811182821017156131cb576131cb613192565b604051601f8201601f1916810167ffffffffffffffff8111828210171561321d5761321d613192565b604052919050565b60008067ffffffffffffffff84111561324057613240613192565b50601f8301601f1916602001613255816131f4565b91505082815283838301111561326a57600080fd5b828260208301376000602084830101529392505050565b6000806000806080858703121561329757600080fd5b84356132a281612f05565b935060208501356132b281612f05565b925060408501359150606085013567ffffffffffffffff8111156132d557600080fd5b8501601f810187136132e657600080fd5b6132f587823560208401613225565b91505092959194509250565b600082601f83011261331257600080fd5b610b7c83833560208501613225565b600067ffffffffffffffff82111561333b5761333b613192565b5060051b60200190565b600082601f83011261335657600080fd5b813561336961336482613321565b6131f4565b8082825260208201915060208360061b86010192508583111561338b57600080fd5b602085015b838110156133ea57604081880312156133a857600080fd5b6133b06131a8565b81356133bb81612f05565b8152602082013560ff811681146133d157600080fd5b6020828101919091529084529290920191604001613390565b5095945050505050565b600082601f83011261340557600080fd5b813561341361336482613321565b8082825260208201915060208360051b86010192508583111561343557600080fd5b602085015b838110156133ea57803561344d81612f05565b83526020928301920161343a565b60006020828403121561346d57600080fd5b813567ffffffffffffffff81111561348457600080fd5b820160e0818503121561349657600080fd5b61349e6131d1565b81358152602082013567ffffffffffffffff8111156134bc57600080fd5b6134c886828501613301565b602083015250604082013567ffffffffffffffff8111156134e857600080fd5b6134f486828501613345565b604083015250606082013567ffffffffffffffff81111561351457600080fd5b613520868285016133f4565b6060830152506080828101359082015260a0808301359082015260c091820135918101919091529392505050565b6000806040838503121561356157600080fd5b823561356c81612f05565b9150602083013561316281612f05565b600181811c9082168061359057607f821691505b6020821081036135b057634e487b7160e01b600052602260045260246000fd5b50919050565b634e487b7160e01b600052603260045260246000fd5b634e487b7160e01b600052601160045260246000fd5b80820180821115610500576105006135cc565b81810381811115610500576105006135cc565b60208082526021908201527f44656665727265643a20636f6e747261637420646f6573206e6f7420657869736040820152601d60fa1b606082015260800190565b60208082526022908201527f44656665727265643a2063616c6c6572206973206e6f7420746865206d696e7460408201526132b960f11b606082015260800190565b6020808252602b908201527f44656665727265643a20636f6e74726163744964206d7573742062652067726560408201526a061746572207468616e20360ac1b606082015260800190565b60ff8181168382160190811115610500576105006135cc565b634e487b7160e01b600052601260045260246000fd5b600082613714576137146136ef565b500690565b600082613728576137286136ef565b500490565b8082028115828204841417610500576105006135cc565b601f8211156106b557806000526020600020601f840160051c8101602085101561376b5750805b601f840160051c820191505b81811015612cdb5760008155600101613777565b815167ffffffffffffffff8111156137a5576137a5613192565b6137b9816137b3845461357c565b84613744565b6020601f8211600181146137ed57600083156137d55750848201515b600019600385901b1c1916600184901b178455612cdb565b600084815260208120601f198516915b8281101561381d57878501518255602094850194600190920191016137fd565b508482101561383b5786840151600019600387901b60f8161c191681555b50505050600190811b01905550565b60006020828403121561385c57600080fd5b8151610b7c81612f05565b6001600160a01b038581168252841660208201526040810183905260806060820181905260009061389a90830184612e93565b9695505050505050565b6000602082840312156138b657600080fd5b8151610b7c81612e6056fea264697066735822122081d142e672a5c1bd713bf7f477cbdbaf8b7a5a31564697b13fcbb666bbbc162c64736f6c634300081c0033",
  "linkReferences": {},
  "deployedLinkReferences": {}
}