{
  "_format": "hh-sol-artifact-1",
  "contractName": "Deferred",
  "sourceName": "contracts/Deferred.sol",
  "abi": [
    {
      "inputs": [
        {
          "internalType": "address",
          "name": "_initialOwner",
          "type": "address"
        }
      ],
      "stateMutability": "nonpayable",
      "type": "constructor"
    },
    {
      "inputs": [
        {
          "internalType": "address",
          "name": "sender",
          "type": "address"
        },
        {
          "internalType": "uint256",
          "name": "tokenId",
          "type": "uint256"
        },
        {
          "internalType": "address",
          "name": "owner",
          "type": "address"
        }
      ],
      "name": "ERC721IncorrectOwner",
      "type": "error"
    },
    {
      "inputs": [
        {
          "internalType": "address",
          "name": "operator",
          "type": "address"
        },
        {
          "internalType": "uint256",
          "name": "tokenId",
          "type": "uint256"
        }
      ],
      "name": "ERC721InsufficientApproval",
      "type": "error"
    },
    {
      "inputs": [
        {
          "internalType": "address",
          "name": "approver",
          "type": "address"
        }
      ],
      "name": "ERC721InvalidApprover",
      "type": "error"
    },
    {
      "inputs": [
        {
          "internalType": "address",
          "name": "operator",
          "type": "address"
        }
      ],
      "name": "ERC721InvalidOperator",
      "type": "error"
    },
    {
      "inputs": [
        {
          "internalType": "address",
          "name": "owner",
          "type": "address"
        }
      ],
      "name": "ERC721InvalidOwner",
      "type": "error"
    },
    {
      "inputs": [
        {
          "internalType": "address",
          "name": "receiver",
          "type": "address"
        }
      ],
      "name": "ERC721InvalidReceiver",
      "type": "error"
    },
    {
      "inputs": [
        {
          "internalType": "address",
          "name": "sender",
          "type": "address"
        }
      ],
      "name": "ERC721InvalidSender",
      "type": "error"
    },
    {
      "inputs": [
        {
          "internalType": "uint256",
          "name": "tokenId",
          "type": "uint256"
        }
      ],
      "name": "ERC721NonexistentToken",
      "type": "error"
    },
    {
      "inputs": [
        {
          "internalType": "address",
          "name": "owner",
          "type": "address"
        }
      ],
      "name": "OwnableInvalidOwner",
      "type": "error"
    },
    {
      "inputs": [
        {
          "internalType": "address",
          "name": "account",
          "type": "address"
        }
      ],
      "name": "OwnableUnauthorizedAccount",
      "type": "error"
    },
    {
      "anonymous": false,
      "inputs": [
        {
          "indexed": true,
          "internalType": "address",
          "name": "owner",
          "type": "address"
        },
        {
          "indexed": true,
          "internalType": "address",
          "name": "approved",
          "type": "address"
        },
        {
          "indexed": true,
          "internalType": "uint256",
          "name": "tokenId",
          "type": "uint256"
        }
      ],
      "name": "Approval",
      "type": "event"
    },
    {
      "anonymous": false,
      "inputs": [
        {
          "indexed": true,
          "internalType": "address",
          "name": "owner",
          "type": "address"
        },
        {
          "indexed": true,
          "internalType": "address",
          "name": "operator",
          "type": "address"
        },
        {
          "indexed": false,
          "internalType": "bool",
          "name": "approved",
          "type": "bool"
        }
      ],
      "name": "ApprovalForAll",
      "type": "event"
    },
    {
      "anonymous": false,
      "inputs": [
        {
          "indexed": true,
          "internalType": "uint256",
          "name": "sellContractId",
          "type": "uint256"
        }
      ],
      "name": "ContractClosed",
      "type": "event"
    },
    {
      "anonymous": false,
      "inputs": [
        {
          "indexed": true,
          "internalType": "uint256",
          "name": "sellContractId",
          "type": "uint256"
        }
      ],
      "name": "ContractCreated",
      "type": "event"
    },
    {
      "anonymous": false,
      "inputs": [
        {
          "indexed": true,
          "internalType": "address",
          "name": "previousOwner",
          "type": "address"
        },
        {
          "indexed": true,
          "internalType": "address",
          "name": "newOwner",
          "type": "address"
        }
      ],
      "name": "OwnershipTransferred",
      "type": "event"
    },
    {
      "anonymous": false,
      "inputs": [
        {
          "indexed": true,
          "internalType": "uint256",
          "name": "sellContractId",
          "type": "uint256"
        },
        {
          "indexed": true,
          "internalType": "address",
          "name": "from",
          "type": "address"
        },
        {
          "indexed": true,
          "internalType": "address",
          "name": "to",
          "type": "address"
        },
        {
          "indexed": false,
          "internalType": "uint256",
          "name": "tokenId",
          "type": "uint256"
        }
      ],
      "name": "TokenTransferred",
      "type": "event"
    },
    {
      "anonymous": false,
      "inputs": [
        {
          "indexed": true,
          "internalType": "address",
          "name": "from",
          "type": "address"
        },
        {
          "indexed": true,
          "internalType": "address",
          "name": "to",
          "type": "address"
        },
        {
          "indexed": true,
          "internalType": "uint256",
          "name": "tokenId",
          "type": "uint256"
        }
      ],
      "name": "Transfer",
      "type": "event"
    },
    {
      "inputs": [
        {
          "internalType": "uint256",
          "name": "tokenId",
          "type": "uint256"
        }
      ],
      "name": "_inheritedOwnerOf",
      "outputs": [
        {
          "internalType": "address",
          "name": "",
          "type": "address"
        }
      ],
      "stateMutability": "view",
      "type": "function"
    },
    {
      "inputs": [
        {
          "internalType": "address",
          "name": "_deferredMinter",
          "type": "address"
        }
      ],
      "name": "adminSetDeferredMinter",
      "outputs": [],
      "stateMutability": "nonpayable",
      "type": "function"
    },
    {
      "inputs": [
        {
          "internalType": "address",
          "name": "_marketplace",
          "type": "address"
        }
      ],
      "name": "adminSetMarketplace",
      "outputs": [],
      "stateMutability": "nonpayable",
      "type": "function"
    },
    {
      "inputs": [
        {
          "internalType": "address",
          "name": "_rewardPool",
          "type": "address"
        }
      ],
      "name": "adminSetRewardPool",
      "outputs": [],
      "stateMutability": "nonpayable",
      "type": "function"
    },
    {
      "inputs": [
        {
          "internalType": "address",
          "name": "",
          "type": "address"
        },
        {
          "internalType": "uint256",
          "name": "",
          "type": "uint256"
        }
      ],
      "name": "approve",
      "outputs": [],
      "stateMutability": "pure",
      "type": "function"
    },
    {
      "inputs": [
        {
          "internalType": "address",
          "name": "owner",
          "type": "address"
        }
      ],
      "name": "balanceOf",
      "outputs": [
        {
          "internalType": "uint256",
          "name": "balance",
          "type": "uint256"
        }
      ],
      "stateMutability": "view",
      "type": "function"
    },
    {
      "inputs": [
        {
          "internalType": "uint256",
          "name": "_contractId",
          "type": "uint256"
        }
      ],
      "name": "closeContract",
      "outputs": [],
      "stateMutability": "nonpayable",
      "type": "function"
    },
    {
      "inputs": [
        {
          "internalType": "uint256",
          "name": "_contractId",
          "type": "uint256"
        }
      ],
      "name": "contractCompleted",
      "outputs": [
        {
          "internalType": "bool",
          "name": "completed",
          "type": "bool"
        }
      ],
      "stateMutability": "view",
      "type": "function"
    },
    {
      "inputs": [
        {
          "internalType": "uint256",
          "name": "_contractId",
          "type": "uint256"
        }
      ],
      "name": "contractProgress",
      "outputs": [
        {
          "internalType": "uint256",
          "name": "_progress",
          "type": "uint256"
        }
      ],
      "stateMutability": "view",
      "type": "function"
    },
    {
      "inputs": [
        {
          "components": [
            {
              "internalType": "uint256",
              "name": "contractId",
              "type": "uint256"
            },
            {
              "internalType": "string",
              "name": "metadataUri",
              "type": "string"
            },
            {
              "components": [
                {
                  "internalType": "address",
                  "name": "seller",
                  "type": "address"
                },
                {
                  "internalType": "uint8",
                  "name": "quota",
                  "type": "uint8"
                }
              ],
              "internalType": "struct Deferred.SellerRequest[]",
              "name": "sellers",
              "type": "tuple[]"
            },
            {
              "internalType": "address[]",
              "name": "buyers",
              "type": "address[]"
            },
            {
              "internalType": "uint256",
              "name": "ekokeReward",
              "type": "uint256"
            },
            {
              "internalType": "uint256",
              "name": "tokenPriceUsd",
              "type": "uint256"
            },
            {
              "internalType": "uint256",
              "name": "tokensAmount",
              "type": "uint256"
            }
          ],
          "internalType": "struct Deferred.CreateContractRequest",
          "name": "_request",
          "type": "tuple"
        }
      ],
      "name": "createContract",
      "outputs": [],
      "stateMutability": "nonpayable",
      "type": "function"
    },
    {
      "inputs": [],
      "name": "deferredMinter",
      "outputs": [
        {
          "internalType": "address",
          "name": "",
          "type": "address"
        }
      ],
      "stateMutability": "view",
      "type": "function"
    },
    {
      "inputs": [
        {
          "internalType": "uint256",
          "name": "tokenId",
          "type": "uint256"
        }
      ],
      "name": "getApproved",
      "outputs": [
        {
          "internalType": "address",
          "name": "",
          "type": "address"
        }
      ],
      "stateMutability": "view",
      "type": "function"
    },
    {
      "inputs": [
        {
          "internalType": "uint256",
          "name": "_contractId",
          "type": "uint256"
        }
      ],
      "name": "getContract",
      "outputs": [
        {
          "components": [
            {
              "internalType": "uint256",
              "name": "contractId",
              "type": "uint256"
            },
            {
              "internalType": "string",
              "name": "metadataUri",
              "type": "string"
            },
            {
              "components": [
                {
                  "internalType": "address",
                  "name": "seller",
                  "type": "address"
                },
                {
                  "internalType": "uint256",
                  "name": "tokenFromId",
                  "type": "uint256"
                },
                {
                  "internalType": "uint256",
                  "name": "tokenToId",
                  "type": "uint256"
                }
              ],
              "internalType": "struct Deferred.Seller[]",
              "name": "sellers",
              "type": "tuple[]"
            },
            {
              "internalType": "address[]",
              "name": "buyers",
              "type": "address[]"
            },
            {
              "internalType": "uint256",
              "name": "ekokeReward",
              "type": "uint256"
            },
            {
              "internalType": "uint256",
              "name": "tokenPriceUsd",
              "type": "uint256"
            },
            {
              "internalType": "uint256",
              "name": "tokenFromId",
              "type": "uint256"
            },
            {
              "internalType": "uint256",
              "name": "tokenToId",
              "type": "uint256"
            },
            {
              "internalType": "bool",
              "name": "closed",
              "type": "bool"
            },
            {
              "internalType": "bool",
              "name": "created",
              "type": "bool"
            }
          ],
          "internalType": "struct Deferred.SellContract",
          "name": "_sellContract",
          "type": "tuple"
        }
      ],
      "stateMutability": "view",
      "type": "function"
    },
    {
      "inputs": [
        {
          "internalType": "address",
          "name": "owner",
          "type": "address"
        },
        {
          "internalType": "address",
          "name": "operator",
          "type": "address"
        }
      ],
      "name": "isApprovedForAll",
      "outputs": [
        {
          "internalType": "bool",
          "name": "",
          "type": "bool"
        }
      ],
      "stateMutability": "view",
      "type": "function"
    },
    {
      "inputs": [],
      "name": "marketplace",
      "outputs": [
        {
          "internalType": "address",
          "name": "",
          "type": "address"
        }
      ],
      "stateMutability": "view",
      "type": "function"
    },
    {
      "inputs": [],
      "name": "name",
      "outputs": [
        {
          "internalType": "string",
          "name": "",
          "type": "string"
        }
      ],
      "stateMutability": "view",
      "type": "function"
    },
    {
      "inputs": [
        {
          "internalType": "uint256",
          "name": "_contractId",
          "type": "uint256"
        }
      ],
      "name": "nextTokenIdToBuy",
      "outputs": [
        {
          "internalType": "uint256",
          "name": "_nextTokenId",
          "type": "uint256"
        }
      ],
      "stateMutability": "view",
      "type": "function"
    },
    {
      "inputs": [
        {
          "internalType": "uint256",
          "name": "_contractId",
          "type": "uint256"
        },
        {
          "internalType": "address",
          "name": "_caller",
          "type": "address"
        }
      ],
      "name": "nextTokenIdToBuyFor",
      "outputs": [
        {
          "internalType": "uint256",
          "name": "",
          "type": "uint256"
        }
      ],
      "stateMutability": "view",
      "type": "function"
    },
    {
      "inputs": [],
      "name": "owner",
      "outputs": [
        {
          "internalType": "address",
          "name": "",
          "type": "address"
        }
      ],
      "stateMutability": "view",
      "type": "function"
    },
    {
      "inputs": [
        {
          "internalType": "uint256",
          "name": "tokenId",
          "type": "uint256"
        }
      ],
      "name": "ownerOf",
      "outputs": [
        {
          "internalType": "address",
          "name": "owner",
          "type": "address"
        }
      ],
      "stateMutability": "view",
      "type": "function"
    },
    {
      "inputs": [],
      "name": "renounceOwnership",
      "outputs": [],
      "stateMutability": "nonpayable",
      "type": "function"
    },
    {
      "inputs": [],
      "name": "rewardPool",
      "outputs": [
        {
          "internalType": "address",
          "name": "",
          "type": "address"
        }
      ],
      "stateMutability": "view",
      "type": "function"
    },
    {
      "inputs": [
        {
          "internalType": "address",
          "name": "from",
          "type": "address"
        },
        {
          "internalType": "address",
          "name": "to",
          "type": "address"
        },
        {
          "internalType": "uint256",
          "name": "tokenId",
          "type": "uint256"
        }
      ],
      "name": "safeTransferFrom",
      "outputs": [],
      "stateMutability": "nonpayable",
      "type": "function"
    },
    {
      "inputs": [
        {
          "internalType": "address",
          "name": "",
          "type": "address"
        },
        {
          "internalType": "address",
          "name": "",
          "type": "address"
        },
        {
          "internalType": "uint256",
          "name": "",
          "type": "uint256"
        },
        {
          "internalType": "bytes",
          "name": "",
          "type": "bytes"
        }
      ],
      "name": "safeTransferFrom",
      "outputs": [],
      "stateMutability": "pure",
      "type": "function"
    },
    {
      "inputs": [
        {
          "internalType": "address",
          "name": "",
          "type": "address"
        },
        {
          "internalType": "bool",
          "name": "",
          "type": "bool"
        }
      ],
      "name": "setApprovalForAll",
      "outputs": [],
      "stateMutability": "pure",
      "type": "function"
    },
    {
      "inputs": [
        {
          "internalType": "bytes4",
          "name": "interfaceId",
          "type": "bytes4"
        }
      ],
      "name": "supportsInterface",
      "outputs": [
        {
          "internalType": "bool",
          "name": "",
          "type": "bool"
        }
      ],
      "stateMutability": "view",
      "type": "function"
    },
    {
      "inputs": [],
      "name": "symbol",
      "outputs": [
        {
          "internalType": "string",
          "name": "",
          "type": "string"
        }
      ],
      "stateMutability": "view",
      "type": "function"
    },
    {
      "inputs": [
        {
          "internalType": "uint256",
          "name": "tokenId",
          "type": "uint256"
        }
      ],
      "name": "tokenContract",
      "outputs": [
        {
          "components": [
            {
              "internalType": "uint256",
              "name": "contractId",
              "type": "uint256"
            },
            {
              "internalType": "string",
              "name": "metadataUri",
              "type": "string"
            },
            {
              "components": [
                {
                  "internalType": "address",
                  "name": "seller",
                  "type": "address"
                },
                {
                  "internalType": "uint256",
                  "name": "tokenFromId",
                  "type": "uint256"
                },
                {
                  "internalType": "uint256",
                  "name": "tokenToId",
                  "type": "uint256"
                }
              ],
              "internalType": "struct Deferred.Seller[]",
              "name": "sellers",
              "type": "tuple[]"
            },
            {
              "internalType": "address[]",
              "name": "buyers",
              "type": "address[]"
            },
            {
              "internalType": "uint256",
              "name": "ekokeReward",
              "type": "uint256"
            },
            {
              "internalType": "uint256",
              "name": "tokenPriceUsd",
              "type": "uint256"
            },
            {
              "internalType": "uint256",
              "name": "tokenFromId",
              "type": "uint256"
            },
            {
              "internalType": "uint256",
              "name": "tokenToId",
              "type": "uint256"
            },
            {
              "internalType": "bool",
              "name": "closed",
              "type": "bool"
            },
            {
              "internalType": "bool",
              "name": "created",
              "type": "bool"
            }
          ],
          "internalType": "struct Deferred.SellContract",
          "name": "",
          "type": "tuple"
        }
      ],
      "stateMutability": "view",
      "type": "function"
    },
    {
      "inputs": [
        {
          "internalType": "uint256",
          "name": "tokenId",
          "type": "uint256"
        }
      ],
      "name": "tokenPriceUsd",
      "outputs": [
        {
          "internalType": "uint256",
          "name": "",
          "type": "uint256"
        }
      ],
      "stateMutability": "view",
      "type": "function"
    },
    {
      "inputs": [
        {
          "internalType": "uint256",
          "name": "tokenId",
          "type": "uint256"
        }
      ],
      "name": "tokenURI",
      "outputs": [
        {
          "internalType": "string",
          "name": "",
          "type": "string"
        }
      ],
      "stateMutability": "view",
      "type": "function"
    },
    {
      "inputs": [],
      "name": "totalSupply",
      "outputs": [
        {
          "internalType": "uint256",
          "name": "",
          "type": "uint256"
        }
      ],
      "stateMutability": "view",
      "type": "function"
    },
    {
      "inputs": [
        {
          "internalType": "address",
          "name": "",
          "type": "address"
        },
        {
          "internalType": "address",
          "name": "",
          "type": "address"
        },
        {
          "internalType": "uint256",
          "name": "",
          "type": "uint256"
        }
      ],
      "name": "transferFrom",
      "outputs": [],
      "stateMutability": "pure",
      "type": "function"
    },
    {
      "inputs": [
        {
          "internalType": "address",
          "name": "newOwner",
          "type": "address"
        }
      ],
      "name": "transferOwnership",
      "outputs": [],
      "stateMutability": "nonpayable",
      "type": "function"
    },
    {
      "inputs": [
        {
          "internalType": "uint256",
          "name": "_contractId",
          "type": "uint256"
        },
        {
          "internalType": "address",
          "name": "from",
          "type": "address"
        },
        {
          "internalType": "address",
          "name": "to",
          "type": "address"
        }
      ],
      "name": "transferToken",
      "outputs": [
        {
          "internalType": "uint256",
          "name": "_tokenId",
          "type": "uint256"
        }
      ],
      "stateMutability": "nonpayable",
      "type": "function"
    }
  ],
  "bytecode": "0x60806040526000600d55600e80546001600160a01b0319908116909155600f80548216905560108054909116905534801561003957600080fd5b50604051613cfa380380613cfa8339810160408190526100589161014a565b8060405180604001604052806008815260200167111959995c9c995960c21b81525060405180604001604052806008815260200167111151915494915160c21b81525081600090816100aa9190610219565b5060016100b78282610219565b5050506001600160a01b0381166100e857604051631e4fbdf760e01b81526000600482015260240160405180910390fd5b6100f1816100f8565b50506102d7565b600680546001600160a01b038381166001600160a01b0319831681179093556040519116919082907f8be0079c531659141344cd1fd0a4f28419497f9722a3daafe3b4186f6b6457e090600090a35050565b60006020828403121561015c57600080fd5b81516001600160a01b038116811461017357600080fd5b9392505050565b634e487b7160e01b600052604160045260246000fd5b600181811c908216806101a457607f821691505b6020821081036101c457634e487b7160e01b600052602260045260246000fd5b50919050565b601f82111561021457806000526020600020601f840160051c810160208510156101f15750805b601f840160051c820191505b8181101561021157600081556001016101fd565b50505b505050565b81516001600160401b038111156102325761023261017a565b610246816102408454610190565b846101ca565b6020601f82116001811461027a57600083156102625750848201515b600019600385901b1c1916600184901b178455610211565b600084815260208120601f198516915b828110156102aa578785015182556020948501946001909201910161028a565b50848210156102c85786840151600019600387901b60f8161c191681555b50505050600190811b01905550565b613a14806102e66000396000f3fe608060405234801561001057600080fd5b50600436106102065760003560e01c806370a082311161011a578063a30fb020116100ad578063c87b56dd1161007c578063c87b56dd14610464578063d0ce736014610477578063d471cf5d1461048a578063e985e9c51461049d578063f2fde38b146104b057600080fd5b8063a30fb02014610418578063abc8c7af1461042b578063b7e62e5d1461043e578063b88d4fde1461045157600080fd5b80638da5cb5b116100e95780638da5cb5b146103d957806395d89b41146103ea5780639be78f05146103f2578063a22cb4651461040557600080fd5b806370a0823114610398578063715018a6146103ab57806375229c55146103b357806382558c2a146103c657600080fd5b80633a0432421161019d578063592691221161016c578063592691221461031f5780635a6aef60146103325780636352211e1461035257806366666aa9146103655780636ebc8c861461037857600080fd5b80633a043242146102d357806342842e0e146102e65780634a2a1fb0146102f9578063559de7b81461030c57600080fd5b8063095ea7b3116101d9578063095ea7b31461028657806318160ddd1461029b5780631892dd9f146102ad57806323b872dd146102c057600080fd5b8063017d6f991461020b57806301ffc9a71461023b57806306fdde031461025e578063081812fc14610273575b600080fd5b60105461021e906001600160a01b031681565b6040516001600160a01b0390911681526020015b60405180910390f35b61024e610249366004612f87565b6104c3565b6040519015158152602001610232565b610266610515565b6040516102329190612fea565b61021e610281366004612ffd565b6105a7565b61029961029436600461302b565b6105d1565b005b600d545b604051908152602001610232565b6102996102bb366004613057565b61061e565b6102996102ce366004613074565b610648565b61021e6102e1366004612ffd565b61069e565b6102996102f4366004613074565b6106a9565b61029f6103073660046130b5565b6106c9565b61024e61031a366004612ffd565b610c41565b61029f61032d366004612ffd565b610e80565b61029f610340366004612ffd565b6000908152600b602052604090205490565b61021e610360366004612ffd565b610e95565b600f5461021e906001600160a01b031681565b61038b610386366004612ffd565b610ec0565b6040516102329190613190565b61029f6103a6366004613057565b6110d6565b610299611102565b61029f6103c1366004612ffd565b611116565b6102996103d4366004613057565b611122565b6006546001600160a01b031661021e565b61026661114c565b610299610400366004613057565b61115b565b61029961041336600461324c565b611185565b61038b610426366004612ffd565b6111e0565b600e5461021e906001600160a01b031681565b61029f61044c36600461328a565b611433565b61029961045f36600461339e565b611720565b610266610472366004612ffd565b61177a565b610299610485366004612ffd565b61178f565b610299610498366004613578565b6118d2565b61024e6104ab36600461366b565b612092565b6102996104be366004613057565b6120be565b60006001600160e01b031982166380ac58cd60e01b14806104f457506001600160e01b03198216635b5e139f60e01b145b8061050f57506301ffc9a760e01b6001600160e01b03198316145b92915050565b60606000805461052490613699565b80601f016020809104026020016040519081016040528092919081815260200182805461055090613699565b801561059d5780601f106105725761010080835404028352916020019161059d565b820191906000526020600020905b81548152906001019060200180831161058057829003601f168201915b5050505050905090565b60006105b2826120fc565b156105c8575050600e546001600160a01b031690565b61050f8261216c565b60405162461bcd60e51b815260206004820181905260248201527f44656665727265643a20617070726f7665206973206e6f7420616c6c6f77656460448201526064015b60405180910390fd5b610626612195565b600e80546001600160a01b0319166001600160a01b0392909216919091179055565b60405162461bcd60e51b815260206004820152602560248201527f44656665727265643a207472616e7366657246726f6d206973206e6f7420616c6044820152641b1bddd95960da1b6064820152608401610615565b600061050f826121c2565b6106c483838360405180602001604052806000815250611720565b505050565b600e546000906001600160a01b0316331480156106f05750600e546001600160a01b031615155b61074c5760405162461bcd60e51b815260206004820152602760248201527f44656665727265643a2063616c6c6572206973206e6f7420746865206d61726b6044820152666574706c61636560c81b6064820152608401610615565b600060076000868152602001908152602001600020604051806101400160405290816000820154815260200160018201805461078790613699565b80601f01602080910402602001604051908101604052809291908181526020018280546107b390613699565b80156108005780601f106107d557610100808354040283529160200191610800565b820191906000526020600020905b8154815290600101906020018083116107e357829003601f168201915b5050505050815260200160028201805480602002602001604051908101604052809291908181526020016000905b82821015610883576000848152602090819020604080516060810182526003860290920180546001600160a01b031683526001808201548486015260029091015491830191909152908352909201910161082e565b505050508152602001600382018054806020026020016040519081016040528092919081815260200182805480156108e457602002820191906000526020600020905b81546001600160a01b031681526001909101906020018083116108c6575b50505091835250506004820154602082015260058201546040820152600682015460608201526007820154608082015260089091015460ff808216151560a084015261010090910416151560c090910152905060006109438685611433565b9050846001600160a01b031661095882610e95565b6001600160a01b0316146109c35760405162461bcd60e51b815260206004820152602c60248201527f44656665727265643a2066726f6d206973206e6f7420746865206f776e65722060448201526b37b3103a3432903a37b5b2b760a11b6064820152608401610615565b6000805b836060015151811015610a1b57836060015181815181106109ea576109ea6136d3565b60200260200101516001600160a01b0316866001600160a01b031603610a135760019150610a1b565b6001016109c7565b508015610aab576000878152600960205260408120805460019290610a419084906136ff565b90915550506000878152600b60205260408120805460019290610a659084906136ff565b9091555050600087815260096020908152604080832054600a9092529091205411610aa657600087815260096020908152604080832054600a909252909120555b610ad0565b6000878152600a60205260408120805460019290610aca9084906136ff565b90915550505b610ad9826120fc565b15610ba357610ae882866121cd565b6001600160a01b03861660009081526008602052604090205415610b35576001600160a01b0386166000908152600860205260408120805460019290610b2f908490613712565b90915550505b600e54610b4b906001600160a01b0316836121db565b846001600160a01b0316866001600160a01b0316887fdc5e8cc6b36001921ea942b2d0334e09fcc347e33b47a83d9a6c5c2a521d329c85604051610b9191815260200190565b60405180910390a4509150610c3a9050565b600e546001600160a01b0316610bb88361216c565b6001600160a01b031614610bdc57600e54610bdc906001600160a01b0316836121db565b610be78686846121e6565b846001600160a01b0316866001600160a01b0316887fdc5e8cc6b36001921ea942b2d0334e09fcc347e33b47a83d9a6c5c2a521d329c85604051610c2d91815260200190565b60405180910390a4509150505b9392505050565b60008181526007602090815260408083208151610140810190925280548252600181018054859484019190610c7590613699565b80601f0160208091040260200160405190810160405280929190818152602001828054610ca190613699565b8015610cee5780601f10610cc357610100808354040283529160200191610cee565b820191906000526020600020905b815481529060010190602001808311610cd157829003601f168201915b5050505050815260200160028201805480602002602001604051908101604052809291908181526020016000905b82821015610d71576000848152602090819020604080516060810182526003860290920180546001600160a01b0316835260018082015484860152600290910154918301919091529083529092019101610d1c565b50505050815260200160038201805480602002602001604051908101604052809291908181526020018280548015610dd257602002820191906000526020600020905b81546001600160a01b03168152600190910190602001808311610db4575b50505091835250506004820154602082015260058201546040820152600682015460608201526007820154608082015260089091015460ff808216151560a084015261010090910416151560c090910152610120810151909150610e485760405162461bcd60e51b815260040161061590613725565b8060c001518160e00151610e5c9190613712565b610e679060016136ff565b6000938452600b60205260409093205490921492915050565b6000610e8b826111e0565b60a0015192915050565b6000610ea0826120fc565b15610eb75761050f610eb183612271565b836124d7565b61050f826121c2565b610ec8612e52565b6000600760008481526020019081526020016000206040518061014001604052908160008201548152602001600182018054610f0390613699565b80601f0160208091040260200160405190810160405280929190818152602001828054610f2f90613699565b8015610f7c5780601f10610f5157610100808354040283529160200191610f7c565b820191906000526020600020905b815481529060010190602001808311610f5f57829003601f168201915b5050505050815260200160028201805480602002602001604051908101604052809291908181526020016000905b82821015610fff576000848152602090819020604080516060810182526003860290920180546001600160a01b0316835260018082015484860152600290910154918301919091529083529092019101610faa565b5050505081526020016003820180548060200260200160405190810160405280929190818152602001828054801561106057602002820191906000526020600020905b81546001600160a01b03168152600190910190602001808311611042575b50505091835250506004820154602082015260058201546040820152600682015460608201526007820154608082015260089091015460ff808216151560a084015261010090910416151560c09091015261012081015190915061050f5760405162461bcd60e51b815260040161061590613725565b6001600160a01b0381166000908152600860205260408120546110f8836128ea565b61050f91906136ff565b61110a612195565b6111146000612932565b565b600061050f8233611433565b61112a612195565b600f80546001600160a01b0319166001600160a01b0392909216919091179055565b60606001805461052490613699565b611163612195565b601080546001600160a01b0319166001600160a01b0392909216919091179055565b60405162461bcd60e51b815260206004820152602a60248201527f44656665727265643a20736574417070726f76616c466f72416c6c206973206e6044820152691bdd08185b1b1bddd95960b21b6064820152608401610615565b6111e8612e52565b60006111f383612271565b9050600081116112455760405162461bcd60e51b815260206004820152601e60248201527f44656665727265643a20746f6b656e20646f6573206e6f7420657869737400006044820152606401610615565b60076000828152602001908152602001600020604051806101400160405290816000820154815260200160018201805461127e90613699565b80601f01602080910402602001604051908101604052809291908181526020018280546112aa90613699565b80156112f75780601f106112cc576101008083540402835291602001916112f7565b820191906000526020600020905b8154815290600101906020018083116112da57829003601f168201915b5050505050815260200160028201805480602002602001604051908101604052809291908181526020016000905b8282101561137a576000848152602090819020604080516060810182526003860290920180546001600160a01b0316835260018082015484860152600290910154918301919091529083529092019101611325565b505050508152602001600382018054806020026020016040519081016040528092919081815260200182805480156113db57602002820191906000526020600020905b81546001600160a01b031681526001909101906020018083116113bd575b50505091835250506004820154602082015260058201546040820152600682015460608201526007820154608082015260089091015460ff808216151560a084015261010090910416151560c0909101529392505050565b6000828152600760209081526040808320815161014081019092528054825260018101805485948401919061146790613699565b80601f016020809104026020016040519081016040528092919081815260200182805461149390613699565b80156114e05780601f106114b5576101008083540402835291602001916114e0565b820191906000526020600020905b8154815290600101906020018083116114c357829003601f168201915b5050505050815260200160028201805480602002602001604051908101604052809291908181526020016000905b82821015611563576000848152602090819020604080516060810182526003860290920180546001600160a01b031683526001808201548486015260029091015491830191909152908352909201910161150e565b505050508152602001600382018054806020026020016040519081016040528092919081815260200182805480156115c457602002820191906000526020600020905b81546001600160a01b031681526001909101906020018083116115a6575b50505091835250506004820154602082015260058201546040820152600682015460608201526007820154608082015260089091015460ff808216151560a084015261010090910416151560c09091015261012081015190915061163a5760405162461bcd60e51b815260040161061590613725565b60008060005b8360600151518110156116945783606001518181518110611663576116636136d3565b60200260200101516001600160a01b0316866001600160a01b03160361168c5760019150611694565b600101611640565b5080156116b15760008681526009602052604090205491506116c3565b6000868152600a602052604090205491505b8260e001518211156117175760405162461bcd60e51b815260206004820152601f60248201527f44656665727265643a206e6f206d6f726520746f6b656e7320746f20627579006044820152606401610615565b50949350505050565b60405162461bcd60e51b815260206004820152602960248201527f44656665727265643a20736166655472616e7366657246726f6d206973206e6f6044820152681d08185b1b1bddd95960ba1b6064820152608401610615565b6060611785826111e0565b6020015192915050565b6010546001600160a01b0316331480156117b357506010546001600160a01b031615155b6117cf5760405162461bcd60e51b815260040161061590613766565b600081116117ef5760405162461bcd60e51b8152600401610615906137a8565b600081815260076020526040902060080154610100900460ff166118255760405162461bcd60e51b815260040161061590613725565b6000818152600760205260409020600881015460ff16156118945760405162461bcd60e51b8152602060048201526024808201527f44656665727265643a20636f6e747261637420697320616c726561647920636c6044820152631bdcd95960e21b6064820152608401610615565b60088101805460ff1916600117905560405182907fd79ef0d7f68df3d827e7c4b6a13ec4570e9a30515c4717bbaa647da58ca68be190600090a25050565b6010546001600160a01b0316331480156118f657506010546001600160a01b031615155b6119125760405162461bcd60e51b815260040161061590613766565b8051806119315760405162461bcd60e51b8152600401610615906137a8565b600081815260076020526040902060080154610100900460ff16156119a65760405162461bcd60e51b815260206004820152602560248201527f44656665727265643a20636f6e747261637420697320616c726561647920637260448201526419585d195960da1b6064820152608401610615565b600f546001600160a01b03166119fe5760405162461bcd60e51b815260206004820181905260248201527f44656665727265643a2072657761726420706f6f6c206973206e6f74207365746044820152606401610615565b60008260c0015111611a685760405162461bcd60e51b815260206004820152602d60248201527f44656665727265643a20746f6b656e73416d6f756e74206d757374206265206760448201526c0726561746572207468616e203609c1b6064820152608401610615565b6000805b836040015151811015611b335760006001600160a01b031684604001518281518110611a9a57611a9a6136d3565b6020026020010151600001516001600160a01b031603611afc5760405162461bcd60e51b815260206004820152601c60248201527f44656665727265643a2073656c6c6572206d75737420626520736574000000006044820152606401610615565b83604001518181518110611b1257611b126136d3565b60200260200101516020015182611b2991906137f3565b9150600101611a6c565b508060ff16606414611b915760405162461bcd60e51b815260206004820152602160248201527f44656665727265643a20746f74616c2071756f7461206d7573742062652031306044820152600360fc1b6064820152608401610615565b60008360a0015111611bfc5760405162461bcd60e51b815260206004820152602e60248201527f44656665727265643a20746f6b656e5072696365557364206d7573742062652060448201526d067726561746572207468616e20360941b6064820152608401610615565b60648360c00151611c0d9190613822565b15611c725760405162461bcd60e51b815260206004820152602f60248201527f44656665727265643a20746f6b656e73416d6f756e74206d757374206265206460448201526e06976697369626c652062792031303608c1b6064820152608401610615565b608083015115611ceb57600f54608084015160c08501516040516376b88f1160e11b8152600481019290925260248201526001600160a01b039091169063ed711e2290604401600060405180830381600087803b158015611cd257600080fd5b505af1158015611ce6573d6000803e3d6000fd5b505050505b600d5460c0840151600090600190611d0390846136ff565b611d0d9190613712565b9050600085604001515167ffffffffffffffff811115611d2f57611d2f6132af565b604051908082528060200260200182016040528015611d8d57816020015b611d7a604051806060016040528060006001600160a01b0316815260200160008152602001600081525090565b815260200190600190039081611d4d5790505b5090506000839050600060648860c00151611da89190613836565b905060005b886040015151811015611ee257600089604001518281518110611dd257611dd26136d3565b602002602001015190506000816020015160ff1684611df1919061384a565b905060006001611e0183886136ff565b611e0b9190613712565b905060405180606001604052808d604001518681518110611e2e57611e2e6136d3565b6020026020010151600001516001600160a01b0316815260200187815260200182815250878581518110611e6457611e646136d3565b6020908102919091010152611e7a8160016136ff565b95508160086000898781518110611e9357611e936136d3565b6020026020010151600001516001600160a01b03166001600160a01b031681526020019081526020016000206000828254611ece91906136ff565b909155505060019093019250611dad915050565b506000878152600760209081526040909120888155908901516001820190611f0a90826138a8565b5060608901518051611f26916003840191602090910190612ea9565b506080890151600482015560a08901516005820155600681018690556007810185905560088101805461ffff1916610100179055611f68600282016000612f0e565b60005b8451811015611fe55781600201858281518110611f8a57611f8a6136d3565b602090810291909101810151825460018082018555600094855293839020825160039092020180546001600160a01b0319166001600160a01b0390921691909117815591810151828401556040015160029091015501611f6b565b506000888152600960209081526040808320899055600a8252808320899055600b909152812081905560c08a0151600d8054919290916120269084906136ff565b9091555050600c805460018101825560009182527fdf6966c971051c3d54ec59162606531493a51404a002842f56009d7e5cf4a8c70189905560405189917f9e3c7e008a15a3c864482ee94fd7315bcc9d0c04f3a9041ab922f816acffbe0691a2505050505050505050565b600e546000906001600160a01b0383811691161480610c3a5750506001600160a01b0390811691161490565b6120c6612195565b6001600160a01b0381166120f057604051631e4fbdf760e01b815260006004820152602401610615565b6120f981612932565b50565b604051631d02192160e11b8152600481018290526000903090633a04324290602401602060405180830381865afa925050508015612157575060408051601f3d908101601f1916820190925261215491810190613967565b60015b61216357506001919050565b50600092915050565b600061217782612984565b506000828152600460205260409020546001600160a01b031661050f565b6006546001600160a01b031633146111145760405163118cdaa760e01b8152336004820152602401610615565b600061050f82612984565b6121d781836129bd565b5050565b6121d78282336129d7565b6001600160a01b03821661221057604051633250574960e11b815260006004820152602401610615565b600061221d8383336129e4565b9050836001600160a01b0316816001600160a01b03161461226b576040516364283d7b60e01b81526001600160a01b0380861660048301526024820184905282166044820152606401610615565b50505050565b6000805b600c54811015612163576000600c8281548110612294576122946136d3565b9060005260206000200154905060006007600083815260200190815260200160002060405180610140016040529081600082015481526020016001820180546122dc90613699565b80601f016020809104026020016040519081016040528092919081815260200182805461230890613699565b80156123555780601f1061232a57610100808354040283529160200191612355565b820191906000526020600020905b81548152906001019060200180831161233857829003601f168201915b5050505050815260200160028201805480602002602001604051908101604052809291908181526020016000905b828210156123d8576000848152602090819020604080516060810182526003860290920180546001600160a01b0316835260018082015484860152600290910154918301919091529083529092019101612383565b5050505081526020016003820180548060200260200160405190810160405280929190818152602001828054801561243957602002820191906000526020600020905b81546001600160a01b0316815260019091019060200180831161241b575b50505091835250506004820154602082015260058201546040820152600682015460608201526007820154608082015260089091015460ff808216151560a084015261010090910416151560c09182015281015190915085108015906124a357508060e001518511155b80156124b25750806101000151155b80156124c057508061012001515b156124cd57509392505050565b5050600101612275565b60008083116124f85760405162461bcd60e51b8152600401610615906137a8565b600083815260076020526040902060080154610100900460ff1661252e5760405162461bcd60e51b815260040161061590613725565b6000838152600760205260409020600601548210156125b55760405162461bcd60e51b815260206004820152603e60248201527f44656665727265643a20746f6b656e4964206d7573742062652067726561746560448201527f72207468616e206f7220657175616c20746f20746f6b656e46726f6d496400006064820152608401610615565b6000838152600760208190526040909120015482111561263d5760405162461bcd60e51b815260206004820152603960248201527f44656665727265643a20746f6b656e4964206d757374206265206c657373207460448201527f68616e206f7220657175616c20746f20746f6b656e546f4964000000000000006064820152608401610615565b600060076000858152602001908152602001600020604051806101400160405290816000820154815260200160018201805461267890613699565b80601f01602080910402602001604051908101604052809291908181526020018280546126a490613699565b80156126f15780601f106126c6576101008083540402835291602001916126f1565b820191906000526020600020905b8154815290600101906020018083116126d457829003601f168201915b5050505050815260200160028201805480602002602001604051908101604052809291908181526020016000905b82821015612774576000848152602090819020604080516060810182526003860290920180546001600160a01b031683526001808201548486015260029091015491830191909152908352909201910161271f565b505050508152602001600382018054806020026020016040519081016040528092919081815260200182805480156127d557602002820191906000526020600020905b81546001600160a01b031681526001909101906020018083116127b7575b50505091835250506004820154602082015260058201546040820152600682015460608201526007820154608082015260089091015460ff808216151560a084015261010090910416151560c090910152905060005b81604001515181101561288b57600082604001518281518110612850576128506136d3565b6020026020010151905084816020015111158015612872575080604001518511155b156128825751925061050f915050565b5060010161282b565b5060405162461bcd60e51b815260206004820152602d60248201527f44656665727265643a20746f6b656e20646f6573206e6f742062656c6f6e672060448201526c3a379030b73c9039b2b63632b960991b6064820152608401610615565b60006001600160a01b038216612916576040516322718ad960e21b815260006004820152602401610615565b506001600160a01b031660009081526003602052604090205490565b600680546001600160a01b038381166001600160a01b0319831681179093556040519116919082907f8be0079c531659141344cd1fd0a4f28419497f9722a3daafe3b4186f6b6457e090600090a35050565b6000818152600260205260408120546001600160a01b03168061050f57604051637e27328960e01b815260048101849052602401610615565b6121d7828260405180602001604052806000815250612add565b6106c48383836001612af4565b6000828152600260205260408120546001600160a01b0390811690831615612a1157612a11818486612bfa565b6001600160a01b03811615612a4f57612a2e600085600080612af4565b6001600160a01b038116600090815260036020526040902080546000190190555b6001600160a01b03851615612a7e576001600160a01b0385166000908152600360205260409020805460010190555b60008481526002602052604080822080546001600160a01b0319166001600160a01b0389811691821790925591518793918516917fddf252ad1be2c89b69c2b068fc378daa952ba7f163c4a11628f55a4df523b3ef91a4949350505050565b612ae78383612c5e565b6106c46000848484612cc3565b8080612b0857506001600160a01b03821615155b15612bca576000612b1884612984565b90506001600160a01b03831615801590612b445750826001600160a01b0316816001600160a01b031614155b8015612b575750612b558184612092565b155b15612b805760405163a9fbf51f60e01b81526001600160a01b0384166004820152602401610615565b8115612bc85783856001600160a01b0316826001600160a01b03167f8c5be1e5ebec7d5bd14f71427d1e84f3dd0314c0f7b2291e5b200ac8c7c3b92560405160405180910390a45b505b5050600090815260046020526040902080546001600160a01b0319166001600160a01b0392909216919091179055565b612c05838383612dec565b6106c4576001600160a01b038316612c3357604051637e27328960e01b815260048101829052602401610615565b60405163177e802f60e01b81526001600160a01b038316600482015260248101829052604401610615565b6001600160a01b038216612c8857604051633250574960e11b815260006004820152602401610615565b6000612c96838360006129e4565b90506001600160a01b038116156106c4576040516339e3563760e11b815260006004820152602401610615565b6001600160a01b0383163b1561226b57604051630a85bd0160e11b81526001600160a01b0384169063150b7a0290612d05903390889087908790600401613984565b6020604051808303816000875af1925050508015612d40575060408051601f3d908101601f19168201909252612d3d918101906139c1565b60015b612da9573d808015612d6e576040519150601f19603f3d011682016040523d82523d6000602084013e612d73565b606091505b508051600003612da157604051633250574960e11b81526001600160a01b0385166004820152602401610615565b805181602001fd5b6001600160e01b03198116630a85bd0160e11b14612de557604051633250574960e11b81526001600160a01b0385166004820152602401610615565b5050505050565b60006001600160a01b03831615801590612e4a5750826001600160a01b0316846001600160a01b03161480612e265750612e268484612092565b80612e4a57506000828152600460205260409020546001600160a01b038481169116145b949350505050565b60405180610140016040528060008152602001606081526020016060815260200160608152602001600081526020016000815260200160008152602001600081526020016000151581526020016000151581525090565b828054828255906000526020600020908101928215612efe579160200282015b82811115612efe57825182546001600160a01b0319166001600160a01b03909116178255602090920191600190910190612ec9565b50612f0a929150612f2f565b5090565b50805460008255600302906000526020600020908101906120f99190612f44565b5b80821115612f0a5760008155600101612f30565b5b80821115612f0a5780546001600160a01b03191681556000600182018190556002820155600301612f45565b6001600160e01b0319811681146120f957600080fd5b600060208284031215612f9957600080fd5b8135610c3a81612f71565b6000815180845260005b81811015612fca57602081850181015186830182015201612fae565b506000602082860101526020601f19601f83011685010191505092915050565b602081526000610c3a6020830184612fa4565b60006020828403121561300f57600080fd5b5035919050565b6001600160a01b03811681146120f957600080fd5b6000806040838503121561303e57600080fd5b823561304981613016565b946020939093013593505050565b60006020828403121561306957600080fd5b8135610c3a81613016565b60008060006060848603121561308957600080fd5b833561309481613016565b925060208401356130a481613016565b929592945050506040919091013590565b6000806000606084860312156130ca57600080fd5b8335925060208401356130dc81613016565b915060408401356130ec81613016565b809150509250925092565b600081518084526020840193506020830160005b8281101561314b57815180516001600160a01b0316875260208082015181890152604091820151918801919091526060909601959091019060010161310b565b5093949350505050565b600081518084526020840193506020830160005b8281101561314b5781516001600160a01b0316865260209586019590910190600101613169565b60208152815160208201526000602083015161014060408401526131b8610160840182612fa4565b90506040840151601f198483030160608501526131d582826130f7565b9150506060840151601f198483030160808501526131f38282613155565b915050608084015160a084015260a084015160c084015260c084015160e084015260e084015161010084015261010084015161323461012085018215159052565b50610120840151801515610140850152509392505050565b6000806040838503121561325f57600080fd5b823561326a81613016565b91506020830135801515811461327f57600080fd5b809150509250929050565b6000806040838503121561329d57600080fd5b82359150602083013561327f81613016565b634e487b7160e01b600052604160045260246000fd5b6040805190810167ffffffffffffffff811182821017156132e8576132e86132af565b60405290565b60405160e0810167ffffffffffffffff811182821017156132e8576132e86132af565b604051601f8201601f1916810167ffffffffffffffff8111828210171561333a5761333a6132af565b604052919050565b60008067ffffffffffffffff84111561335d5761335d6132af565b50601f8301601f191660200161337281613311565b91505082815283838301111561338757600080fd5b828260208301376000602084830101529392505050565b600080600080608085870312156133b457600080fd5b84356133bf81613016565b935060208501356133cf81613016565b925060408501359150606085013567ffffffffffffffff8111156133f257600080fd5b8501601f8101871361340357600080fd5b61341287823560208401613342565b91505092959194509250565b600082601f83011261342f57600080fd5b610c3a83833560208501613342565b600067ffffffffffffffff821115613458576134586132af565b5060051b60200190565b600082601f83011261347357600080fd5b81356134866134818261343e565b613311565b8082825260208201915060208360061b8601019250858311156134a857600080fd5b602085015b8381101561350757604081880312156134c557600080fd5b6134cd6132c5565b81356134d881613016565b8152602082013560ff811681146134ee57600080fd5b60208281019190915290845292909201916040016134ad565b5095945050505050565b600082601f83011261352257600080fd5b81356135306134818261343e565b8082825260208201915060208360051b86010192508583111561355257600080fd5b602085015b8381101561350757803561356a81613016565b835260209283019201613557565b60006020828403121561358a57600080fd5b813567ffffffffffffffff8111156135a157600080fd5b820160e081850312156135b357600080fd5b6135bb6132ee565b81358152602082013567ffffffffffffffff8111156135d957600080fd5b6135e58682850161341e565b602083015250604082013567ffffffffffffffff81111561360557600080fd5b61361186828501613462565b604083015250606082013567ffffffffffffffff81111561363157600080fd5b61363d86828501613511565b6060830152506080828101359082015260a0808301359082015260c091820135918101919091529392505050565b6000806040838503121561367e57600080fd5b823561368981613016565b9150602083013561327f81613016565b600181811c908216806136ad57607f821691505b6020821081036136cd57634e487b7160e01b600052602260045260246000fd5b50919050565b634e487b7160e01b600052603260045260246000fd5b634e487b7160e01b600052601160045260246000fd5b8082018082111561050f5761050f6136e9565b8181038181111561050f5761050f6136e9565b60208082526021908201527f44656665727265643a20636f6e747261637420646f6573206e6f7420657869736040820152601d60fa1b606082015260800190565b60208082526022908201527f44656665727265643a2063616c6c6572206973206e6f7420746865206d696e7460408201526132b960f11b606082015260800190565b6020808252602b908201527f44656665727265643a20636f6e74726163744964206d7573742062652067726560408201526a061746572207468616e20360ac1b606082015260800190565b60ff818116838216019081111561050f5761050f6136e9565b634e487b7160e01b600052601260045260246000fd5b6000826138315761383161380c565b500690565b6000826138455761384561380c565b500490565b808202811582820484141761050f5761050f6136e9565b601f8211156106c457806000526020600020601f840160051c810160208510156138885750805b601f840160051c820191505b81811015612de55760008155600101613894565b815167ffffffffffffffff8111156138c2576138c26132af565b6138d6816138d08454613699565b84613861565b6020601f82116001811461390a57600083156138f25750848201515b600019600385901b1c1916600184901b178455612de5565b600084815260208120601f198516915b8281101561393a578785015182556020948501946001909201910161391a565b50848210156139585786840151600019600387901b60f8161c191681555b50505050600190811b01905550565b60006020828403121561397957600080fd5b8151610c3a81613016565b6001600160a01b03858116825284166020820152604081018390526080606082018190526000906139b790830184612fa4565b9695505050505050565b6000602082840312156139d357600080fd5b8151610c3a81612f7156fea264697066735822122033d4a55275ac94cb3e1fd081e9686d64d6647dd5108a0a3edad70a9eb9798ece64736f6c634300081c0033",
  "linkReferences": {},
  "deployedLinkReferences": {}
}