{
  "_format": "hh-sol-artifact-1",
  "contractName": "Ekoke",
  "sourceName": "contracts/Ekoke.sol",
  "abi": [
    {
      "inputs": [
        {
          "internalType": "address",
          "name": "_initialOwner",
          "type": "address"
        }
      ],
      "stateMutability": "nonpayable",
      "type": "constructor"
    },
    {
      "inputs": [
        {
          "internalType": "address",
          "name": "spender",
          "type": "address"
        },
        {
          "internalType": "uint256",
          "name": "allowance",
          "type": "uint256"
        },
        {
          "internalType": "uint256",
          "name": "needed",
          "type": "uint256"
        }
      ],
      "name": "ERC20InsufficientAllowance",
      "type": "error"
    },
    {
      "inputs": [
        {
          "internalType": "address",
          "name": "sender",
          "type": "address"
        },
        {
          "internalType": "uint256",
          "name": "balance",
          "type": "uint256"
        },
        {
          "internalType": "uint256",
          "name": "needed",
          "type": "uint256"
        }
      ],
      "name": "ERC20InsufficientBalance",
      "type": "error"
    },
    {
      "inputs": [
        {
          "internalType": "address",
          "name": "approver",
          "type": "address"
        }
      ],
      "name": "ERC20InvalidApprover",
      "type": "error"
    },
    {
      "inputs": [
        {
          "internalType": "address",
          "name": "receiver",
          "type": "address"
        }
      ],
      "name": "ERC20InvalidReceiver",
      "type": "error"
    },
    {
      "inputs": [
        {
          "internalType": "address",
          "name": "sender",
          "type": "address"
        }
      ],
      "name": "ERC20InvalidSender",
      "type": "error"
    },
    {
      "inputs": [
        {
          "internalType": "address",
          "name": "spender",
          "type": "address"
        }
      ],
      "name": "ERC20InvalidSpender",
      "type": "error"
    },
    {
      "inputs": [
        {
          "internalType": "address",
          "name": "owner",
          "type": "address"
        }
      ],
      "name": "OwnableInvalidOwner",
      "type": "error"
    },
    {
      "inputs": [
        {
          "internalType": "address",
          "name": "account",
          "type": "address"
        }
      ],
      "name": "OwnableUnauthorizedAccount",
      "type": "error"
    },
    {
      "anonymous": false,
      "inputs": [
        {
          "indexed": true,
          "internalType": "address",
          "name": "owner",
          "type": "address"
        },
        {
          "indexed": true,
          "internalType": "address",
          "name": "spender",
          "type": "address"
        },
        {
          "indexed": false,
          "internalType": "uint256",
          "name": "value",
          "type": "uint256"
        }
      ],
      "name": "Approval",
      "type": "event"
    },
    {
      "anonymous": false,
      "inputs": [
        {
          "indexed": true,
          "internalType": "address",
          "name": "_to",
          "type": "address"
        },
        {
          "indexed": false,
          "internalType": "uint256",
          "name": "_amount",
          "type": "uint256"
        }
      ],
      "name": "OwnerMinted",
      "type": "event"
    },
    {
      "anonymous": false,
      "inputs": [
        {
          "indexed": true,
          "internalType": "address",
          "name": "previousOwner",
          "type": "address"
        },
        {
          "indexed": true,
          "internalType": "address",
          "name": "newOwner",
          "type": "address"
        }
      ],
      "name": "OwnershipTransferred",
      "type": "event"
    },
    {
      "anonymous": false,
      "inputs": [
        {
          "indexed": true,
          "internalType": "address",
          "name": "_to",
          "type": "address"
        },
        {
          "indexed": false,
          "internalType": "uint256",
          "name": "_amount",
          "type": "uint256"
        }
      ],
      "name": "RewardMinted",
      "type": "event"
    },
    {
      "anonymous": false,
      "inputs": [
        {
          "indexed": true,
          "internalType": "address",
          "name": "from",
          "type": "address"
        },
        {
          "indexed": true,
          "internalType": "address",
          "name": "to",
          "type": "address"
        },
        {
          "indexed": false,
          "internalType": "uint256",
          "name": "value",
          "type": "uint256"
        }
      ],
      "name": "Transfer",
      "type": "event"
    },
    {
      "inputs": [],
      "name": "MAX_OWNER_MINT",
      "outputs": [
        {
          "internalType": "uint256",
          "name": "",
          "type": "uint256"
        }
      ],
      "stateMutability": "view",
      "type": "function"
    },
    {
      "inputs": [],
      "name": "MAX_REWARD_POOL_MINT",
      "outputs": [
        {
          "internalType": "uint256",
          "name": "",
          "type": "uint256"
        }
      ],
      "stateMutability": "view",
      "type": "function"
    },
    {
      "inputs": [],
      "name": "MAX_SUPPLY",
      "outputs": [
        {
          "internalType": "uint256",
          "name": "",
          "type": "uint256"
        }
      ],
      "stateMutability": "view",
      "type": "function"
    },
    {
      "inputs": [
        {
          "internalType": "address",
          "name": "_recipient",
          "type": "address"
        },
        {
          "internalType": "uint256",
          "name": "_amount",
          "type": "uint256"
        }
      ],
      "name": "adminMint",
      "outputs": [],
      "stateMutability": "nonpayable",
      "type": "function"
    },
    {
      "inputs": [
        {
          "internalType": "address",
          "name": "_reward_pool_address",
          "type": "address"
        }
      ],
      "name": "adminSetRewardPoolAddress",
      "outputs": [],
      "stateMutability": "nonpayable",
      "type": "function"
    },
    {
      "inputs": [
        {
          "internalType": "address",
          "name": "owner",
          "type": "address"
        },
        {
          "internalType": "address",
          "name": "spender",
          "type": "address"
        }
      ],
      "name": "allowance",
      "outputs": [
        {
          "internalType": "uint256",
          "name": "",
          "type": "uint256"
        }
      ],
      "stateMutability": "view",
      "type": "function"
    },
    {
      "inputs": [
        {
          "internalType": "address",
          "name": "spender",
          "type": "address"
        },
        {
          "internalType": "uint256",
          "name": "value",
          "type": "uint256"
        }
      ],
      "name": "approve",
      "outputs": [
        {
          "internalType": "bool",
          "name": "",
          "type": "bool"
        }
      ],
      "stateMutability": "nonpayable",
      "type": "function"
    },
    {
      "inputs": [
        {
          "internalType": "address",
          "name": "account",
          "type": "address"
        }
      ],
      "name": "balanceOf",
      "outputs": [
        {
          "internalType": "uint256",
          "name": "",
          "type": "uint256"
        }
      ],
      "stateMutability": "view",
      "type": "function"
    },
    {
      "inputs": [],
      "name": "decimals",
      "outputs": [
        {
          "internalType": "uint8",
          "name": "",
          "type": "uint8"
        }
      ],
      "stateMutability": "view",
      "type": "function"
    },
    {
      "inputs": [
        {
          "internalType": "address",
          "name": "_to",
          "type": "address"
        },
        {
          "internalType": "uint256",
          "name": "_amount",
          "type": "uint256"
        }
      ],
      "name": "mintRewardTokens",
      "outputs": [],
      "stateMutability": "nonpayable",
      "type": "function"
    },
    {
      "inputs": [],
      "name": "name",
      "outputs": [
        {
          "internalType": "string",
          "name": "",
          "type": "string"
        }
      ],
      "stateMutability": "view",
      "type": "function"
    },
    {
      "inputs": [],
      "name": "owner",
      "outputs": [
        {
          "internalType": "address",
          "name": "",
          "type": "address"
        }
      ],
      "stateMutability": "view",
      "type": "function"
    },
    {
      "inputs": [],
      "name": "ownerMintedSupply",
      "outputs": [
        {
          "internalType": "uint256",
          "name": "",
          "type": "uint256"
        }
      ],
      "stateMutability": "view",
      "type": "function"
    },
    {
      "inputs": [],
      "name": "renounceOwnership",
      "outputs": [],
      "stateMutability": "nonpayable",
      "type": "function"
    },
    {
      "inputs": [],
      "name": "rewardPool",
      "outputs": [
        {
          "internalType": "address",
          "name": "",
          "type": "address"
        }
      ],
      "stateMutability": "view",
      "type": "function"
    },
    {
      "inputs": [],
      "name": "rewardPoolMintedSupply",
      "outputs": [
        {
          "internalType": "uint256",
          "name": "",
          "type": "uint256"
        }
      ],
      "stateMutability": "view",
      "type": "function"
    },
    {
      "inputs": [],
      "name": "symbol",
      "outputs": [
        {
          "internalType": "string",
          "name": "",
          "type": "string"
        }
      ],
      "stateMutability": "view",
      "type": "function"
    },
    {
      "inputs": [],
      "name": "totalSupply",
      "outputs": [
        {
          "internalType": "uint256",
          "name": "",
          "type": "uint256"
        }
      ],
      "stateMutability": "view",
      "type": "function"
    },
    {
      "inputs": [
        {
          "internalType": "address",
          "name": "to",
          "type": "address"
        },
        {
          "internalType": "uint256",
          "name": "value",
          "type": "uint256"
        }
      ],
      "name": "transfer",
      "outputs": [
        {
          "internalType": "bool",
          "name": "",
          "type": "bool"
        }
      ],
      "stateMutability": "nonpayable",
      "type": "function"
    },
    {
      "inputs": [
        {
          "internalType": "address",
          "name": "from",
          "type": "address"
        },
        {
          "internalType": "address",
          "name": "to",
          "type": "address"
        },
        {
          "internalType": "uint256",
          "name": "value",
          "type": "uint256"
        }
      ],
      "name": "transferFrom",
      "outputs": [
        {
          "internalType": "bool",
          "name": "",
          "type": "bool"
        }
      ],
      "stateMutability": "nonpayable",
      "type": "function"
    },
    {
      "inputs": [
        {
          "internalType": "address",
          "name": "newOwner",
          "type": "address"
        }
      ],
      "name": "transferOwnership",
      "outputs": [],
      "stateMutability": "nonpayable",
      "type": "function"
    }
  ],
  "bytecode": "0x6080604052600060075560006008553480156200001b57600080fd5b5060405162002025380380620020258339818101604052810190620000419190620002f0565b806040518060400160405280600581526020017f456b6f6b650000000000000000000000000000000000000000000000000000008152506040518060400160405280600581526020017f454b4f4b450000000000000000000000000000000000000000000000000000008152508160039081620000bf91906200059c565b508060049081620000d191906200059c565b505050600073ffffffffffffffffffffffffffffffffffffffff168173ffffffffffffffffffffffffffffffffffffffff1603620001495760006040517f1e4fbdf700000000000000000000000000000000000000000000000000000000815260040162000140919062000694565b60405180910390fd5b6200015a81620001c060201b60201c565b506008600660146101000a81548160ff021916908360ff1602179055506000600660006101000a81548173ffffffffffffffffffffffffffffffffffffffff021916908373ffffffffffffffffffffffffffffffffffffffff16021790555050620006b1565b6000600560009054906101000a900473ffffffffffffffffffffffffffffffffffffffff16905081600560006101000a81548173ffffffffffffffffffffffffffffffffffffffff021916908373ffffffffffffffffffffffffffffffffffffffff1602179055508173ffffffffffffffffffffffffffffffffffffffff168173ffffffffffffffffffffffffffffffffffffffff167f8be0079c531659141344cd1fd0a4f28419497f9722a3daafe3b4186f6b6457e060405160405180910390a35050565b600080fd5b600073ffffffffffffffffffffffffffffffffffffffff82169050919050565b6000620002b8826200028b565b9050919050565b620002ca81620002ab565b8114620002d657600080fd5b50565b600081519050620002ea81620002bf565b92915050565b60006020828403121562000309576200030862000286565b5b60006200031984828501620002d9565b91505092915050565b600081519050919050565b7f4e487b7100000000000000000000000000000000000000000000000000000000600052604160045260246000fd5b7f4e487b7100000000000000000000000000000000000000000000000000000000600052602260045260246000fd5b60006002820490506001821680620003a457607f821691505b602082108103620003ba57620003b96200035c565b5b50919050565b60008190508160005260206000209050919050565b60006020601f8301049050919050565b600082821b905092915050565b600060088302620004247fffffffffffffffffffffffffffffffffffffffffffffffffffffffffffffffff82620003e5565b620004308683620003e5565b95508019841693508086168417925050509392505050565b6000819050919050565b6000819050919050565b60006200047d62000477620004718462000448565b62000452565b62000448565b9050919050565b6000819050919050565b62000499836200045c565b620004b1620004a88262000484565b848454620003f2565b825550505050565b600090565b620004c8620004b9565b620004d58184846200048e565b505050565b5b81811015620004fd57620004f1600082620004be565b600181019050620004db565b5050565b601f8211156200054c576200051681620003c0565b6200052184620003d5565b8101602085101562000531578190505b620005496200054085620003d5565b830182620004da565b50505b505050565b600082821c905092915050565b6000620005716000198460080262000551565b1980831691505092915050565b60006200058c83836200055e565b9150826002028217905092915050565b620005a78262000322565b67ffffffffffffffff811115620005c357620005c26200032d565b5b620005cf82546200038b565b620005dc82828562000501565b600060209050601f831160018114620006145760008415620005ff578287015190505b6200060b85826200057e565b8655506200067b565b601f1984166200062486620003c0565b60005b828110156200064e5784890151825560018201915060208501945060208101905062000627565b868310156200066e57848901516200066a601f8916826200055e565b8355505b6001600288020188555050505b505050505050565b6200068e81620002ab565b82525050565b6000602082019050620006ab600083018462000683565b92915050565b61196480620006c16000396000f3fe608060405234801561001057600080fd5b50600436106101375760003560e01c806370a08231116100b8578063a9059cbb1161007c578063a9059cbb1461031e578063dd62ed3e1461034e578063de31a6141461037e578063e58306f91461039c578063f2fde38b146103b8578063f4ee93db146103d457610137565b806370a082311461028a578063715018a6146102ba5780638da5cb5b146102c457806395d89b41146102e25780639eb6ab621461030057610137565b806332cb6b0c116100ff57806332cb6b0c146101f6578063473761cc146102145780635f3fe30c1461023257806366666aa9146102505780636eee2dad1461026e57610137565b806306fdde031461013c578063095ea7b31461015a57806318160ddd1461018a57806323b872dd146101a8578063313ce567146101d8575b600080fd5b6101446103f0565b604051610151919061133c565b60405180910390f35b610174600480360381019061016f91906113f7565b610482565b6040516101819190611452565b60405180910390f35b6101926104a5565b60405161019f919061147c565b60405180910390f35b6101c260048036038101906101bd9190611497565b6104af565b6040516101cf9190611452565b60405180910390f35b6101e06104de565b6040516101ed9190611506565b60405180910390f35b6101fe6104f5565b60405161020b919061147c565b60405180910390f35b61021c610500565b604051610229919061147c565b60405180910390f35b61023a610506565b604051610247919061147c565b60405180910390f35b610258610510565b6040516102659190611530565b60405180910390f35b610288600480360381019061028391906113f7565b610536565b005b6102a4600480360381019061029f919061154b565b610748565b6040516102b1919061147c565b60405180910390f35b6102c2610790565b005b6102cc6107a4565b6040516102d99190611530565b60405180910390f35b6102ea6107ce565b6040516102f7919061133c565b60405180910390f35b610308610860565b604051610315919061147c565b60405180910390f35b610338600480360381019061033391906113f7565b61087c565b6040516103459190611452565b60405180910390f35b61036860048036038101906103639190611578565b61089f565b604051610375919061147c565b60405180910390f35b610386610926565b604051610393919061147c565b60405180910390f35b6103b660048036038101906103b191906113f7565b61092c565b005b6103d260048036038101906103cd919061154b565b610a6d565b005b6103ee60048036038101906103e9919061154b565b610af3565b005b6060600380546103ff906115e7565b80601f016020809104026020016040519081016040528092919081815260200182805461042b906115e7565b80156104785780601f1061044d57610100808354040283529160200191610478565b820191906000526020600020905b81548152906001019060200180831161045b57829003601f168201915b5050505050905090565b60008061048d610b3f565b905061049a818585610b47565b600191505092915050565b6000600254905090565b6000806104ba610b3f565b90506104c7858285610b59565b6104d2858585610bed565b60019150509392505050565b6000600660149054906101000a900460ff16905090565b660327a3f6a0874081565b60075481565b65065dd083700081565b600660009054906101000a900473ffffffffffffffffffffffffffffffffffffffff1681565b600660009054906101000a900473ffffffffffffffffffffffffffffffffffffffff1673ffffffffffffffffffffffffffffffffffffffff163373ffffffffffffffffffffffffffffffffffffffff161480156105e25750600073ffffffffffffffffffffffffffffffffffffffff16600660009054906101000a900473ffffffffffffffffffffffffffffffffffffffff1673ffffffffffffffffffffffffffffffffffffffff1614155b610621576040517f08c379a00000000000000000000000000000000000000000000000000000000081526004016106189061168a565b60405180910390fd5b65065dd08370008160075461063691906116d9565b1115610677576040517f08c379a000000000000000000000000000000000000000000000000000000000815260040161066e9061177f565b60405180910390fd5b660327a3f6a08740816106886104a5565b61069291906116d9565b11156106d3576040517f08c379a00000000000000000000000000000000000000000000000000000000081526004016106ca90611811565b60405180910390fd5b6106dd8282610ce1565b80600760008282546106ef91906116d9565b925050819055508173ffffffffffffffffffffffffffffffffffffffff167fe8ea3d4dd0a2eaaf3f7532ad391255544f8a4bcf78f850bbff61d5bac9f775528260405161073c919061147c565b60405180910390a25050565b60008060008373ffffffffffffffffffffffffffffffffffffffff1673ffffffffffffffffffffffffffffffffffffffff168152602001908152602001600020549050919050565b610798610d63565b6107a26000610dea565b565b6000600560009054906101000a900473ffffffffffffffffffffffffffffffffffffffff16905090565b6060600480546107dd906115e7565b80601f0160208091040260200160405190810160405280929190818152602001828054610809906115e7565b80156108565780601f1061082b57610100808354040283529160200191610856565b820191906000526020600020905b81548152906001019060200180831161083957829003601f168201915b5050505050905090565b65065dd0837000660327a3f6a087406108799190611831565b81565b600080610887610b3f565b9050610894818585610bed565b600191505092915050565b6000600160008473ffffffffffffffffffffffffffffffffffffffff1673ffffffffffffffffffffffffffffffffffffffff16815260200190815260200160002060008373ffffffffffffffffffffffffffffffffffffffff1673ffffffffffffffffffffffffffffffffffffffff16815260200190815260200160002054905092915050565b60085481565b610934610d63565b65065dd0837000660327a3f6a0874061094d9190611831565b8160085461095b91906116d9565b111561099c576040517f08c379a0000000000000000000000000000000000000000000000000000000008152600401610993906118d7565b60405180910390fd5b660327a3f6a08740816109ad6104a5565b6109b791906116d9565b11156109f8576040517f08c379a00000000000000000000000000000000000000000000000000000000081526004016109ef90611811565b60405180910390fd5b610a028282610ce1565b8060086000828254610a1491906116d9565b925050819055508173ffffffffffffffffffffffffffffffffffffffff167fb50eb0c1f59aa2c3398e720d868b9224179e36125bff674d6df4bae98b2591a582604051610a61919061147c565b60405180910390a25050565b610a75610d63565b600073ffffffffffffffffffffffffffffffffffffffff168173ffffffffffffffffffffffffffffffffffffffff1603610ae75760006040517f1e4fbdf7000000000000000000000000000000000000000000000000000000008152600401610ade9190611530565b60405180910390fd5b610af081610dea565b50565b610afb610d63565b80600660006101000a81548173ffffffffffffffffffffffffffffffffffffffff021916908373ffffffffffffffffffffffffffffffffffffffff16021790555050565b600033905090565b610b548383836001610eb0565b505050565b6000610b65848461089f565b90507fffffffffffffffffffffffffffffffffffffffffffffffffffffffffffffffff8114610be75781811015610bd7578281836040517ffb8f41b2000000000000000000000000000000000000000000000000000000008152600401610bce939291906118f7565b60405180910390fd5b610be684848484036000610eb0565b5b50505050565b600073ffffffffffffffffffffffffffffffffffffffff168373ffffffffffffffffffffffffffffffffffffffff1603610c5f5760006040517f96c6fd1e000000000000000000000000000000000000000000000000000000008152600401610c569190611530565b60405180910390fd5b600073ffffffffffffffffffffffffffffffffffffffff168273ffffffffffffffffffffffffffffffffffffffff1603610cd15760006040517fec442f05000000000000000000000000000000000000000000000000000000008152600401610cc89190611530565b60405180910390fd5b610cdc838383611087565b505050565b600073ffffffffffffffffffffffffffffffffffffffff168273ffffffffffffffffffffffffffffffffffffffff1603610d535760006040517fec442f05000000000000000000000000000000000000000000000000000000008152600401610d4a9190611530565b60405180910390fd5b610d5f60008383611087565b5050565b610d6b610b3f565b73ffffffffffffffffffffffffffffffffffffffff16610d896107a4565b73ffffffffffffffffffffffffffffffffffffffff1614610de857610dac610b3f565b6040517f118cdaa7000000000000000000000000000000000000000000000000000000008152600401610ddf9190611530565b60405180910390fd5b565b6000600560009054906101000a900473ffffffffffffffffffffffffffffffffffffffff16905081600560006101000a81548173ffffffffffffffffffffffffffffffffffffffff021916908373ffffffffffffffffffffffffffffffffffffffff1602179055508173ffffffffffffffffffffffffffffffffffffffff168173ffffffffffffffffffffffffffffffffffffffff167f8be0079c531659141344cd1fd0a4f28419497f9722a3daafe3b4186f6b6457e060405160405180910390a35050565b600073ffffffffffffffffffffffffffffffffffffffff168473ffffffffffffffffffffffffffffffffffffffff1603610f225760006040517fe602df05000000000000000000000000000000000000000000000000000000008152600401610f199190611530565b60405180910390fd5b600073ffffffffffffffffffffffffffffffffffffffff168373ffffffffffffffffffffffffffffffffffffffff1603610f945760006040517f94280d62000000000000000000000000000000000000000000000000000000008152600401610f8b9190611530565b60405180910390fd5b81600160008673ffffffffffffffffffffffffffffffffffffffff1673ffffffffffffffffffffffffffffffffffffffff16815260200190815260200160002060008573ffffffffffffffffffffffffffffffffffffffff1673ffffffffffffffffffffffffffffffffffffffff168152602001908152602001600020819055508015611081578273ffffffffffffffffffffffffffffffffffffffff168473ffffffffffffffffffffffffffffffffffffffff167f8c5be1e5ebec7d5bd14f71427d1e84f3dd0314c0f7b2291e5b200ac8c7c3b92584604051611078919061147c565b60405180910390a35b50505050565b600073ffffffffffffffffffffffffffffffffffffffff168373ffffffffffffffffffffffffffffffffffffffff16036110d95780600260008282546110cd91906116d9565b925050819055506111ac565b60008060008573ffffffffffffffffffffffffffffffffffffffff1673ffffffffffffffffffffffffffffffffffffffff16815260200190815260200160002054905081811015611165578381836040517fe450d38c00000000000000000000000000000000000000000000000000000000815260040161115c939291906118f7565b60405180910390fd5b8181036000808673ffffffffffffffffffffffffffffffffffffffff1673ffffffffffffffffffffffffffffffffffffffff16815260200190815260200160002081905550505b600073ffffffffffffffffffffffffffffffffffffffff168273ffffffffffffffffffffffffffffffffffffffff16036111f55780600260008282540392505081905550611242565b806000808473ffffffffffffffffffffffffffffffffffffffff1673ffffffffffffffffffffffffffffffffffffffff168152602001908152602001600020600082825401925050819055505b8173ffffffffffffffffffffffffffffffffffffffff168373ffffffffffffffffffffffffffffffffffffffff167fddf252ad1be2c89b69c2b068fc378daa952ba7f163c4a11628f55a4df523b3ef8360405161129f919061147c565b60405180910390a3505050565b600081519050919050565b600082825260208201905092915050565b60005b838110156112e65780820151818401526020810190506112cb565b60008484015250505050565b6000601f19601f8301169050919050565b600061130e826112ac565b61131881856112b7565b93506113288185602086016112c8565b611331816112f2565b840191505092915050565b600060208201905081810360008301526113568184611303565b905092915050565b600080fd5b600073ffffffffffffffffffffffffffffffffffffffff82169050919050565b600061138e82611363565b9050919050565b61139e81611383565b81146113a957600080fd5b50565b6000813590506113bb81611395565b92915050565b6000819050919050565b6113d4816113c1565b81146113df57600080fd5b50565b6000813590506113f1816113cb565b92915050565b6000806040838503121561140e5761140d61135e565b5b600061141c858286016113ac565b925050602061142d858286016113e2565b9150509250929050565b60008115159050919050565b61144c81611437565b82525050565b60006020820190506114676000830184611443565b92915050565b611476816113c1565b82525050565b6000602082019050611491600083018461146d565b92915050565b6000806000606084860312156114b0576114af61135e565b5b60006114be868287016113ac565b93505060206114cf868287016113ac565b92505060406114e0868287016113e2565b9150509250925092565b600060ff82169050919050565b611500816114ea565b82525050565b600060208201905061151b60008301846114f7565b92915050565b61152a81611383565b82525050565b60006020820190506115456000830184611521565b92915050565b6000602082840312156115615761156061135e565b5b600061156f848285016113ac565b91505092915050565b6000806040838503121561158f5761158e61135e565b5b600061159d858286016113ac565b92505060206115ae858286016113ac565b9150509250929050565b7f4e487b7100000000000000000000000000000000000000000000000000000000600052602260045260246000fd5b600060028204905060018216806115ff57607f821691505b602082108103611612576116116115b8565b5b50919050565b7f456b6f6b653a2063616c6c6572206973206e6f7420746865207265776172642060008201527f706f6f6c00000000000000000000000000000000000000000000000000000000602082015250565b60006116746024836112b7565b915061167f82611618565b604082019050919050565b600060208201905081810360008301526116a381611667565b9050919050565b7f4e487b7100000000000000000000000000000000000000000000000000000000600052601160045260246000fd5b60006116e4826113c1565b91506116ef836113c1565b9250828201905080821115611707576117066116aa565b5b92915050565b7f456b6f6b653a2072657761726420706f6f6c206d696e74696e67206c696d697460008201527f2072656163686564000000000000000000000000000000000000000000000000602082015250565b60006117696028836112b7565b91506117748261170d565b604082019050919050565b600060208201905081810360008301526117988161175c565b9050919050565b7f456b6f6b653a20746f74616c20737570706c792077696c6c206578636565642060008201527f746865206d6178696d756d20737570706c790000000000000000000000000000602082015250565b60006117fb6032836112b7565b91506118068261179f565b604082019050919050565b6000602082019050818103600083015261182a816117ee565b9050919050565b600061183c826113c1565b9150611847836113c1565b925082820390508181111561185f5761185e6116aa565b5b92915050565b7f456b6f6b653a206f776e6572206d696e74696e67206c696d697420726561636860008201527f6564000000000000000000000000000000000000000000000000000000000000602082015250565b60006118c16022836112b7565b91506118cc82611865565b604082019050919050565b600060208201905081810360008301526118f0816118b4565b9050919050565b600060608201905061190c6000830186611521565b611919602083018561146d565b611926604083018461146d565b94935050505056fea2646970667358221220e470270b1d2e8626ef29c4ddc493653ce266b8692d12803c277d013a61e52a2364736f6c63430008140033",
  "linkReferences": {},
  "deployedLinkReferences": {}
}