{
  "_format": "hh-sol-artifact-1",
  "contractName": "Ekoke",
  "sourceName": "contracts/Ekoke.sol",
  "abi": [
    {
      "inputs": [
        {
          "internalType": "address",
          "name": "_initialOwner",
          "type": "address"
        }
      ],
      "stateMutability": "nonpayable",
      "type": "constructor"
    },
    {
      "inputs": [
        {
          "internalType": "address",
          "name": "spender",
          "type": "address"
        },
        {
          "internalType": "uint256",
          "name": "allowance",
          "type": "uint256"
        },
        {
          "internalType": "uint256",
          "name": "needed",
          "type": "uint256"
        }
      ],
      "name": "ERC20InsufficientAllowance",
      "type": "error"
    },
    {
      "inputs": [
        {
          "internalType": "address",
          "name": "sender",
          "type": "address"
        },
        {
          "internalType": "uint256",
          "name": "balance",
          "type": "uint256"
        },
        {
          "internalType": "uint256",
          "name": "needed",
          "type": "uint256"
        }
      ],
      "name": "ERC20InsufficientBalance",
      "type": "error"
    },
    {
      "inputs": [
        {
          "internalType": "address",
          "name": "approver",
          "type": "address"
        }
      ],
      "name": "ERC20InvalidApprover",
      "type": "error"
    },
    {
      "inputs": [
        {
          "internalType": "address",
          "name": "receiver",
          "type": "address"
        }
      ],
      "name": "ERC20InvalidReceiver",
      "type": "error"
    },
    {
      "inputs": [
        {
          "internalType": "address",
          "name": "sender",
          "type": "address"
        }
      ],
      "name": "ERC20InvalidSender",
      "type": "error"
    },
    {
      "inputs": [
        {
          "internalType": "address",
          "name": "spender",
          "type": "address"
        }
      ],
      "name": "ERC20InvalidSpender",
      "type": "error"
    },
    {
      "inputs": [
        {
          "internalType": "address",
          "name": "owner",
          "type": "address"
        }
      ],
      "name": "OwnableInvalidOwner",
      "type": "error"
    },
    {
      "inputs": [
        {
          "internalType": "address",
          "name": "account",
          "type": "address"
        }
      ],
      "name": "OwnableUnauthorizedAccount",
      "type": "error"
    },
    {
      "anonymous": false,
      "inputs": [
        {
          "indexed": true,
          "internalType": "address",
          "name": "owner",
          "type": "address"
        },
        {
          "indexed": true,
          "internalType": "address",
          "name": "spender",
          "type": "address"
        },
        {
          "indexed": false,
          "internalType": "uint256",
          "name": "value",
          "type": "uint256"
        }
      ],
      "name": "Approval",
      "type": "event"
    },
    {
      "anonymous": false,
      "inputs": [
        {
          "indexed": true,
          "internalType": "address",
          "name": "_to",
          "type": "address"
        },
        {
          "indexed": false,
          "internalType": "uint256",
          "name": "_amount",
          "type": "uint256"
        }
      ],
      "name": "OwnerMinted",
      "type": "event"
    },
    {
      "anonymous": false,
      "inputs": [
        {
          "indexed": true,
          "internalType": "address",
          "name": "previousOwner",
          "type": "address"
        },
        {
          "indexed": true,
          "internalType": "address",
          "name": "newOwner",
          "type": "address"
        }
      ],
      "name": "OwnershipTransferred",
      "type": "event"
    },
    {
      "anonymous": false,
      "inputs": [
        {
          "indexed": true,
          "internalType": "address",
          "name": "_to",
          "type": "address"
        },
        {
          "indexed": false,
          "internalType": "uint256",
          "name": "_amount",
          "type": "uint256"
        }
      ],
      "name": "RewardMinted",
      "type": "event"
    },
    {
      "anonymous": false,
      "inputs": [
        {
          "indexed": true,
          "internalType": "address",
          "name": "from",
          "type": "address"
        },
        {
          "indexed": true,
          "internalType": "address",
          "name": "to",
          "type": "address"
        },
        {
          "indexed": false,
          "internalType": "uint256",
          "name": "value",
          "type": "uint256"
        }
      ],
      "name": "Transfer",
      "type": "event"
    },
    {
      "inputs": [],
      "name": "MAX_OWNER_MINT",
      "outputs": [
        {
          "internalType": "uint256",
          "name": "",
          "type": "uint256"
        }
      ],
      "stateMutability": "view",
      "type": "function"
    },
    {
      "inputs": [],
      "name": "MAX_REWARD_POOL_MINT",
      "outputs": [
        {
          "internalType": "uint256",
          "name": "",
          "type": "uint256"
        }
      ],
      "stateMutability": "view",
      "type": "function"
    },
    {
      "inputs": [],
      "name": "MAX_SUPPLY",
      "outputs": [
        {
          "internalType": "uint256",
          "name": "",
          "type": "uint256"
        }
      ],
      "stateMutability": "view",
      "type": "function"
    },
    {
      "inputs": [
        {
          "internalType": "address",
          "name": "_recipient",
          "type": "address"
        },
        {
          "internalType": "uint256",
          "name": "_amount",
          "type": "uint256"
        }
      ],
      "name": "adminMint",
      "outputs": [],
      "stateMutability": "nonpayable",
      "type": "function"
    },
    {
      "inputs": [
        {
          "internalType": "address",
          "name": "_reward_pool_address",
          "type": "address"
        }
      ],
      "name": "adminSetRewardPoolAddress",
      "outputs": [],
      "stateMutability": "nonpayable",
      "type": "function"
    },
    {
      "inputs": [
        {
          "internalType": "address",
          "name": "owner",
          "type": "address"
        },
        {
          "internalType": "address",
          "name": "spender",
          "type": "address"
        }
      ],
      "name": "allowance",
      "outputs": [
        {
          "internalType": "uint256",
          "name": "",
          "type": "uint256"
        }
      ],
      "stateMutability": "view",
      "type": "function"
    },
    {
      "inputs": [
        {
          "internalType": "address",
          "name": "spender",
          "type": "address"
        },
        {
          "internalType": "uint256",
          "name": "value",
          "type": "uint256"
        }
      ],
      "name": "approve",
      "outputs": [
        {
          "internalType": "bool",
          "name": "",
          "type": "bool"
        }
      ],
      "stateMutability": "nonpayable",
      "type": "function"
    },
    {
      "inputs": [
        {
          "internalType": "address",
          "name": "account",
          "type": "address"
        }
      ],
      "name": "balanceOf",
      "outputs": [
        {
          "internalType": "uint256",
          "name": "",
          "type": "uint256"
        }
      ],
      "stateMutability": "view",
      "type": "function"
    },
    {
      "inputs": [],
      "name": "decimals",
      "outputs": [
        {
          "internalType": "uint8",
          "name": "",
          "type": "uint8"
        }
      ],
      "stateMutability": "view",
      "type": "function"
    },
    {
      "inputs": [
        {
          "internalType": "address",
          "name": "_to",
          "type": "address"
        },
        {
          "internalType": "uint256",
          "name": "_amount",
          "type": "uint256"
        }
      ],
      "name": "mintRewardTokens",
      "outputs": [],
      "stateMutability": "nonpayable",
      "type": "function"
    },
    {
      "inputs": [],
      "name": "name",
      "outputs": [
        {
          "internalType": "string",
          "name": "",
          "type": "string"
        }
      ],
      "stateMutability": "view",
      "type": "function"
    },
    {
      "inputs": [],
      "name": "owner",
      "outputs": [
        {
          "internalType": "address",
          "name": "",
          "type": "address"
        }
      ],
      "stateMutability": "view",
      "type": "function"
    },
    {
      "inputs": [],
      "name": "ownerMintedSupply",
      "outputs": [
        {
          "internalType": "uint256",
          "name": "",
          "type": "uint256"
        }
      ],
      "stateMutability": "view",
      "type": "function"
    },
    {
      "inputs": [],
      "name": "renounceOwnership",
      "outputs": [],
      "stateMutability": "nonpayable",
      "type": "function"
    },
    {
      "inputs": [],
      "name": "rewardPool",
      "outputs": [
        {
          "internalType": "address",
          "name": "",
          "type": "address"
        }
      ],
      "stateMutability": "view",
      "type": "function"
    },
    {
      "inputs": [],
      "name": "rewardPoolMintedSupply",
      "outputs": [
        {
          "internalType": "uint256",
          "name": "",
          "type": "uint256"
        }
      ],
      "stateMutability": "view",
      "type": "function"
    },
    {
      "inputs": [],
      "name": "symbol",
      "outputs": [
        {
          "internalType": "string",
          "name": "",
          "type": "string"
        }
      ],
      "stateMutability": "view",
      "type": "function"
    },
    {
      "inputs": [],
      "name": "totalSupply",
      "outputs": [
        {
          "internalType": "uint256",
          "name": "",
          "type": "uint256"
        }
      ],
      "stateMutability": "view",
      "type": "function"
    },
    {
      "inputs": [
        {
          "internalType": "address",
          "name": "to",
          "type": "address"
        },
        {
          "internalType": "uint256",
          "name": "value",
          "type": "uint256"
        }
      ],
      "name": "transfer",
      "outputs": [
        {
          "internalType": "bool",
          "name": "",
          "type": "bool"
        }
      ],
      "stateMutability": "nonpayable",
      "type": "function"
    },
    {
      "inputs": [
        {
          "internalType": "address",
          "name": "from",
          "type": "address"
        },
        {
          "internalType": "address",
          "name": "to",
          "type": "address"
        },
        {
          "internalType": "uint256",
          "name": "value",
          "type": "uint256"
        }
      ],
      "name": "transferFrom",
      "outputs": [
        {
          "internalType": "bool",
          "name": "",
          "type": "bool"
        }
      ],
      "stateMutability": "nonpayable",
      "type": "function"
    },
    {
      "inputs": [
        {
          "internalType": "address",
          "name": "newOwner",
          "type": "address"
        }
      ],
      "name": "transferOwnership",
      "outputs": [],
      "stateMutability": "nonpayable",
      "type": "function"
    }
  ],
  "bytecode": "0x60806040526000600755600060085534801561001a57600080fd5b50604051610fdd380380610fdd8339810160408190526100399161013b565b8060405180604001604052806005815260200164456b6f6b6560d81b81525060405180604001604052806005815260200164454b4f4b4560d81b8152508160039081610085919061020a565b506004610092828261020a565b5050506001600160a01b0381166100c357604051631e4fbdf760e01b81526000600482015260240160405180910390fd5b6100cc816100e9565b5050600680546001600160a81b031916600160a31b1790556102c8565b600580546001600160a01b038381166001600160a01b0319831681179093556040519116919082907f8be0079c531659141344cd1fd0a4f28419497f9722a3daafe3b4186f6b6457e090600090a35050565b60006020828403121561014d57600080fd5b81516001600160a01b038116811461016457600080fd5b9392505050565b634e487b7160e01b600052604160045260246000fd5b600181811c9082168061019557607f821691505b6020821081036101b557634e487b7160e01b600052602260045260246000fd5b50919050565b601f82111561020557806000526020600020601f840160051c810160208510156101e25750805b601f840160051c820191505b8181101561020257600081556001016101ee565b50505b505050565b81516001600160401b038111156102235761022361016b565b610237816102318454610181565b846101bb565b6020601f82116001811461026b57600083156102535750848201515b600019600385901b1c1916600184901b178455610202565b600084815260208120601f198516915b8281101561029b578785015182556020948501946001909201910161027b565b50848210156102b95786840151600019600387901b60f8161c191681555b50505050600190811b01905550565b610d06806102d76000396000f3fe608060405234801561001057600080fd5b50600436106101375760003560e01c806370a08231116100b8578063a9059cbb1161007c578063a9059cbb14610278578063dd62ed3e1461028b578063de31a614146102c4578063e58306f9146102cd578063f2fde38b146102e0578063f4ee93db146102f357600080fd5b806370a0823114610226578063715018a61461024f5780638da5cb5b1461025757806395d89b41146102685780639eb6ab621461027057600080fd5b806332cb6b0c116100ff57806332cb6b0c146101c1578063473761cc146101cf5780635f3fe30c146101d857806366666aa9146101e65780636eee2dad1461021157600080fd5b806306fdde031461013c578063095ea7b31461015a57806318160ddd1461017d57806323b872dd1461018f578063313ce567146101a2575b600080fd5b610144610306565b6040516101519190610ae2565b60405180910390f35b61016d610168366004610b4c565b610398565b6040519015158152602001610151565b6002545b604051908152602001610151565b61016d61019d366004610b76565b6103b2565b600654600160a01b900460ff1660405160ff9091168152602001610151565b610181660327a3f6a0874081565b61018160075481565b61018166027ca57357c00081565b6006546101f9906001600160a01b031681565b6040516001600160a01b039091168152602001610151565b61022461021f366004610b4c565b6103d6565b005b610181610234366004610bb3565b6001600160a01b031660009081526020819052604090205490565b61022461056a565b6005546001600160a01b03166101f9565b61014461057e565b61018161058d565b61016d610286366004610b4c565b6105a8565b610181610299366004610bd5565b6001600160a01b03918216600090815260016020908152604080832093909416825291909152205490565b61018160085481565b6102246102db366004610b4c565b6105b6565b6102246102ee366004610bb3565b6106d3565b610224610301366004610bb3565b610711565b60606003805461031590610c08565b80601f016020809104026020016040519081016040528092919081815260200182805461034190610c08565b801561038e5780601f106103635761010080835404028352916020019161038e565b820191906000526020600020905b81548152906001019060200180831161037157829003601f168201915b5050505050905090565b6000336103a681858561073b565b60019150505b92915050565b6000336103c085828561074d565b6103cb8585856107cb565b506001949350505050565b6006546001600160a01b0316331480156103fa57506006546001600160a01b031615155b6104575760405162461bcd60e51b8152602060048201526024808201527f456b6f6b653a2063616c6c6572206973206e6f742074686520726577617264206044820152631c1bdbdb60e21b60648201526084015b60405180910390fd5b66027ca57357c0008160075461046d9190610c58565b11156104cc5760405162461bcd60e51b815260206004820152602860248201527f456b6f6b653a2072657761726420706f6f6c206d696e74696e67206c696d6974604482015267081c995858da195960c21b606482015260840161044e565b660327a3f6a08740816104de60025490565b6104e89190610c58565b11156105065760405162461bcd60e51b815260040161044e90610c6b565b610510828261082a565b80600760008282546105229190610c58565b90915550506040518181526001600160a01b038316907fe8ea3d4dd0a2eaaf3f7532ad391255544f8a4bcf78f850bbff61d5bac9f77552906020015b60405180910390a25050565b610572610864565b61057c6000610891565b565b60606004805461031590610c08565b6105a566027ca57357c000660327a3f6a08740610cbd565b81565b6000336103a68185856107cb565b6105be610864565b6105d666027ca57357c000660327a3f6a08740610cbd565b816008546105e49190610c58565b111561063d5760405162461bcd60e51b815260206004820152602260248201527f456b6f6b653a206f776e6572206d696e74696e67206c696d6974207265616368604482015261195960f21b606482015260840161044e565b660327a3f6a087408161064f60025490565b6106599190610c58565b11156106775760405162461bcd60e51b815260040161044e90610c6b565b610681828261082a565b80600860008282546106939190610c58565b90915550506040518181526001600160a01b038316907fb50eb0c1f59aa2c3398e720d868b9224179e36125bff674d6df4bae98b2591a59060200161055e565b6106db610864565b6001600160a01b03811661070557604051631e4fbdf760e01b81526000600482015260240161044e565b61070e81610891565b50565b610719610864565b600680546001600160a01b0319166001600160a01b0392909216919091179055565b61074883838360016108e3565b505050565b6001600160a01b0383811660009081526001602090815260408083209386168352929052205460001981146107c557818110156107b657604051637dc7a0d960e11b81526001600160a01b0384166004820152602481018290526044810183905260640161044e565b6107c5848484840360006108e3565b50505050565b6001600160a01b0383166107f557604051634b637e8f60e11b81526000600482015260240161044e565b6001600160a01b03821661081f5760405163ec442f0560e01b81526000600482015260240161044e565b6107488383836109b8565b6001600160a01b0382166108545760405163ec442f0560e01b81526000600482015260240161044e565b610860600083836109b8565b5050565b6005546001600160a01b0316331461057c5760405163118cdaa760e01b815233600482015260240161044e565b600580546001600160a01b038381166001600160a01b0319831681179093556040519116919082907f8be0079c531659141344cd1fd0a4f28419497f9722a3daafe3b4186f6b6457e090600090a35050565b6001600160a01b03841661090d5760405163e602df0560e01b81526000600482015260240161044e565b6001600160a01b03831661093757604051634a1406b160e11b81526000600482015260240161044e565b6001600160a01b03808516600090815260016020908152604080832093871683529290522082905580156107c557826001600160a01b0316846001600160a01b03167f8c5be1e5ebec7d5bd14f71427d1e84f3dd0314c0f7b2291e5b200ac8c7c3b925846040516109aa91815260200190565b60405180910390a350505050565b6001600160a01b0383166109e35780600260008282546109d89190610c58565b90915550610a559050565b6001600160a01b03831660009081526020819052604090205481811015610a365760405163391434e360e21b81526001600160a01b0385166004820152602481018290526044810183905260640161044e565b6001600160a01b03841660009081526020819052604090209082900390555b6001600160a01b038216610a7157600280548290039055610a90565b6001600160a01b03821660009081526020819052604090208054820190555b816001600160a01b0316836001600160a01b03167fddf252ad1be2c89b69c2b068fc378daa952ba7f163c4a11628f55a4df523b3ef83604051610ad591815260200190565b60405180910390a3505050565b602081526000825180602084015260005b81811015610b105760208186018101516040868401015201610af3565b506000604082850101526040601f19601f83011684010191505092915050565b80356001600160a01b0381168114610b4757600080fd5b919050565b60008060408385031215610b5f57600080fd5b610b6883610b30565b946020939093013593505050565b600080600060608486031215610b8b57600080fd5b610b9484610b30565b9250610ba260208501610b30565b929592945050506040919091013590565b600060208284031215610bc557600080fd5b610bce82610b30565b9392505050565b60008060408385031215610be857600080fd5b610bf183610b30565b9150610bff60208401610b30565b90509250929050565b600181811c90821680610c1c57607f821691505b602082108103610c3c57634e487b7160e01b600052602260045260246000fd5b50919050565b634e487b7160e01b600052601160045260246000fd5b808201808211156103ac576103ac610c42565b60208082526032908201527f456b6f6b653a20746f74616c20737570706c792077696c6c2065786365656420604082015271746865206d6178696d756d20737570706c7960701b606082015260800190565b818103818111156103ac576103ac610c4256fea26469706673582212206e822a43f4ac0f804bec36e0c6793764848c181541dfb1ca1e59ca5f77a8e33064736f6c634300081c0033",
  "linkReferences": {},
  "deployedLinkReferences": {}
}