{
  "_format": "hh-sol-artifact-1",
  "contractName": "Ekoke",
  "sourceName": "contracts/Ekoke.sol",
  "abi": [
    {
      "inputs": [
        {
          "internalType": "address",
          "name": "_initialOwner",
          "type": "address"
        }
      ],
      "stateMutability": "nonpayable",
      "type": "constructor"
    },
    {
      "inputs": [
        {
          "internalType": "address",
          "name": "spender",
          "type": "address"
        },
        {
          "internalType": "uint256",
          "name": "allowance",
          "type": "uint256"
        },
        {
          "internalType": "uint256",
          "name": "needed",
          "type": "uint256"
        }
      ],
      "name": "ERC20InsufficientAllowance",
      "type": "error"
    },
    {
      "inputs": [
        {
          "internalType": "address",
          "name": "sender",
          "type": "address"
        },
        {
          "internalType": "uint256",
          "name": "balance",
          "type": "uint256"
        },
        {
          "internalType": "uint256",
          "name": "needed",
          "type": "uint256"
        }
      ],
      "name": "ERC20InsufficientBalance",
      "type": "error"
    },
    {
      "inputs": [
        {
          "internalType": "address",
          "name": "approver",
          "type": "address"
        }
      ],
      "name": "ERC20InvalidApprover",
      "type": "error"
    },
    {
      "inputs": [
        {
          "internalType": "address",
          "name": "receiver",
          "type": "address"
        }
      ],
      "name": "ERC20InvalidReceiver",
      "type": "error"
    },
    {
      "inputs": [
        {
          "internalType": "address",
          "name": "sender",
          "type": "address"
        }
      ],
      "name": "ERC20InvalidSender",
      "type": "error"
    },
    {
      "inputs": [
        {
          "internalType": "address",
          "name": "spender",
          "type": "address"
        }
      ],
      "name": "ERC20InvalidSpender",
      "type": "error"
    },
    {
      "inputs": [
        {
          "internalType": "address",
          "name": "owner",
          "type": "address"
        }
      ],
      "name": "OwnableInvalidOwner",
      "type": "error"
    },
    {
      "inputs": [
        {
          "internalType": "address",
          "name": "account",
          "type": "address"
        }
      ],
      "name": "OwnableUnauthorizedAccount",
      "type": "error"
    },
    {
      "anonymous": false,
      "inputs": [
        {
          "indexed": true,
          "internalType": "address",
          "name": "owner",
          "type": "address"
        },
        {
          "indexed": true,
          "internalType": "address",
          "name": "spender",
          "type": "address"
        },
        {
          "indexed": false,
          "internalType": "uint256",
          "name": "value",
          "type": "uint256"
        }
      ],
      "name": "Approval",
      "type": "event"
    },
    {
      "anonymous": false,
      "inputs": [
        {
          "indexed": true,
          "internalType": "address",
          "name": "_to",
          "type": "address"
        },
        {
          "indexed": false,
          "internalType": "uint256",
          "name": "_amount",
          "type": "uint256"
        }
      ],
      "name": "OwnerMinted",
      "type": "event"
    },
    {
      "anonymous": false,
      "inputs": [
        {
          "indexed": true,
          "internalType": "address",
          "name": "previousOwner",
          "type": "address"
        },
        {
          "indexed": true,
          "internalType": "address",
          "name": "newOwner",
          "type": "address"
        }
      ],
      "name": "OwnershipTransferred",
      "type": "event"
    },
    {
      "anonymous": false,
      "inputs": [
        {
          "indexed": true,
          "internalType": "address",
          "name": "_to",
          "type": "address"
        },
        {
          "indexed": false,
          "internalType": "uint256",
          "name": "_amount",
          "type": "uint256"
        }
      ],
      "name": "RewardMinted",
      "type": "event"
    },
    {
      "anonymous": false,
      "inputs": [
        {
          "indexed": true,
          "internalType": "address",
          "name": "from",
          "type": "address"
        },
        {
          "indexed": true,
          "internalType": "address",
          "name": "to",
          "type": "address"
        },
        {
          "indexed": false,
          "internalType": "uint256",
          "name": "value",
          "type": "uint256"
        }
      ],
      "name": "Transfer",
      "type": "event"
    },
    {
      "inputs": [],
      "name": "MAX_OWNER_MINT",
      "outputs": [
        {
          "internalType": "uint256",
          "name": "",
          "type": "uint256"
        }
      ],
      "stateMutability": "view",
      "type": "function"
    },
    {
      "inputs": [],
      "name": "MAX_REWARD_POOL_MINT",
      "outputs": [
        {
          "internalType": "uint256",
          "name": "",
          "type": "uint256"
        }
      ],
      "stateMutability": "view",
      "type": "function"
    },
    {
      "inputs": [],
      "name": "MAX_SUPPLY",
      "outputs": [
        {
          "internalType": "uint256",
          "name": "",
          "type": "uint256"
        }
      ],
      "stateMutability": "view",
      "type": "function"
    },
    {
      "inputs": [
        {
          "internalType": "address",
          "name": "_recipient",
          "type": "address"
        },
        {
          "internalType": "uint256",
          "name": "_amount",
          "type": "uint256"
        }
      ],
      "name": "adminMint",
      "outputs": [],
      "stateMutability": "nonpayable",
      "type": "function"
    },
    {
      "inputs": [
        {
          "internalType": "address",
          "name": "_reward_pool_address",
          "type": "address"
        }
      ],
      "name": "adminSetRewardPoolAddress",
      "outputs": [],
      "stateMutability": "nonpayable",
      "type": "function"
    },
    {
      "inputs": [
        {
          "internalType": "address",
          "name": "owner",
          "type": "address"
        },
        {
          "internalType": "address",
          "name": "spender",
          "type": "address"
        }
      ],
      "name": "allowance",
      "outputs": [
        {
          "internalType": "uint256",
          "name": "",
          "type": "uint256"
        }
      ],
      "stateMutability": "view",
      "type": "function"
    },
    {
      "inputs": [
        {
          "internalType": "address",
          "name": "spender",
          "type": "address"
        },
        {
          "internalType": "uint256",
          "name": "value",
          "type": "uint256"
        }
      ],
      "name": "approve",
      "outputs": [
        {
          "internalType": "bool",
          "name": "",
          "type": "bool"
        }
      ],
      "stateMutability": "nonpayable",
      "type": "function"
    },
    {
      "inputs": [
        {
          "internalType": "address",
          "name": "account",
          "type": "address"
        }
      ],
      "name": "balanceOf",
      "outputs": [
        {
          "internalType": "uint256",
          "name": "",
          "type": "uint256"
        }
      ],
      "stateMutability": "view",
      "type": "function"
    },
    {
      "inputs": [
        {
          "internalType": "uint256",
          "name": "amount",
          "type": "uint256"
        }
      ],
      "name": "burn",
      "outputs": [],
      "stateMutability": "nonpayable",
      "type": "function"
    },
    {
      "inputs": [],
      "name": "decimals",
      "outputs": [
        {
          "internalType": "uint8",
          "name": "",
          "type": "uint8"
        }
      ],
      "stateMutability": "view",
      "type": "function"
    },
    {
      "inputs": [
        {
          "internalType": "address",
          "name": "_to",
          "type": "address"
        },
        {
          "internalType": "uint256",
          "name": "_amount",
          "type": "uint256"
        }
      ],
      "name": "mintRewardTokens",
      "outputs": [],
      "stateMutability": "nonpayable",
      "type": "function"
    },
    {
      "inputs": [],
      "name": "name",
      "outputs": [
        {
          "internalType": "string",
          "name": "",
          "type": "string"
        }
      ],
      "stateMutability": "view",
      "type": "function"
    },
    {
      "inputs": [],
      "name": "owner",
      "outputs": [
        {
          "internalType": "address",
          "name": "",
          "type": "address"
        }
      ],
      "stateMutability": "view",
      "type": "function"
    },
    {
      "inputs": [],
      "name": "ownerMintedSupply",
      "outputs": [
        {
          "internalType": "uint256",
          "name": "",
          "type": "uint256"
        }
      ],
      "stateMutability": "view",
      "type": "function"
    },
    {
      "inputs": [],
      "name": "renounceOwnership",
      "outputs": [],
      "stateMutability": "nonpayable",
      "type": "function"
    },
    {
      "inputs": [],
      "name": "rewardPool",
      "outputs": [
        {
          "internalType": "address",
          "name": "",
          "type": "address"
        }
      ],
      "stateMutability": "view",
      "type": "function"
    },
    {
      "inputs": [],
      "name": "rewardPoolMintedSupply",
      "outputs": [
        {
          "internalType": "uint256",
          "name": "",
          "type": "uint256"
        }
      ],
      "stateMutability": "view",
      "type": "function"
    },
    {
      "inputs": [],
      "name": "symbol",
      "outputs": [
        {
          "internalType": "string",
          "name": "",
          "type": "string"
        }
      ],
      "stateMutability": "view",
      "type": "function"
    },
    {
      "inputs": [],
      "name": "totalSupply",
      "outputs": [
        {
          "internalType": "uint256",
          "name": "",
          "type": "uint256"
        }
      ],
      "stateMutability": "view",
      "type": "function"
    },
    {
      "inputs": [
        {
          "internalType": "address",
          "name": "to",
          "type": "address"
        },
        {
          "internalType": "uint256",
          "name": "value",
          "type": "uint256"
        }
      ],
      "name": "transfer",
      "outputs": [
        {
          "internalType": "bool",
          "name": "",
          "type": "bool"
        }
      ],
      "stateMutability": "nonpayable",
      "type": "function"
    },
    {
      "inputs": [
        {
          "internalType": "address",
          "name": "from",
          "type": "address"
        },
        {
          "internalType": "address",
          "name": "to",
          "type": "address"
        },
        {
          "internalType": "uint256",
          "name": "value",
          "type": "uint256"
        }
      ],
      "name": "transferFrom",
      "outputs": [
        {
          "internalType": "bool",
          "name": "",
          "type": "bool"
        }
      ],
      "stateMutability": "nonpayable",
      "type": "function"
    },
    {
      "inputs": [
        {
          "internalType": "address",
          "name": "newOwner",
          "type": "address"
        }
      ],
      "name": "transferOwnership",
      "outputs": [],
      "stateMutability": "nonpayable",
      "type": "function"
    }
  ],
  "bytecode": "0x60806040526006805460ff60a01b1916600960a01b1790556000600781905560085534801561002d57600080fd5b506040516110e93803806110e983398101604081905261004c91610148565b8060405180604001604052806005815260200164456b6f6b6560d81b81525060405180604001604052806005815260200164454b4f4b4560d81b81525081600390816100989190610217565b5060046100a58282610217565b5050506001600160a01b0381166100d657604051631e4fbdf760e01b81526000600482015260240160405180910390fd5b6100df816100f6565b5050600680546001600160a01b03191690556102d5565b600580546001600160a01b038381166001600160a01b0319831681179093556040519116919082907f8be0079c531659141344cd1fd0a4f28419497f9722a3daafe3b4186f6b6457e090600090a35050565b60006020828403121561015a57600080fd5b81516001600160a01b038116811461017157600080fd5b9392505050565b634e487b7160e01b600052604160045260246000fd5b600181811c908216806101a257607f821691505b6020821081036101c257634e487b7160e01b600052602260045260246000fd5b50919050565b601f82111561021257806000526020600020601f840160051c810160208510156101ef5750805b601f840160051c820191505b8181101561020f57600081556001016101fb565b50505b505050565b81516001600160401b0381111561023057610230610178565b6102448161023e845461018e565b846101c8565b6020601f82116001811461027857600083156102605750848201515b600019600385901b1c1916600184901b17845561020f565b600084815260208120601f198516915b828110156102a85787850151825560209485019460019092019101610288565b50848210156102c65786840151600019600387901b60f8161c191681555b50505050600190811b01905550565b610e05806102e46000396000f3fe608060405234801561001057600080fd5b50600436106101425760003560e01c806370a08231116100b8578063a9059cbb1161007c578063a9059cbb14610296578063dd62ed3e146102a9578063de31a614146102e2578063e58306f9146102eb578063f2fde38b146102fe578063f4ee93db1461031157600080fd5b806370a0823114610244578063715018a61461026d5780638da5cb5b1461027557806395d89b41146102865780639eb6ab621461028e57600080fd5b806332cb6b0c1161010a57806332cb6b0c146101cc57806342966c68146101da578063473761cc146101ef5780635f3fe30c146101f857806366666aa9146102065780636eee2dad1461023157600080fd5b806306fdde0314610147578063095ea7b31461016557806318160ddd1461018857806323b872dd1461019a578063313ce567146101ad575b600080fd5b61014f610324565b60405161015c9190610bc8565b60405180910390f35b610178610173366004610c32565b6103b6565b604051901515815260200161015c565b6002545b60405190815260200161015c565b6101786101a8366004610c5c565b6103d0565b600654600160a01b900460ff1660405160ff909116815260200161015c565b61018c661f8c67a245488081565b6101ed6101e8366004610c99565b6103f4565b005b61018c60075481565b61018c6615084516d8db0081565b600654610219906001600160a01b031681565b6040516001600160a01b03909116815260200161015c565b6101ed61023f366004610c32565b61048b565b61018c610252366004610cb2565b6001600160a01b031660009081526020819052604090205490565b6101ed61061a565b6005546001600160a01b0316610219565b61014f61062e565b61018c61063d565b6101786102a4366004610c32565b610658565b61018c6102b7366004610cd4565b6001600160a01b03918216600090815260016020908152604080832093909416825291909152205490565b61018c60085481565b6101ed6102f9366004610c32565b610666565b6101ed61030c366004610cb2565b610783565b6101ed61031f366004610cb2565b6107c1565b60606003805461033390610d07565b80601f016020809104026020016040519081016040528092919081815260200182805461035f90610d07565b80156103ac5780601f10610381576101008083540402835291602001916103ac565b820191906000526020600020905b81548152906001019060200180831161038f57829003601f168201915b5050505050905090565b6000336103c48185856107eb565b60019150505b92915050565b6000336103de8582856107fd565b6103e985858561087b565b506001949350505050565b6007548111156104675760405162461bcd60e51b815260206004820152603360248201527f456b6f6b653a20616d6f756e742065786365656473207468652072657761726460448201527220706f6f6c206d696e74656420737570706c7960681b60648201526084015b60405180910390fd5b61047133826108da565b80600760008282546104839190610d57565b909155505050565b6006546001600160a01b0316331480156104af57506006546001600160a01b031615155b6105075760405162461bcd60e51b8152602060048201526024808201527f456b6f6b653a2063616c6c6572206973206e6f742074686520726577617264206044820152631c1bdbdb60e21b606482015260840161045e565b6615084516d8db008160075461051d9190610d6a565b111561057c5760405162461bcd60e51b815260206004820152602860248201527f456b6f6b653a2072657761726420706f6f6c206d696e74696e67206c696d6974604482015267081c995858da195960c21b606482015260840161045e565b661f8c67a24548808161058e60025490565b6105989190610d6a565b11156105b65760405162461bcd60e51b815260040161045e90610d7d565b6105c08282610914565b80600760008282546105d29190610d6a565b90915550506040518181526001600160a01b038316907fe8ea3d4dd0a2eaaf3f7532ad391255544f8a4bcf78f850bbff61d5bac9f77552906020015b60405180910390a25050565b61062261094a565b61062c6000610977565b565b60606004805461033390610d07565b6106556615084516d8db00661f8c67a2454880610d57565b81565b6000336103c481858561087b565b61066e61094a565b6106866615084516d8db00661f8c67a2454880610d57565b816008546106949190610d6a565b11156106ed5760405162461bcd60e51b815260206004820152602260248201527f456b6f6b653a206f776e6572206d696e74696e67206c696d6974207265616368604482015261195960f21b606482015260840161045e565b661f8c67a2454880816106ff60025490565b6107099190610d6a565b11156107275760405162461bcd60e51b815260040161045e90610d7d565b6107318282610914565b80600860008282546107439190610d6a565b90915550506040518181526001600160a01b038316907fb50eb0c1f59aa2c3398e720d868b9224179e36125bff674d6df4bae98b2591a59060200161060e565b61078b61094a565b6001600160a01b0381166107b557604051631e4fbdf760e01b81526000600482015260240161045e565b6107be81610977565b50565b6107c961094a565b600680546001600160a01b0319166001600160a01b0392909216919091179055565b6107f883838360016109c9565b505050565b6001600160a01b038381166000908152600160209081526040808320938616835292905220546000198114610875578181101561086657604051637dc7a0d960e11b81526001600160a01b0384166004820152602481018290526044810183905260640161045e565b610875848484840360006109c9565b50505050565b6001600160a01b0383166108a557604051634b637e8f60e11b81526000600482015260240161045e565b6001600160a01b0382166108cf5760405163ec442f0560e01b81526000600482015260240161045e565b6107f8838383610a9e565b6001600160a01b03821661090457604051634b637e8f60e11b81526000600482015260240161045e565b61091082600083610a9e565b5050565b6001600160a01b03821661093e5760405163ec442f0560e01b81526000600482015260240161045e565b61091060008383610a9e565b6005546001600160a01b0316331461062c5760405163118cdaa760e01b815233600482015260240161045e565b600580546001600160a01b038381166001600160a01b0319831681179093556040519116919082907f8be0079c531659141344cd1fd0a4f28419497f9722a3daafe3b4186f6b6457e090600090a35050565b6001600160a01b0384166109f35760405163e602df0560e01b81526000600482015260240161045e565b6001600160a01b038316610a1d57604051634a1406b160e11b81526000600482015260240161045e565b6001600160a01b038085166000908152600160209081526040808320938716835292905220829055801561087557826001600160a01b0316846001600160a01b03167f8c5be1e5ebec7d5bd14f71427d1e84f3dd0314c0f7b2291e5b200ac8c7c3b92584604051610a9091815260200190565b60405180910390a350505050565b6001600160a01b038316610ac9578060026000828254610abe9190610d6a565b90915550610b3b9050565b6001600160a01b03831660009081526020819052604090205481811015610b1c5760405163391434e360e21b81526001600160a01b0385166004820152602481018290526044810183905260640161045e565b6001600160a01b03841660009081526020819052604090209082900390555b6001600160a01b038216610b5757600280548290039055610b76565b6001600160a01b03821660009081526020819052604090208054820190555b816001600160a01b0316836001600160a01b03167fddf252ad1be2c89b69c2b068fc378daa952ba7f163c4a11628f55a4df523b3ef83604051610bbb91815260200190565b60405180910390a3505050565b602081526000825180602084015260005b81811015610bf65760208186018101516040868401015201610bd9565b506000604082850101526040601f19601f83011684010191505092915050565b80356001600160a01b0381168114610c2d57600080fd5b919050565b60008060408385031215610c4557600080fd5b610c4e83610c16565b946020939093013593505050565b600080600060608486031215610c7157600080fd5b610c7a84610c16565b9250610c8860208501610c16565b929592945050506040919091013590565b600060208284031215610cab57600080fd5b5035919050565b600060208284031215610cc457600080fd5b610ccd82610c16565b9392505050565b60008060408385031215610ce757600080fd5b610cf083610c16565b9150610cfe60208401610c16565b90509250929050565b600181811c90821680610d1b57607f821691505b602082108103610d3b57634e487b7160e01b600052602260045260246000fd5b50919050565b634e487b7160e01b600052601160045260246000fd5b818103818111156103ca576103ca610d41565b808201808211156103ca576103ca610d41565b60208082526032908201527f456b6f6b653a20746f74616c20737570706c792077696c6c2065786365656420604082015271746865206d6178696d756d20737570706c7960701b60608201526080019056fea26469706673582212201c16b5e5d42b72be80f8ff05312e4ef0111ad3e4f244ae44e1ac8340450c211664736f6c634300081c0033",
  "linkReferences": {},
  "deployedLinkReferences": {}
}