{
  "_format": "hh-sol-artifact-1",
  "contractName": "Marketplace",
  "sourceName": "contracts/Marketplace.sol",
  "abi": [
    {
      "inputs": [
        {
          "internalType": "address",
          "name": "_owner",
          "type": "address"
        },
        {
          "internalType": "address",
          "name": "_usdErc20",
          "type": "address"
        },
        {
          "internalType": "address",
          "name": "_ekoke",
          "type": "address"
        },
        {
          "internalType": "address",
          "name": "_deferred",
          "type": "address"
        }
      ],
      "stateMutability": "nonpayable",
      "type": "constructor"
    },
    {
      "inputs": [
        {
          "internalType": "address",
          "name": "owner",
          "type": "address"
        }
      ],
      "name": "OwnableInvalidOwner",
      "type": "error"
    },
    {
      "inputs": [
        {
          "internalType": "address",
          "name": "account",
          "type": "address"
        }
      ],
      "name": "OwnableUnauthorizedAccount",
      "type": "error"
    },
    {
      "anonymous": false,
      "inputs": [
        {
          "indexed": true,
          "internalType": "address",
          "name": "previousOwner",
          "type": "address"
        },
        {
          "indexed": true,
          "internalType": "address",
          "name": "newOwner",
          "type": "address"
        }
      ],
      "name": "OwnershipTransferred",
      "type": "event"
    },
    {
      "anonymous": false,
      "inputs": [
        {
          "indexed": true,
          "internalType": "address",
          "name": "buyer",
          "type": "address"
        },
        {
          "indexed": true,
          "internalType": "address",
          "name": "seller",
          "type": "address"
        },
        {
          "indexed": false,
          "internalType": "uint256",
          "name": "contractId",
          "type": "uint256"
        },
        {
          "indexed": false,
          "internalType": "uint256",
          "name": "tokenId",
          "type": "uint256"
        },
        {
          "indexed": false,
          "internalType": "uint256",
          "name": "price",
          "type": "uint256"
        },
        {
          "indexed": false,
          "internalType": "uint256",
          "name": "paidAmount",
          "type": "uint256"
        }
      ],
      "name": "TokenBought",
      "type": "event"
    },
    {
      "inputs": [
        {
          "internalType": "uint8",
          "name": "_interestRate",
          "type": "uint8"
        }
      ],
      "name": "adminSetInterestRate",
      "outputs": [],
      "stateMutability": "nonpayable",
      "type": "function"
    },
    {
      "inputs": [
        {
          "internalType": "address",
          "name": "_rewardPool",
          "type": "address"
        }
      ],
      "name": "adminSetRewardPool",
      "outputs": [],
      "stateMutability": "nonpayable",
      "type": "function"
    },
    {
      "inputs": [
        {
          "internalType": "uint256",
          "name": "_contractId",
          "type": "uint256"
        }
      ],
      "name": "buyNextToken",
      "outputs": [
        {
          "internalType": "uint256",
          "name": "tokenId",
          "type": "uint256"
        }
      ],
      "stateMutability": "nonpayable",
      "type": "function"
    },
    {
      "inputs": [],
      "name": "interestRate",
      "outputs": [
        {
          "internalType": "uint8",
          "name": "",
          "type": "uint8"
        }
      ],
      "stateMutability": "view",
      "type": "function"
    },
    {
      "inputs": [],
      "name": "owner",
      "outputs": [
        {
          "internalType": "address",
          "name": "",
          "type": "address"
        }
      ],
      "stateMutability": "view",
      "type": "function"
    },
    {
      "inputs": [],
      "name": "renounceOwnership",
      "outputs": [],
      "stateMutability": "nonpayable",
      "type": "function"
    },
    {
      "inputs": [
        {
          "internalType": "uint256",
          "name": "_contractId",
          "type": "uint256"
        }
      ],
      "name": "tokenPriceForCaller",
      "outputs": [
        {
          "internalType": "uint256",
          "name": "",
          "type": "uint256"
        }
      ],
      "stateMutability": "view",
      "type": "function"
    },
    {
      "inputs": [
        {
          "internalType": "address",
          "name": "newOwner",
          "type": "address"
        }
      ],
      "name": "transferOwnership",
      "outputs": [],
      "stateMutability": "nonpayable",
      "type": "function"
    },
    {
      "inputs": [],
      "name": "usdErc20",
      "outputs": [
        {
          "internalType": "address",
          "name": "",
          "type": "address"
        }
      ],
      "stateMutability": "view",
      "type": "function"
    }
  ],
  "bytecode": "0x60806040526004805460ff60a01b1916600560a11b17905534801561002357600080fd5b506040516113423803806113428339810160408190526100429161026e565b836001600160a01b03811661007257604051631e4fbdf760e01b8152600060048201526024015b60405180910390fd5b61007b81610202565b506001600160a01b0383166100e15760405162461bcd60e51b815260206004820152602660248201527f4d61726b6574706c6163653a205553442045524332302061646472657373206960448201526573207a65726f60d01b6064820152608401610069565b6001600160a01b0381166101455760405162461bcd60e51b815260206004820152602560248201527f4d61726b6574706c6163653a2044656665727265642061646472657373206973604482015264207a65726f60d81b6064820152608401610069565b600180546001600160a01b038086166001600160a01b031992831681179093556002805486831690841617905560038054918516919092161790556040805163313ce56760e01b8152905163313ce567916004808201926020929091908290030181865afa1580156101bb573d6000803e3d6000fd5b505050506040513d601f19601f820116820180604052508101906101df91906102c2565b600160146101000a81548160ff021916908360ff160217905550505050506102ec565b600080546001600160a01b038381166001600160a01b0319831681178455604051919092169283917f8be0079c531659141344cd1fd0a4f28419497f9722a3daafe3b4186f6b6457e09190a35050565b80516001600160a01b038116811461026957600080fd5b919050565b6000806000806080858703121561028457600080fd5b61028d85610252565b935061029b60208601610252565b92506102a960408601610252565b91506102b760608601610252565b905092959194509250565b6000602082840312156102d457600080fd5b815160ff811681146102e557600080fd5b9392505050565b611047806102fb6000396000f3fe608060405234801561001057600080fd5b50600436106100935760003560e01c80637f4065c6116100665780637f4065c61461011957806382558c2a1461012c5780638da5cb5b1461013f578063b7b2e45414610150578063f2fde38b1461016357600080fd5b806345e41a54146100985780634bd9760f146100be578063715018a6146100e95780637c3a00fd146100f3575b600080fd5b6100ab6100a6366004610a67565b610176565b6040519081526020015b60405180910390f35b6001546100d1906001600160a01b031681565b6040516001600160a01b0390911681526020016100b5565b6100f16106ed565b005b60045461010790600160a01b900460ff1681565b60405160ff90911681526020016100b5565b6100ab610127366004610a67565b610701565b6100f161013a366004610a95565b610799565b6000546001600160a01b03166100d1565b6100f161015e366004610ab9565b6107c3565b6100f1610171366004610a95565b6108c5565b6004546000906001600160a01b03166101d65760405162461bcd60e51b815260206004820181905260248201527f4d61726b6574706c6163653a2052657761726420706f6f6c206e6f742073657460448201526064015b60405180910390fd5b60035460405163375e464360e11b8152600481018490526001600160a01b03909116906000908290636ebc8c8690602401600060405180830381865afa158015610224573d6000803e3d6000fd5b505050506040513d6000823e601f3d908101601f1916820160405261024c9190810190610d3c565b60405163b7e62e5d60e01b8152600481018690523360248201529091506000906001600160a01b0384169063b7e62e5d90604401602060405180830381865afa15801561029d573d6000803e3d6000fd5b505050506040513d601f19601f820116820180604052508101906102c19190610e52565b90503360006102cf84610903565b6040516331a9108f60e11b8152600481018590529091506000906001600160a01b03871690636352211e90602401602060405180830381865afa15801561031a573d6000803e3d6000fd5b505050506040513d601f19601f8201168201806040525081019061033e9190610e6b565b6000858152600560205260408120549192509060ff16158015610365575060008660600151115b6001549091506001600160a01b031660006103808886610964565b90506000610391896080015161099e565b604051636eb1769f60e11b815233600482015230602482015290915082906001600160a01b0385169063dd62ed3e90604401602060405180830381865afa1580156103e0573d6000803e3d6000fd5b505050506040513d601f19601f820116820180604052508101906104049190610e52565b101561045e5760405162461bcd60e51b815260206004820152602360248201527f4d61726b6574706c6163653a20496e73756666696369656e7420616c6c6f77616044820152626e636560e81b60648201526084016101cd565b6040516323b872dd60e01b81526001600160a01b0388811660048301528681166024830152604482018390528416906323b872dd906064016020604051808303816000875af11580156104b5573d6000803e3d6000fd5b505050506040513d601f19601f820116820180604052508101906104d99190610e88565b50851561057457826001600160a01b03166323b872dd88306104fa856109c3565b6040516001600160e01b031960e086901b1681526001600160a01b03938416600482015292909116602483015260448201526064016020604051808303816000875af115801561054e573d6000803e3d6000fd5b505050506040513d601f19601f820116820180604052508101906105729190610e88565b505b6003546040516304a2a1fb60e41b8152600481018e90526001600160a01b03878116602483015289811660448301526000921690634a2a1fb0906064016020604051808303816000875af11580156105d0573d6000803e3d6000fd5b505050506040513d601f19601f820116820180604052508101906105f49190610e52565b9050841561066b576004805460608c01516040516307420a4160e01b81526001600160a01b038c81169482019490945260248101919091529116906307420a4190604401600060405180830381600087803b15801561065257600080fd5b505af1158015610666573d6000803e3d6000fd5b505050505b600081815260056020908152604091829020805460ff1916600117905581518f8152908101839052908101839052606081018490526001600160a01b0380881691908a16907f86cb2bc7fc62e19d4a6d7ef45af3a556d854e27140cd36afe5e9911d7db8017a9060800160405180910390a39c9b505050505050505050505050565b6106f56109ea565b6106ff6000610a17565b565b60035460405163375e464360e11b8152600481018390526000916001600160a01b03169082908290636ebc8c8690602401600060405180830381865afa15801561074f573d6000803e3d6000fd5b505050506040513d6000823e601f3d908101601f191682016040526107779190810190610d3c565b9050600061078482610903565b90506107908282610964565b95945050505050565b6107a16109ea565b600480546001600160a01b0319166001600160a01b0392909216919091179055565b6107cb6109ea565b60008160ff16116108385760405162461bcd60e51b815260206004820152603160248201527f4d61726b6574706c6163653a20496e7465726573742072617465206d75737420604482015270062652067726561746572207468616e203607c1b60648201526084016101cd565b60648160ff1611156108a55760405162461bcd60e51b815260206004820152603060248201527f4d61726b6574706c6163653a20496e7465726573742072617465206d7573742060448201526f06265206c657373207468616e203130360841b60648201526084016101cd565b6004805460ff909216600160a01b0260ff60a01b19909216919091179055565b6108cd6109ea565b6001600160a01b0381166108f757604051631e4fbdf760e01b8152600060048201526024016101cd565b61090081610a17565b50565b6000805b82604001515181101561095b57336001600160a01b03168360400151828151811061093457610934610ea3565b60200260200101516001600160a01b0316036109535750600192915050565b600101610907565b50600092915050565b600080610974846080015161099e565b9050826109815780610994565b61098a816109c3565b6109949082610ecf565b9150505b92915050565b6001546000906109b990600160a01b900460ff16600a610fc9565b6109989083610fd8565b6004546000906064906109e090600160a01b900460ff1684610fd8565b6109989190610fef565b6000546001600160a01b031633146106ff5760405163118cdaa760e01b81523360048201526024016101cd565b600080546001600160a01b038381166001600160a01b0319831681178455604051919092169283917f8be0079c531659141344cd1fd0a4f28419497f9722a3daafe3b4186f6b6457e09190a35050565b600060208284031215610a7957600080fd5b5035919050565b6001600160a01b038116811461090057600080fd5b600060208284031215610aa757600080fd5b8135610ab281610a80565b9392505050565b600060208284031215610acb57600080fd5b813560ff81168114610ab257600080fd5b634e487b7160e01b600052604160045260246000fd5b6040516060810167ffffffffffffffff81118282101715610b1557610b15610adc565b60405290565b604051610120810167ffffffffffffffff81118282101715610b1557610b15610adc565b604051601f8201601f1916810167ffffffffffffffff81118282101715610b6857610b68610adc565b604052919050565b600082601f830112610b8157600080fd5b815167ffffffffffffffff811115610b9b57610b9b610adc565b610bae601f8201601f1916602001610b3f565b818152846020838601011115610bc357600080fd5b60005b82811015610be257602081860181015183830182015201610bc6565b506000918101602001919091529392505050565b600067ffffffffffffffff821115610c1057610c10610adc565b5060051b60200190565b600082601f830112610c2b57600080fd5b8151610c3e610c3982610bf6565b610b3f565b80828252602082019150602060608402860101925085831115610c6057600080fd5b602085015b83811015610cb65760608188031215610c7d57600080fd5b610c85610af2565b8151610c9081610a80565b815260208281015181830152604080840151908301529084529290920191606001610c65565b5095945050505050565b600082601f830112610cd157600080fd5b8151610cdf610c3982610bf6565b8082825260208201915060208360051b860101925085831115610d0157600080fd5b602085015b83811015610cb6578051610d1981610a80565b835260209283019201610d06565b80518015158114610d3757600080fd5b919050565b600060208284031215610d4e57600080fd5b815167ffffffffffffffff811115610d6557600080fd5b82016101208185031215610d7857600080fd5b610d80610b1b565b815167ffffffffffffffff811115610d9757600080fd5b610da386828501610b70565b825250602082015167ffffffffffffffff811115610dc057600080fd5b610dcc86828501610c1a565b602083015250604082015167ffffffffffffffff811115610dec57600080fd5b610df886828501610cc0565b604083015250606082810151908201526080808301519082015260a0808301519082015260c08083015190820152610e3260e08301610d27565b60e0820152610e446101008301610d27565b610100820152949350505050565b600060208284031215610e6457600080fd5b5051919050565b600060208284031215610e7d57600080fd5b8151610ab281610a80565b600060208284031215610e9a57600080fd5b610ab282610d27565b634e487b7160e01b600052603260045260246000fd5b634e487b7160e01b600052601160045260246000fd5b8082018082111561099857610998610eb9565b6001815b6001841115610f1d57808504811115610f0157610f01610eb9565b6001841615610f0f57908102905b60019390931c928002610ee6565b935093915050565b600082610f3457506001610998565b81610f4157506000610998565b8160018114610f575760028114610f6157610f7d565b6001915050610998565b60ff841115610f7257610f72610eb9565b50506001821b610998565b5060208310610133831016604e8410600b8410161715610fa0575081810a610998565b610fad6000198484610ee2565b8060001904821115610fc157610fc1610eb9565b029392505050565b6000610ab260ff841683610f25565b808202811582820484141761099857610998610eb9565b60008261100c57634e487b7160e01b600052601260045260246000fd5b50049056fea26469706673582212202c8bad854a0fbf2b43bc6c0ef7cb97b78d299fc8dfba17aef1c690abc807d17464736f6c634300081c0033",
  "linkReferences": {},
  "deployedLinkReferences": {}
}