{
  "_format": "hh-sol-artifact-1",
  "contractName": "Marketplace",
  "sourceName": "contracts/Marketplace.sol",
  "abi": [
    {
      "inputs": [
        {
          "internalType": "address",
          "name": "_owner",
          "type": "address"
        },
        {
          "internalType": "address",
          "name": "_usdErc20",
          "type": "address"
        },
        {
          "internalType": "address",
          "name": "_ekoke",
          "type": "address"
        },
        {
          "internalType": "address",
          "name": "_deferred",
          "type": "address"
        }
      ],
      "stateMutability": "nonpayable",
      "type": "constructor"
    },
    {
      "inputs": [
        {
          "internalType": "address",
          "name": "owner",
          "type": "address"
        }
      ],
      "name": "OwnableInvalidOwner",
      "type": "error"
    },
    {
      "inputs": [
        {
          "internalType": "address",
          "name": "account",
          "type": "address"
        }
      ],
      "name": "OwnableUnauthorizedAccount",
      "type": "error"
    },
    {
      "anonymous": false,
      "inputs": [
        {
          "indexed": true,
          "internalType": "address",
          "name": "previousOwner",
          "type": "address"
        },
        {
          "indexed": true,
          "internalType": "address",
          "name": "newOwner",
          "type": "address"
        }
      ],
      "name": "OwnershipTransferred",
      "type": "event"
    },
    {
      "anonymous": false,
      "inputs": [
        {
          "indexed": true,
          "internalType": "address",
          "name": "buyer",
          "type": "address"
        },
        {
          "indexed": true,
          "internalType": "address",
          "name": "seller",
          "type": "address"
        },
        {
          "indexed": false,
          "internalType": "uint256",
          "name": "tokenId",
          "type": "uint256"
        },
        {
          "indexed": false,
          "internalType": "uint256",
          "name": "price",
          "type": "uint256"
        },
        {
          "indexed": false,
          "internalType": "uint256",
          "name": "paidAmount",
          "type": "uint256"
        }
      ],
      "name": "TokenBought",
      "type": "event"
    },
    {
      "inputs": [
        {
          "internalType": "uint8",
          "name": "_interestRate",
          "type": "uint8"
        }
      ],
      "name": "adminSetInterestRate",
      "outputs": [],
      "stateMutability": "nonpayable",
      "type": "function"
    },
    {
      "inputs": [
        {
          "internalType": "address",
          "name": "_rewardPool",
          "type": "address"
        }
      ],
      "name": "adminSetRewardPool",
      "outputs": [],
      "stateMutability": "nonpayable",
      "type": "function"
    },
    {
      "inputs": [
        {
          "internalType": "uint256",
          "name": "_tokenId",
          "type": "uint256"
        }
      ],
      "name": "buyToken",
      "outputs": [],
      "stateMutability": "nonpayable",
      "type": "function"
    },
    {
      "inputs": [],
      "name": "interestRate",
      "outputs": [
        {
          "internalType": "uint8",
          "name": "",
          "type": "uint8"
        }
      ],
      "stateMutability": "view",
      "type": "function"
    },
    {
      "inputs": [],
      "name": "owner",
      "outputs": [
        {
          "internalType": "address",
          "name": "",
          "type": "address"
        }
      ],
      "stateMutability": "view",
      "type": "function"
    },
    {
      "inputs": [],
      "name": "renounceOwnership",
      "outputs": [],
      "stateMutability": "nonpayable",
      "type": "function"
    },
    {
      "inputs": [
        {
          "internalType": "uint256",
          "name": "",
          "type": "uint256"
        }
      ],
      "name": "soldTokens",
      "outputs": [
        {
          "internalType": "bool",
          "name": "",
          "type": "bool"
        }
      ],
      "stateMutability": "view",
      "type": "function"
    },
    {
      "inputs": [
        {
          "internalType": "address",
          "name": "newOwner",
          "type": "address"
        }
      ],
      "name": "transferOwnership",
      "outputs": [],
      "stateMutability": "nonpayable",
      "type": "function"
    },
    {
      "inputs": [],
      "name": "usdErc20",
      "outputs": [
        {
          "internalType": "address",
          "name": "",
          "type": "address"
        }
      ],
      "stateMutability": "view",
      "type": "function"
    }
  ],
  "bytecode": "0x6080604052600a600460146101000a81548160ff021916908360ff1602179055503480156200002d57600080fd5b5060405162001dcd38038062001dcd8339818101604052810190620000539190620003ba565b83600073ffffffffffffffffffffffffffffffffffffffff168173ffffffffffffffffffffffffffffffffffffffff1603620000c95760006040517f1e4fbdf7000000000000000000000000000000000000000000000000000000008152600401620000c091906200043d565b60405180910390fd5b620000da816200028c60201b60201c565b50600073ffffffffffffffffffffffffffffffffffffffff168373ffffffffffffffffffffffffffffffffffffffff16036200014d576040517f08c379a00000000000000000000000000000000000000000000000000000000081526004016200014490620004e1565b60405180910390fd5b600073ffffffffffffffffffffffffffffffffffffffff168173ffffffffffffffffffffffffffffffffffffffff1603620001bf576040517f08c379a0000000000000000000000000000000000000000000000000000000008152600401620001b69062000579565b60405180910390fd5b82600160006101000a81548173ffffffffffffffffffffffffffffffffffffffff021916908373ffffffffffffffffffffffffffffffffffffffff16021790555081600260006101000a81548173ffffffffffffffffffffffffffffffffffffffff021916908373ffffffffffffffffffffffffffffffffffffffff16021790555080600360006101000a81548173ffffffffffffffffffffffffffffffffffffffff021916908373ffffffffffffffffffffffffffffffffffffffff160217905550505050506200059b565b60008060009054906101000a900473ffffffffffffffffffffffffffffffffffffffff169050816000806101000a81548173ffffffffffffffffffffffffffffffffffffffff021916908373ffffffffffffffffffffffffffffffffffffffff1602179055508173ffffffffffffffffffffffffffffffffffffffff168173ffffffffffffffffffffffffffffffffffffffff167f8be0079c531659141344cd1fd0a4f28419497f9722a3daafe3b4186f6b6457e060405160405180910390a35050565b600080fd5b600073ffffffffffffffffffffffffffffffffffffffff82169050919050565b6000620003828262000355565b9050919050565b620003948162000375565b8114620003a057600080fd5b50565b600081519050620003b48162000389565b92915050565b60008060008060808587031215620003d757620003d662000350565b5b6000620003e787828801620003a3565b9450506020620003fa87828801620003a3565b93505060406200040d87828801620003a3565b92505060606200042087828801620003a3565b91505092959194509250565b620004378162000375565b82525050565b60006020820190506200045460008301846200042c565b92915050565b600082825260208201905092915050565b7f4d61726b6574706c6163653a205553442045524332302061646472657373206960008201527f73207a65726f0000000000000000000000000000000000000000000000000000602082015250565b6000620004c96026836200045a565b9150620004d6826200046b565b604082019050919050565b60006020820190508181036000830152620004fc81620004ba565b9050919050565b7f4d61726b6574706c6163653a204465666572726564206164647265737320697360008201527f207a65726f000000000000000000000000000000000000000000000000000000602082015250565b6000620005616025836200045a565b91506200056e8262000503565b604082019050919050565b60006020820190508181036000830152620005948162000552565b9050919050565b61182280620005ab6000396000f3fe608060405234801561001057600080fd5b50600436106100935760003560e01c806382558c2a1161006657806382558c2a146100fa5780638da5cb5b14610116578063ad9ab85714610134578063b7b2e45414610164578063f2fde38b1461018057610093565b80632d296bf1146100985780634bd9760f146100b4578063715018a6146100d25780637c3a00fd146100dc575b600080fd5b6100b260048036038101906100ad9190610bf7565b61019c565b005b6100bc61080c565b6040516100c99190610c65565b60405180910390f35b6100da610832565b005b6100e4610846565b6040516100f19190610c9c565b60405180910390f35b610114600480360381019061010f9190610ce3565b610859565b005b61011e6108a5565b60405161012b9190610c65565b60405180910390f35b61014e60048036038101906101499190610bf7565b6108ce565b60405161015b9190610d2b565b60405180910390f35b61017e60048036038101906101799190610d72565b6108ee565b005b61019a60048036038101906101959190610ce3565b6109a1565b005b600073ffffffffffffffffffffffffffffffffffffffff16600460009054906101000a900473ffffffffffffffffffffffffffffffffffffffff1673ffffffffffffffffffffffffffffffffffffffff160361022d576040517f08c379a000000000000000000000000000000000000000000000000000000000815260040161022490610dfc565b60405180910390fd5b6000600360009054906101000a900473ffffffffffffffffffffffffffffffffffffffff16905060008173ffffffffffffffffffffffffffffffffffffffff1663a30fb020846040518263ffffffff1660e01b815260040161028f9190610e2b565b600060405180830381865afa1580156102ac573d6000803e3d6000fd5b505050506040513d6000823e3d601f19601f820116820180604052508101906102d5919061132a565b905060003390506000805b83604001515181101561035a578273ffffffffffffffffffffffffffffffffffffffff168460400151828151811061031b5761031a611373565b5b602002602001015173ffffffffffffffffffffffffffffffffffffffff1603610347576001915061035a565b8080610352906113d1565b9150506102e0565b5060008473ffffffffffffffffffffffffffffffffffffffff16636352211e876040518263ffffffff1660e01b81526004016103969190610e2b565b602060405180830381865afa1580156103b3573d6000803e3d6000fd5b505050506040513d601f19601f820116820180604052508101906103d79190611419565b905060006005600088815260200190815260200160002060009054906101000a900460ff1615801561040d575060008560600151115b90506000600160009054906101000a900473ffffffffffffffffffffffffffffffffffffffff169050600084610447578660800151610464565b6104548760800151610a27565b87608001516104639190611446565b5b9050808273ffffffffffffffffffffffffffffffffffffffff1663dd62ed3e33306040518363ffffffff1660e01b81526004016104a292919061147a565b602060405180830381865afa1580156104bf573d6000803e3d6000fd5b505050506040513d601f19601f820116820180604052508101906104e391906114a3565b1015610524576040517f08c379a000000000000000000000000000000000000000000000000000000000815260040161051b90611542565b60405180910390fd5b8173ffffffffffffffffffffffffffffffffffffffff166323b872dd87868a608001516040518463ffffffff1660e01b815260040161056593929190611562565b6020604051808303816000875af1158015610584573d6000803e3d6000fd5b505050506040513d601f19601f820116820180604052508101906105a89190611599565b50841561063d578173ffffffffffffffffffffffffffffffffffffffff166323b872dd87306105da8b60800151610a27565b6040518463ffffffff1660e01b81526004016105f893929190611562565b6020604051808303816000875af1158015610617573d6000803e3d6000fd5b505050506040513d601f19601f8201168201806040525081019061063b9190611599565b505b600360009054906101000a900473ffffffffffffffffffffffffffffffffffffffff1673ffffffffffffffffffffffffffffffffffffffff166323b872dd85888c6040518463ffffffff1660e01b815260040161069c93929190611562565b600060405180830381600087803b1580156106b657600080fd5b505af11580156106ca573d6000803e3d6000fd5b50505050821561076857600460009054906101000a900473ffffffffffffffffffffffffffffffffffffffff1673ffffffffffffffffffffffffffffffffffffffff166307420a418789606001516040518363ffffffff1660e01b81526004016107359291906115c6565b600060405180830381600087803b15801561074f57600080fd5b505af1158015610763573d6000803e3d6000fd5b505050505b6001600560008b815260200190815260200160002060006101000a81548160ff0219169083151502179055508373ffffffffffffffffffffffffffffffffffffffff168673ffffffffffffffffffffffffffffffffffffffff167f8692cf5ba66abd64f88cdc1ffa0ee9d9c21ee2d999322a20445ae32393394e3e8b8a60800151856040516107f9939291906115ef565b60405180910390a3505050505050505050565b600160009054906101000a900473ffffffffffffffffffffffffffffffffffffffff1681565b61083a610a5a565b6108446000610ae1565b565b600460149054906101000a900460ff1681565b610861610a5a565b80600460006101000a81548173ffffffffffffffffffffffffffffffffffffffff021916908373ffffffffffffffffffffffffffffffffffffffff16021790555050565b60008060009054906101000a900473ffffffffffffffffffffffffffffffffffffffff16905090565b60056020528060005260406000206000915054906101000a900460ff1681565b6108f6610a5a565b60008160ff161161093c576040517f08c379a000000000000000000000000000000000000000000000000000000000815260040161093390611698565b60405180910390fd5b60648160ff161115610983576040517f08c379a000000000000000000000000000000000000000000000000000000000815260040161097a9061172a565b60405180910390fd5b80600460146101000a81548160ff021916908360ff16021790555050565b6109a9610a5a565b600073ffffffffffffffffffffffffffffffffffffffff168173ffffffffffffffffffffffffffffffffffffffff1603610a1b5760006040517f1e4fbdf7000000000000000000000000000000000000000000000000000000008152600401610a129190610c65565b60405180910390fd5b610a2481610ae1565b50565b60006064600460149054906101000a900460ff1660ff1683610a49919061174a565b610a5391906117bb565b9050919050565b610a62610ba5565b73ffffffffffffffffffffffffffffffffffffffff16610a806108a5565b73ffffffffffffffffffffffffffffffffffffffff1614610adf57610aa3610ba5565b6040517f118cdaa7000000000000000000000000000000000000000000000000000000008152600401610ad69190610c65565b60405180910390fd5b565b60008060009054906101000a900473ffffffffffffffffffffffffffffffffffffffff169050816000806101000a81548173ffffffffffffffffffffffffffffffffffffffff021916908373ffffffffffffffffffffffffffffffffffffffff1602179055508173ffffffffffffffffffffffffffffffffffffffff168173ffffffffffffffffffffffffffffffffffffffff167f8be0079c531659141344cd1fd0a4f28419497f9722a3daafe3b4186f6b6457e060405160405180910390a35050565b600033905090565b6000604051905090565b600080fd5b600080fd5b6000819050919050565b610bd481610bc1565b8114610bdf57600080fd5b50565b600081359050610bf181610bcb565b92915050565b600060208284031215610c0d57610c0c610bb7565b5b6000610c1b84828501610be2565b91505092915050565b600073ffffffffffffffffffffffffffffffffffffffff82169050919050565b6000610c4f82610c24565b9050919050565b610c5f81610c44565b82525050565b6000602082019050610c7a6000830184610c56565b92915050565b600060ff82169050919050565b610c9681610c80565b82525050565b6000602082019050610cb16000830184610c8d565b92915050565b610cc081610c44565b8114610ccb57600080fd5b50565b600081359050610cdd81610cb7565b92915050565b600060208284031215610cf957610cf8610bb7565b5b6000610d0784828501610cce565b91505092915050565b60008115159050919050565b610d2581610d10565b82525050565b6000602082019050610d406000830184610d1c565b92915050565b610d4f81610c80565b8114610d5a57600080fd5b50565b600081359050610d6c81610d46565b92915050565b600060208284031215610d8857610d87610bb7565b5b6000610d9684828501610d5d565b91505092915050565b600082825260208201905092915050565b7f4d61726b6574706c6163653a2052657761726420706f6f6c206e6f7420736574600082015250565b6000610de6602083610d9f565b9150610df182610db0565b602082019050919050565b60006020820190508181036000830152610e1581610dd9565b9050919050565b610e2581610bc1565b82525050565b6000602082019050610e406000830184610e1c565b92915050565b600080fd5b6000601f19601f8301169050919050565b7f4e487b7100000000000000000000000000000000000000000000000000000000600052604160045260246000fd5b610e9482610e4b565b810181811067ffffffffffffffff82111715610eb357610eb2610e5c565b5b80604052505050565b6000610ec6610bad565b9050610ed28282610e8b565b919050565b600080fd5b600080fd5b600080fd5b600067ffffffffffffffff821115610f0157610f00610e5c565b5b610f0a82610e4b565b9050602081019050919050565b60005b83811015610f35578082015181840152602081019050610f1a565b60008484015250505050565b6000610f54610f4f84610ee6565b610ebc565b905082815260208101848484011115610f7057610f6f610ee1565b5b610f7b848285610f17565b509392505050565b600082601f830112610f9857610f97610edc565b5b8151610fa8848260208601610f41565b91505092915050565b600067ffffffffffffffff821115610fcc57610fcb610e5c565b5b602082029050602081019050919050565b600080fd5b600081519050610ff181610cb7565b92915050565b60008151905061100681610bcb565b92915050565b60006060828403121561102257611021610e46565b5b61102c6060610ebc565b9050600061103c84828501610fe2565b600083015250602061105084828501610ff7565b602083015250604061106484828501610ff7565b60408301525092915050565b600061108361107e84610fb1565b610ebc565b905080838252602082019050606084028301858111156110a6576110a5610fdd565b5b835b818110156110cf57806110bb888261100c565b8452602084019350506060810190506110a8565b5050509392505050565b600082601f8301126110ee576110ed610edc565b5b81516110fe848260208601611070565b91505092915050565b600067ffffffffffffffff82111561112257611121610e5c565b5b602082029050602081019050919050565b600061114661114184611107565b610ebc565b9050808382526020820190506020840283018581111561116957611168610fdd565b5b835b81811015611192578061117e8882610fe2565b84526020840193505060208101905061116b565b5050509392505050565b600082601f8301126111b1576111b0610edc565b5b81516111c1848260208601611133565b91505092915050565b6111d381610d10565b81146111de57600080fd5b50565b6000815190506111f0816111ca565b92915050565b6000610120828403121561120d5761120c610e46565b5b611218610120610ebc565b9050600082015167ffffffffffffffff81111561123857611237610ed7565b5b61124484828501610f83565b600083015250602082015167ffffffffffffffff81111561126857611267610ed7565b5b611274848285016110d9565b602083015250604082015167ffffffffffffffff81111561129857611297610ed7565b5b6112a48482850161119c565b60408301525060606112b884828501610ff7565b60608301525060806112cc84828501610ff7565b60808301525060a06112e084828501610ff7565b60a08301525060c06112f484828501610ff7565b60c08301525060e0611308848285016111e1565b60e08301525061010061131d848285016111e1565b6101008301525092915050565b6000602082840312156113405761133f610bb7565b5b600082015167ffffffffffffffff81111561135e5761135d610bbc565b5b61136a848285016111f6565b91505092915050565b7f4e487b7100000000000000000000000000000000000000000000000000000000600052603260045260246000fd5b7f4e487b7100000000000000000000000000000000000000000000000000000000600052601160045260246000fd5b60006113dc82610bc1565b91507fffffffffffffffffffffffffffffffffffffffffffffffffffffffffffffffff820361140e5761140d6113a2565b5b600182019050919050565b60006020828403121561142f5761142e610bb7565b5b600061143d84828501610fe2565b91505092915050565b600061145182610bc1565b915061145c83610bc1565b9250828201905080821115611474576114736113a2565b5b92915050565b600060408201905061148f6000830185610c56565b61149c6020830184610c56565b9392505050565b6000602082840312156114b9576114b8610bb7565b5b60006114c784828501610ff7565b91505092915050565b7f4d61726b6574706c6163653a20496e73756666696369656e7420616c6c6f776160008201527f6e63650000000000000000000000000000000000000000000000000000000000602082015250565b600061152c602383610d9f565b9150611537826114d0565b604082019050919050565b6000602082019050818103600083015261155b8161151f565b9050919050565b60006060820190506115776000830186610c56565b6115846020830185610c56565b6115916040830184610e1c565b949350505050565b6000602082840312156115af576115ae610bb7565b5b60006115bd848285016111e1565b91505092915050565b60006040820190506115db6000830185610c56565b6115e86020830184610e1c565b9392505050565b60006060820190506116046000830186610e1c565b6116116020830185610e1c565b61161e6040830184610e1c565b949350505050565b7f4d61726b6574706c6163653a20496e7465726573742072617465206d7573742060008201527f62652067726561746572207468616e2030000000000000000000000000000000602082015250565b6000611682603183610d9f565b915061168d82611626565b604082019050919050565b600060208201905081810360008301526116b181611675565b9050919050565b7f4d61726b6574706c6163653a20496e7465726573742072617465206d7573742060008201527f6265206c657373207468616e2031303000000000000000000000000000000000602082015250565b6000611714603083610d9f565b915061171f826116b8565b604082019050919050565b6000602082019050818103600083015261174381611707565b9050919050565b600061175582610bc1565b915061176083610bc1565b925082820261176e81610bc1565b91508282048414831517611785576117846113a2565b5b5092915050565b7f4e487b7100000000000000000000000000000000000000000000000000000000600052601260045260246000fd5b60006117c682610bc1565b91506117d183610bc1565b9250826117e1576117e061178c565b5b82820490509291505056fea26469706673582212209d46c7f68015d12c298f0deb182c49242ac1b0b60610b097b3e6ad1ab29530f064736f6c63430008140033",
  "linkReferences": {},
  "deployedLinkReferences": {}
}