{
  "_format": "hh-sol-artifact-1",
  "contractName": "Marketplace",
  "sourceName": "contracts/Marketplace.sol",
  "abi": [
    {
      "inputs": [
        {
          "internalType": "address",
          "name": "_owner",
          "type": "address"
        },
        {
          "internalType": "address",
          "name": "_usdErc20",
          "type": "address"
        },
        {
          "internalType": "address",
          "name": "_ekoke",
          "type": "address"
        },
        {
          "internalType": "address",
          "name": "_deferred",
          "type": "address"
        }
      ],
      "stateMutability": "nonpayable",
      "type": "constructor"
    },
    {
      "inputs": [
        {
          "internalType": "address",
          "name": "owner",
          "type": "address"
        }
      ],
      "name": "OwnableInvalidOwner",
      "type": "error"
    },
    {
      "inputs": [
        {
          "internalType": "address",
          "name": "account",
          "type": "address"
        }
      ],
      "name": "OwnableUnauthorizedAccount",
      "type": "error"
    },
    {
      "anonymous": false,
      "inputs": [
        {
          "indexed": true,
          "internalType": "address",
          "name": "previousOwner",
          "type": "address"
        },
        {
          "indexed": true,
          "internalType": "address",
          "name": "newOwner",
          "type": "address"
        }
      ],
      "name": "OwnershipTransferred",
      "type": "event"
    },
    {
      "anonymous": false,
      "inputs": [
        {
          "indexed": true,
          "internalType": "address",
          "name": "buyer",
          "type": "address"
        },
        {
          "indexed": true,
          "internalType": "address",
          "name": "seller",
          "type": "address"
        },
        {
          "indexed": false,
          "internalType": "uint256",
          "name": "tokenId",
          "type": "uint256"
        },
        {
          "indexed": false,
          "internalType": "uint256",
          "name": "price",
          "type": "uint256"
        },
        {
          "indexed": false,
          "internalType": "uint256",
          "name": "paidAmount",
          "type": "uint256"
        }
      ],
      "name": "TokenBought",
      "type": "event"
    },
    {
      "inputs": [
        {
          "internalType": "uint8",
          "name": "_interestRate",
          "type": "uint8"
        }
      ],
      "name": "adminSetInterestRate",
      "outputs": [],
      "stateMutability": "nonpayable",
      "type": "function"
    },
    {
      "inputs": [
        {
          "internalType": "address",
          "name": "_rewardPool",
          "type": "address"
        }
      ],
      "name": "adminSetRewardPool",
      "outputs": [],
      "stateMutability": "nonpayable",
      "type": "function"
    },
    {
      "inputs": [
        {
          "internalType": "uint256",
          "name": "_tokenId",
          "type": "uint256"
        }
      ],
      "name": "buyToken",
      "outputs": [],
      "stateMutability": "nonpayable",
      "type": "function"
    },
    {
      "inputs": [],
      "name": "interestRate",
      "outputs": [
        {
          "internalType": "uint8",
          "name": "",
          "type": "uint8"
        }
      ],
      "stateMutability": "view",
      "type": "function"
    },
    {
      "inputs": [],
      "name": "owner",
      "outputs": [
        {
          "internalType": "address",
          "name": "",
          "type": "address"
        }
      ],
      "stateMutability": "view",
      "type": "function"
    },
    {
      "inputs": [],
      "name": "renounceOwnership",
      "outputs": [],
      "stateMutability": "nonpayable",
      "type": "function"
    },
    {
      "inputs": [
        {
          "internalType": "address",
          "name": "newOwner",
          "type": "address"
        }
      ],
      "name": "transferOwnership",
      "outputs": [],
      "stateMutability": "nonpayable",
      "type": "function"
    },
    {
      "inputs": [],
      "name": "usdErc20",
      "outputs": [
        {
          "internalType": "address",
          "name": "",
          "type": "address"
        }
      ],
      "stateMutability": "view",
      "type": "function"
    }
  ],
  "bytecode": "0x60806040526004805460ff60a01b1916600560a11b17905534801561002357600080fd5b50604051610ffb380380610ffb833981016040819052610042916101f4565b836001600160a01b03811661007257604051631e4fbdf760e01b8152600060048201526024015b60405180910390fd5b61007b81610188565b506001600160a01b0383166100e15760405162461bcd60e51b815260206004820152602660248201527f4d61726b6574706c6163653a205553442045524332302061646472657373206960448201526573207a65726f60d01b6064820152608401610069565b6001600160a01b0381166101455760405162461bcd60e51b815260206004820152602560248201527f4d61726b6574706c6163653a2044656665727265642061646472657373206973604482015264207a65726f60d81b6064820152608401610069565b600180546001600160a01b039485166001600160a01b03199182161790915560028054938516938216939093179092556003805491909316911617905550610248565b600080546001600160a01b038381166001600160a01b0319831681178455604051919092169283917f8be0079c531659141344cd1fd0a4f28419497f9722a3daafe3b4186f6b6457e09190a35050565b80516001600160a01b03811681146101ef57600080fd5b919050565b6000806000806080858703121561020a57600080fd5b610213856101d8565b9350610221602086016101d8565b925061022f604086016101d8565b915061023d606086016101d8565b905092959194509250565b610da4806102576000396000f3fe608060405234801561001057600080fd5b50600436106100885760003560e01c806382558c2a1161005b57806382558c2a146101005780638da5cb5b14610113578063b7b2e45414610124578063f2fde38b1461013757600080fd5b80632d296bf11461008d5780634bd9760f146100a2578063715018a6146100d25780637c3a00fd146100da575b600080fd5b6100a061009b3660046108ba565b61014a565b005b6001546100b5906001600160a01b031681565b6040516001600160a01b0390911681526020015b60405180910390f35b6100a0610692565b6004546100ee90600160a01b900460ff1681565b60405160ff90911681526020016100c9565b6100a061010e3660046108e8565b6106a6565b6000546001600160a01b03166100b5565b6100a061013236600461090c565b6106d0565b6100a06101453660046108e8565b6107d2565b6004546001600160a01b03166101a75760405162461bcd60e51b815260206004820181905260248201527f4d61726b6574706c6163653a2052657761726420706f6f6c206e6f742073657460448201526064015b60405180910390fd5b6003546040516305187d8160e51b8152600481018390526001600160a01b0390911690600090829063a30fb02090602401600060405180830381865afa1580156101f5573d6000803e3d6000fd5b505050506040513d6000823e601f3d908101601f1916820160405261021d9190810190610b8f565b9050336000805b83604001515181101561027857826001600160a01b03168460400151828151811061025157610251610ca5565b60200260200101516001600160a01b0316036102705760019150610278565b600101610224565b506040516331a9108f60e11b8152600481018690526000906001600160a01b03861690636352211e90602401602060405180830381865afa1580156102c1573d6000803e3d6000fd5b505050506040513d601f19601f820116820180604052508101906102e59190610cbb565b6000878152600560205260408120549192509060ff1615801561030c575060008560600151115b6001549091506001600160a01b031660008461032c578660800151610348565b6103398760800151610810565b87608001516103489190610cee565b604051636eb1769f60e11b815233600482015230602482015290915081906001600160a01b0384169063dd62ed3e90604401602060405180830381865afa158015610397573d6000803e3d6000fd5b505050506040513d601f19601f820116820180604052508101906103bb9190610d01565b10156104155760405162461bcd60e51b815260206004820152602360248201527f4d61726b6574706c6163653a20496e73756666696369656e7420616c6c6f77616044820152626e636560e81b606482015260840161019e565b60808701516040516323b872dd60e01b81526001600160a01b03888116600483015286811660248301526044820192909252908316906323b872dd906064016020604051808303816000875af1158015610473573d6000803e3d6000fd5b505050506040513d601f19601f820116820180604052508101906104979190610d1a565b50841561053657816001600160a01b03166323b872dd87306104bc8b60800151610810565b6040516001600160e01b031960e086901b1681526001600160a01b03938416600482015292909116602483015260448201526064016020604051808303816000875af1158015610510573d6000803e3d6000fd5b505050506040513d601f19601f820116820180604052508101906105349190610d1a565b505b6003546040516323b872dd60e01b81526001600160a01b0386811660048301528881166024830152604482018c9052909116906323b872dd90606401600060405180830381600087803b15801561058c57600080fd5b505af11580156105a0573d6000803e3d6000fd5b505050508215610619576004805460608901516040516307420a4160e01b81526001600160a01b038a81169482019490945260248101919091529116906307420a4190604401600060405180830381600087803b15801561060057600080fd5b505af1158015610614573d6000803e3d6000fd5b505050505b600089815260056020908152604091829020805460ff19166001179055608089015182518c8152918201529081018290526001600160a01b0385811691908816907f8692cf5ba66abd64f88cdc1ffa0ee9d9c21ee2d999322a20445ae32393394e3e9060600160405180910390a3505050505050505050565b61069a61083d565b6106a4600061086a565b565b6106ae61083d565b600480546001600160a01b0319166001600160a01b0392909216919091179055565b6106d861083d565b60008160ff16116107455760405162461bcd60e51b815260206004820152603160248201527f4d61726b6574706c6163653a20496e7465726573742072617465206d75737420604482015270062652067726561746572207468616e203607c1b606482015260840161019e565b60648160ff1611156107b25760405162461bcd60e51b815260206004820152603060248201527f4d61726b6574706c6163653a20496e7465726573742072617465206d7573742060448201526f06265206c657373207468616e203130360841b606482015260840161019e565b6004805460ff909216600160a01b0260ff60a01b19909216919091179055565b6107da61083d565b6001600160a01b03811661080457604051631e4fbdf760e01b81526000600482015260240161019e565b61080d8161086a565b50565b60045460009060649061082d90600160a01b900460ff1684610d35565b6108379190610d4c565b92915050565b6000546001600160a01b031633146106a45760405163118cdaa760e01b815233600482015260240161019e565b600080546001600160a01b038381166001600160a01b0319831681178455604051919092169283917f8be0079c531659141344cd1fd0a4f28419497f9722a3daafe3b4186f6b6457e09190a35050565b6000602082840312156108cc57600080fd5b5035919050565b6001600160a01b038116811461080d57600080fd5b6000602082840312156108fa57600080fd5b8135610905816108d3565b9392505050565b60006020828403121561091e57600080fd5b813560ff8116811461090557600080fd5b634e487b7160e01b600052604160045260246000fd5b6040516060810167ffffffffffffffff811182821017156109685761096861092f565b60405290565b604051610120810167ffffffffffffffff811182821017156109685761096861092f565b604051601f8201601f1916810167ffffffffffffffff811182821017156109bb576109bb61092f565b604052919050565b600082601f8301126109d457600080fd5b815167ffffffffffffffff8111156109ee576109ee61092f565b610a01601f8201601f1916602001610992565b818152846020838601011115610a1657600080fd5b60005b82811015610a3557602081860181015183830182015201610a19565b506000918101602001919091529392505050565b600067ffffffffffffffff821115610a6357610a6361092f565b5060051b60200190565b600082601f830112610a7e57600080fd5b8151610a91610a8c82610a49565b610992565b80828252602082019150602060608402860101925085831115610ab357600080fd5b602085015b83811015610b095760608188031215610ad057600080fd5b610ad8610945565b8151610ae3816108d3565b815260208281015181830152604080840151908301529084529290920191606001610ab8565b5095945050505050565b600082601f830112610b2457600080fd5b8151610b32610a8c82610a49565b8082825260208201915060208360051b860101925085831115610b5457600080fd5b602085015b83811015610b09578051610b6c816108d3565b835260209283019201610b59565b80518015158114610b8a57600080fd5b919050565b600060208284031215610ba157600080fd5b815167ffffffffffffffff811115610bb857600080fd5b82016101208185031215610bcb57600080fd5b610bd361096e565b815167ffffffffffffffff811115610bea57600080fd5b610bf6868285016109c3565b825250602082015167ffffffffffffffff811115610c1357600080fd5b610c1f86828501610a6d565b602083015250604082015167ffffffffffffffff811115610c3f57600080fd5b610c4b86828501610b13565b604083015250606082810151908201526080808301519082015260a0808301519082015260c08083015190820152610c8560e08301610b7a565b60e0820152610c976101008301610b7a565b610100820152949350505050565b634e487b7160e01b600052603260045260246000fd5b600060208284031215610ccd57600080fd5b8151610905816108d3565b634e487b7160e01b600052601160045260246000fd5b8082018082111561083757610837610cd8565b600060208284031215610d1357600080fd5b5051919050565b600060208284031215610d2c57600080fd5b61090582610b7a565b808202811582820484141761083757610837610cd8565b600082610d6957634e487b7160e01b600052601260045260246000fd5b50049056fea2646970667358221220dab3e62c6e21985e054bde3b954768c0e4c5c15bef413ff2013b9047dea5dbcf64736f6c634300081c0033",
  "linkReferences": {},
  "deployedLinkReferences": {}
}