{
  "_format": "hh-sol-artifact-1",
  "contractName": "RewardPool",
  "sourceName": "contracts/RewardPool.sol",
  "abi": [
    {
      "inputs": [
        {
          "internalType": "address",
          "name": "_owner",
          "type": "address"
        },
        {
          "internalType": "address",
          "name": "_ekoke",
          "type": "address"
        },
        {
          "internalType": "address",
          "name": "_deferred",
          "type": "address"
        }
      ],
      "stateMutability": "nonpayable",
      "type": "constructor"
    },
    {
      "inputs": [
        {
          "internalType": "address",
          "name": "owner",
          "type": "address"
        }
      ],
      "name": "OwnableInvalidOwner",
      "type": "error"
    },
    {
      "inputs": [
        {
          "internalType": "address",
          "name": "account",
          "type": "address"
        }
      ],
      "name": "OwnableUnauthorizedAccount",
      "type": "error"
    },
    {
      "anonymous": false,
      "inputs": [
        {
          "indexed": true,
          "internalType": "address",
          "name": "previousOwner",
          "type": "address"
        },
        {
          "indexed": true,
          "internalType": "address",
          "name": "newOwner",
          "type": "address"
        }
      ],
      "name": "OwnershipTransferred",
      "type": "event"
    },
    {
      "anonymous": false,
      "inputs": [
        {
          "indexed": false,
          "internalType": "uint256",
          "name": "reward",
          "type": "uint256"
        },
        {
          "indexed": false,
          "internalType": "uint256",
          "name": "tokens",
          "type": "uint256"
        }
      ],
      "name": "PoolReserved",
      "type": "event"
    },
    {
      "anonymous": false,
      "inputs": [
        {
          "indexed": false,
          "internalType": "address",
          "name": "to",
          "type": "address"
        },
        {
          "indexed": false,
          "internalType": "uint256",
          "name": "amount",
          "type": "uint256"
        }
      ],
      "name": "RewardSent",
      "type": "event"
    },
    {
      "inputs": [
        {
          "internalType": "address",
          "name": "_marketplace",
          "type": "address"
        }
      ],
      "name": "adminSetMarketplace",
      "outputs": [],
      "stateMutability": "nonpayable",
      "type": "function"
    },
    {
      "inputs": [],
      "name": "availableReward",
      "outputs": [
        {
          "internalType": "uint256",
          "name": "available",
          "type": "uint256"
        }
      ],
      "stateMutability": "view",
      "type": "function"
    },
    {
      "inputs": [],
      "name": "owner",
      "outputs": [
        {
          "internalType": "address",
          "name": "",
          "type": "address"
        }
      ],
      "stateMutability": "view",
      "type": "function"
    },
    {
      "inputs": [],
      "name": "renounceOwnership",
      "outputs": [],
      "stateMutability": "nonpayable",
      "type": "function"
    },
    {
      "inputs": [
        {
          "internalType": "uint256",
          "name": "_reward",
          "type": "uint256"
        },
        {
          "internalType": "uint256",
          "name": "_tokens",
          "type": "uint256"
        }
      ],
      "name": "reservePool",
      "outputs": [],
      "stateMutability": "nonpayable",
      "type": "function"
    },
    {
      "inputs": [],
      "name": "reservedAmount",
      "outputs": [
        {
          "internalType": "uint256",
          "name": "",
          "type": "uint256"
        }
      ],
      "stateMutability": "view",
      "type": "function"
    },
    {
      "inputs": [
        {
          "internalType": "address",
          "name": "_to",
          "type": "address"
        },
        {
          "internalType": "uint256",
          "name": "_amount",
          "type": "uint256"
        }
      ],
      "name": "sendReward",
      "outputs": [],
      "stateMutability": "nonpayable",
      "type": "function"
    },
    {
      "inputs": [
        {
          "internalType": "address",
          "name": "newOwner",
          "type": "address"
        }
      ],
      "name": "transferOwnership",
      "outputs": [],
      "stateMutability": "nonpayable",
      "type": "function"
    }
  ],
  "bytecode": "0x608060405234801561001057600080fd5b50604051610b07380380610b0783398101604081905261002f916101ce565b826001600160a01b03811661005f57604051631e4fbdf760e01b8152600060048201526024015b60405180910390fd5b61006881610162565b506001600160a01b0382166100c95760405162461bcd60e51b815260206004820152602160248201527f526577617264506f6f6c3a20454b4f4b452061646472657373206973207a65726044820152606f60f81b6064820152608401610056565b6001600160a01b03811661012b5760405162461bcd60e51b8152602060048201526024808201527f526577617264506f6f6c3a2044656665727265642061646472657373206973206044820152637a65726f60e01b6064820152608401610056565b600180546001600160a01b039384166001600160a01b03199182161790915560028054929093169116179055506000600455610211565b600080546001600160a01b038381166001600160a01b0319831681178455604051919092169283917f8be0079c531659141344cd1fd0a4f28419497f9722a3daafe3b4186f6b6457e09190a35050565b80516001600160a01b03811681146101c957600080fd5b919050565b6000806000606084860312156101e357600080fd5b6101ec846101b2565b92506101fa602085016101b2565b9150610208604085016101b2565b90509250925092565b6108e7806102206000396000f3fe608060405234801561001057600080fd5b50600436106100885760003560e01c80638da5cb5b1161005b5780638da5cb5b146100d8578063ed711e22146100f3578063f2fde38b14610106578063f92c45b71461011957600080fd5b806307420a411461008d5780631892dd9f146100a25780634ad84b34146100b5578063715018a6146100d0575b600080fd5b6100a061009b3660046107d1565b610122565b005b6100a06100b03660046107fb565b61031d565b6100bd610347565b6040519081526020015b60405180910390f35b6100a061045d565b6000546040516001600160a01b0390911681526020016100c7565b6100a061010136600461081d565b610471565b6100a06101143660046107fb565b6106fa565b6100bd60045481565b6003546001600160a01b03163314801561014657506003546001600160a01b031615155b6101a95760405162461bcd60e51b815260206004820152602960248201527f526577617264506f6f6c3a2063616c6c6572206973206e6f7420746865206d61604482015268726b6574706c61636560b81b60648201526084015b60405180910390fd5b600081116101f95760405162461bcd60e51b815260206004820152601a60248201527f526577617264506f6f6c3a20616d6f756e74206973207a65726f00000000000060448201526064016101a0565b80600454101561025a5760405162461bcd60e51b815260206004820152602660248201527f526577617264506f6f6c3a206e6f7420656e6f75676820726573657276656420604482015265185b5bdd5b9d60d21b60648201526084016101a0565b600154604051636eee2dad60e01b81526001600160a01b0384811660048301526024820184905290911690636eee2dad90604401600060405180830381600087803b1580156102a857600080fd5b505af11580156102bc573d6000803e3d6000fd5b5050505080600460008282546102d29190610855565b9091555050604080516001600160a01b0384168152602081018390527f6177f4110771217c72937d51f3a73915f2c714a6b98507e17eea7a186136a24a910160405180910390a15050565b610325610738565b600380546001600160a01b0319166001600160a01b0392909216919091179055565b600080600160009054906101000a90046001600160a01b03166001600160a01b031663473761cc6040518163ffffffff1660e01b8152600401602060405180830381865afa15801561039d573d6000803e3d6000fd5b505050506040513d601f19601f820116820180604052508101906103c1919061086e565b90506000600160009054906101000a90046001600160a01b03166001600160a01b0316635f3fe30c6040518163ffffffff1660e01b8152600401602060405180830381865afa158015610418573d6000803e3d6000fd5b505050506040513d601f19601f8201168201806040525081019061043c919061086e565b90506004548261044c9190610887565b6104569082610855565b9250505090565b610465610738565b61046f6000610765565b565b6002546001600160a01b03163314801561049557506002546001600160a01b031615155b6104ec5760405162461bcd60e51b815260206004820152602260248201527f526577617264506f6f6c3a2063616c6c6572206973206e6f7420646566657272604482015261195960f21b60648201526084016101a0565b6000821161053c5760405162461bcd60e51b815260206004820152601a60248201527f526577617264506f6f6c3a20726577617264206973207a65726f00000000000060448201526064016101a0565b6000610548828461089a565b90506000600160009054906101000a90046001600160a01b031690506000816001600160a01b031663473761cc6040518163ffffffff1660e01b8152600401602060405180830381865afa1580156105a4573d6000803e3d6000fd5b505050506040513d601f19601f820116820180604052508101906105c8919061086e565b90506000826001600160a01b0316635f3fe30c6040518163ffffffff1660e01b8152600401602060405180830381865afa15801561060a573d6000803e3d6000fd5b505050506040513d601f19601f8201168201806040525081019061062e919061086e565b90508061063b8584610887565b11156106a25760405162461bcd60e51b815260206004820152603060248201527f526577617264506f6f6c3a2072657761726420706f6f6c20686173206e6f742060448201526f656e6f756768206c697175696469747960801b60648201526084016101a0565b83600460008282546106b49190610887565b909155505060408051878152602081018790527fd5c6832657ca6594e6340153b8fd94429e8edceebf61ad032029b2143489a6e2910160405180910390a1505050505050565b610702610738565b6001600160a01b03811661072c57604051631e4fbdf760e01b8152600060048201526024016101a0565b61073581610765565b50565b6000546001600160a01b0316331461046f5760405163118cdaa760e01b81523360048201526024016101a0565b600080546001600160a01b038381166001600160a01b0319831681178455604051919092169283917f8be0079c531659141344cd1fd0a4f28419497f9722a3daafe3b4186f6b6457e09190a35050565b80356001600160a01b03811681146107cc57600080fd5b919050565b600080604083850312156107e457600080fd5b6107ed836107b5565b946020939093013593505050565b60006020828403121561080d57600080fd5b610816826107b5565b9392505050565b6000806040838503121561083057600080fd5b50508035926020909101359150565b634e487b7160e01b600052601160045260246000fd5b818103818111156108685761086861083f565b92915050565b60006020828403121561088057600080fd5b5051919050565b808201808211156108685761086861083f565b80820281158282048414176108685761086861083f56fea2646970667358221220a0ea7f2df69d6797cddc8df5a08dd8959672d6cabfb5d04d01c248d1b8cab2aa64736f6c634300081c0033",
  "linkReferences": {},
  "deployedLinkReferences": {}
}