{
  "_format": "hh-sol-artifact-1",
  "contractName": "RewardPool",
  "sourceName": "contracts/RewardPool.sol",
  "abi": [
    {
      "inputs": [
        {
          "internalType": "address",
          "name": "_owner",
          "type": "address"
        },
        {
          "internalType": "address",
          "name": "_ekoke",
          "type": "address"
        },
        {
          "internalType": "address",
          "name": "_deferred",
          "type": "address"
        }
      ],
      "stateMutability": "nonpayable",
      "type": "constructor"
    },
    {
      "inputs": [
        {
          "internalType": "address",
          "name": "owner",
          "type": "address"
        }
      ],
      "name": "OwnableInvalidOwner",
      "type": "error"
    },
    {
      "inputs": [
        {
          "internalType": "address",
          "name": "account",
          "type": "address"
        }
      ],
      "name": "OwnableUnauthorizedAccount",
      "type": "error"
    },
    {
      "anonymous": false,
      "inputs": [
        {
          "indexed": true,
          "internalType": "address",
          "name": "previousOwner",
          "type": "address"
        },
        {
          "indexed": true,
          "internalType": "address",
          "name": "newOwner",
          "type": "address"
        }
      ],
      "name": "OwnershipTransferred",
      "type": "event"
    },
    {
      "anonymous": false,
      "inputs": [
        {
          "indexed": false,
          "internalType": "uint256",
          "name": "reward",
          "type": "uint256"
        },
        {
          "indexed": false,
          "internalType": "uint256",
          "name": "tokens",
          "type": "uint256"
        }
      ],
      "name": "PoolReserved",
      "type": "event"
    },
    {
      "anonymous": false,
      "inputs": [
        {
          "indexed": false,
          "internalType": "address",
          "name": "to",
          "type": "address"
        },
        {
          "indexed": false,
          "internalType": "uint256",
          "name": "amount",
          "type": "uint256"
        }
      ],
      "name": "RewardSent",
      "type": "event"
    },
    {
      "inputs": [
        {
          "internalType": "address",
          "name": "_marketplace",
          "type": "address"
        }
      ],
      "name": "adminSetMarketplace",
      "outputs": [],
      "stateMutability": "nonpayable",
      "type": "function"
    },
    {
      "inputs": [],
      "name": "availableReward",
      "outputs": [
        {
          "internalType": "uint256",
          "name": "available",
          "type": "uint256"
        }
      ],
      "stateMutability": "view",
      "type": "function"
    },
    {
      "inputs": [],
      "name": "owner",
      "outputs": [
        {
          "internalType": "address",
          "name": "",
          "type": "address"
        }
      ],
      "stateMutability": "view",
      "type": "function"
    },
    {
      "inputs": [],
      "name": "renounceOwnership",
      "outputs": [],
      "stateMutability": "nonpayable",
      "type": "function"
    },
    {
      "inputs": [
        {
          "internalType": "uint256",
          "name": "_reward",
          "type": "uint256"
        },
        {
          "internalType": "uint256",
          "name": "_tokens",
          "type": "uint256"
        }
      ],
      "name": "reservePool",
      "outputs": [],
      "stateMutability": "nonpayable",
      "type": "function"
    },
    {
      "inputs": [],
      "name": "reservedAmount",
      "outputs": [
        {
          "internalType": "uint256",
          "name": "",
          "type": "uint256"
        }
      ],
      "stateMutability": "view",
      "type": "function"
    },
    {
      "inputs": [
        {
          "internalType": "address",
          "name": "_to",
          "type": "address"
        },
        {
          "internalType": "uint256",
          "name": "_amount",
          "type": "uint256"
        }
      ],
      "name": "sendReward",
      "outputs": [],
      "stateMutability": "nonpayable",
      "type": "function"
    },
    {
      "inputs": [
        {
          "internalType": "address",
          "name": "newOwner",
          "type": "address"
        }
      ],
      "name": "transferOwnership",
      "outputs": [],
      "stateMutability": "nonpayable",
      "type": "function"
    }
  ],
  "bytecode": "0x60806040523480156200001157600080fd5b506040516200160c3803806200160c833981810160405281019062000037919062000364565b82600073ffffffffffffffffffffffffffffffffffffffff168173ffffffffffffffffffffffffffffffffffffffff1603620000ad5760006040517f1e4fbdf7000000000000000000000000000000000000000000000000000000008152600401620000a49190620003d1565b60405180910390fd5b620000be816200023660201b60201c565b50600073ffffffffffffffffffffffffffffffffffffffff168273ffffffffffffffffffffffffffffffffffffffff160362000131576040517f08c379a0000000000000000000000000000000000000000000000000000000008152600401620001289062000475565b60405180910390fd5b600073ffffffffffffffffffffffffffffffffffffffff168173ffffffffffffffffffffffffffffffffffffffff1603620001a3576040517f08c379a00000000000000000000000000000000000000000000000000000000081526004016200019a906200050d565b60405180910390fd5b81600160006101000a81548173ffffffffffffffffffffffffffffffffffffffff021916908373ffffffffffffffffffffffffffffffffffffffff16021790555080600260006101000a81548173ffffffffffffffffffffffffffffffffffffffff021916908373ffffffffffffffffffffffffffffffffffffffff16021790555060006004819055505050506200052f565b60008060009054906101000a900473ffffffffffffffffffffffffffffffffffffffff169050816000806101000a81548173ffffffffffffffffffffffffffffffffffffffff021916908373ffffffffffffffffffffffffffffffffffffffff1602179055508173ffffffffffffffffffffffffffffffffffffffff168173ffffffffffffffffffffffffffffffffffffffff167f8be0079c531659141344cd1fd0a4f28419497f9722a3daafe3b4186f6b6457e060405160405180910390a35050565b600080fd5b600073ffffffffffffffffffffffffffffffffffffffff82169050919050565b60006200032c82620002ff565b9050919050565b6200033e816200031f565b81146200034a57600080fd5b50565b6000815190506200035e8162000333565b92915050565b60008060006060848603121562000380576200037f620002fa565b5b600062000390868287016200034d565b9350506020620003a3868287016200034d565b9250506040620003b6868287016200034d565b9150509250925092565b620003cb816200031f565b82525050565b6000602082019050620003e86000830184620003c0565b92915050565b600082825260208201905092915050565b7f526577617264506f6f6c3a20454b4f4b452061646472657373206973207a657260008201527f6f00000000000000000000000000000000000000000000000000000000000000602082015250565b60006200045d602183620003ee565b91506200046a82620003ff565b604082019050919050565b6000602082019050818103600083015262000490816200044e565b9050919050565b7f526577617264506f6f6c3a20446566657272656420616464726573732069732060008201527f7a65726f00000000000000000000000000000000000000000000000000000000602082015250565b6000620004f5602483620003ee565b9150620005028262000497565b604082019050919050565b600060208201905081810360008301526200052881620004e6565b9050919050565b6110cd806200053f6000396000f3fe608060405234801561001057600080fd5b50600436106100885760003560e01c80638da5cb5b1161005b5780638da5cb5b146100ed578063ed711e221461010b578063f2fde38b14610127578063f92c45b71461014357610088565b806307420a411461008d5780631892dd9f146100a95780634ad84b34146100c5578063715018a6146100e3575b600080fd5b6100a760048036038101906100a29190610af8565b610161565b005b6100c360048036038101906100be9190610b38565b6103b9565b005b6100cd610405565b6040516100da9190610b74565b60405180910390f35b6100eb610550565b005b6100f5610564565b6040516101029190610b9e565b60405180910390f35b61012560048036038101906101209190610bb9565b61058d565b005b610141600480360381019061013c9190610b38565b610880565b005b61014b610906565b6040516101589190610b74565b60405180910390f35b600360009054906101000a900473ffffffffffffffffffffffffffffffffffffffff1673ffffffffffffffffffffffffffffffffffffffff163373ffffffffffffffffffffffffffffffffffffffff1614801561020d5750600073ffffffffffffffffffffffffffffffffffffffff16600360009054906101000a900473ffffffffffffffffffffffffffffffffffffffff1673ffffffffffffffffffffffffffffffffffffffff1614155b61024c576040517f08c379a000000000000000000000000000000000000000000000000000000000815260040161024390610c7c565b60405180910390fd5b6000811161028f576040517f08c379a000000000000000000000000000000000000000000000000000000000815260040161028690610ce8565b60405180910390fd5b8060045410156102d4576040517f08c379a00000000000000000000000000000000000000000000000000000000081526004016102cb90610d7a565b60405180910390fd5b600160009054906101000a900473ffffffffffffffffffffffffffffffffffffffff1673ffffffffffffffffffffffffffffffffffffffff16636eee2dad83836040518363ffffffff1660e01b8152600401610331929190610d9a565b600060405180830381600087803b15801561034b57600080fd5b505af115801561035f573d6000803e3d6000fd5b5050505080600460008282546103759190610df2565b925050819055507f6177f4110771217c72937d51f3a73915f2c714a6b98507e17eea7a186136a24a82826040516103ad929190610d9a565b60405180910390a15050565b6103c161090c565b80600360006101000a81548173ffffffffffffffffffffffffffffffffffffffff021916908373ffffffffffffffffffffffffffffffffffffffff16021790555050565b600080600160009054906101000a900473ffffffffffffffffffffffffffffffffffffffff1673ffffffffffffffffffffffffffffffffffffffff1663473761cc6040518163ffffffff1660e01b8152600401602060405180830381865afa158015610475573d6000803e3d6000fd5b505050506040513d601f19601f820116820180604052508101906104999190610e3b565b90506000600160009054906101000a900473ffffffffffffffffffffffffffffffffffffffff1673ffffffffffffffffffffffffffffffffffffffff16635f3fe30c6040518163ffffffff1660e01b8152600401602060405180830381865afa15801561050a573d6000803e3d6000fd5b505050506040513d601f19601f8201168201806040525081019061052e9190610e3b565b90506004548261053e9190610e68565b816105499190610df2565b9250505090565b61055861090c565b6105626000610993565b565b60008060009054906101000a900473ffffffffffffffffffffffffffffffffffffffff16905090565b600260009054906101000a900473ffffffffffffffffffffffffffffffffffffffff1673ffffffffffffffffffffffffffffffffffffffff163373ffffffffffffffffffffffffffffffffffffffff161480156106395750600073ffffffffffffffffffffffffffffffffffffffff16600260009054906101000a900473ffffffffffffffffffffffffffffffffffffffff1673ffffffffffffffffffffffffffffffffffffffff1614155b610678576040517f08c379a000000000000000000000000000000000000000000000000000000000815260040161066f90610f0e565b60405180910390fd5b600082116106bb576040517f08c379a00000000000000000000000000000000000000000000000000000000081526004016106b290610f7a565b60405180910390fd5b600081836106c99190610f9a565b90506000600160009054906101000a900473ffffffffffffffffffffffffffffffffffffffff16905060008173ffffffffffffffffffffffffffffffffffffffff1663473761cc6040518163ffffffff1660e01b8152600401602060405180830381865afa15801561073f573d6000803e3d6000fd5b505050506040513d601f19601f820116820180604052508101906107639190610e3b565b905060008273ffffffffffffffffffffffffffffffffffffffff16635f3fe30c6040518163ffffffff1660e01b8152600401602060405180830381865afa1580156107b2573d6000803e3d6000fd5b505050506040513d601f19601f820116820180604052508101906107d69190610e3b565b90508084836107e59190610e68565b1115610826576040517f08c379a000000000000000000000000000000000000000000000000000000000815260040161081d9061104e565b60405180910390fd5b83600460008282546108389190610e68565b925050819055507fd5c6832657ca6594e6340153b8fd94429e8edceebf61ad032029b2143489a6e2868660405161087092919061106e565b60405180910390a1505050505050565b61088861090c565b600073ffffffffffffffffffffffffffffffffffffffff168173ffffffffffffffffffffffffffffffffffffffff16036108fa5760006040517f1e4fbdf70000000000000000000000000000000000000000000000000000000081526004016108f19190610b9e565b60405180910390fd5b61090381610993565b50565b60045481565b610914610a57565b73ffffffffffffffffffffffffffffffffffffffff16610932610564565b73ffffffffffffffffffffffffffffffffffffffff161461099157610955610a57565b6040517f118cdaa70000000000000000000000000000000000000000000000000000000081526004016109889190610b9e565b60405180910390fd5b565b60008060009054906101000a900473ffffffffffffffffffffffffffffffffffffffff169050816000806101000a81548173ffffffffffffffffffffffffffffffffffffffff021916908373ffffffffffffffffffffffffffffffffffffffff1602179055508173ffffffffffffffffffffffffffffffffffffffff168173ffffffffffffffffffffffffffffffffffffffff167f8be0079c531659141344cd1fd0a4f28419497f9722a3daafe3b4186f6b6457e060405160405180910390a35050565b600033905090565b600080fd5b600073ffffffffffffffffffffffffffffffffffffffff82169050919050565b6000610a8f82610a64565b9050919050565b610a9f81610a84565b8114610aaa57600080fd5b50565b600081359050610abc81610a96565b92915050565b6000819050919050565b610ad581610ac2565b8114610ae057600080fd5b50565b600081359050610af281610acc565b92915050565b60008060408385031215610b0f57610b0e610a5f565b5b6000610b1d85828601610aad565b9250506020610b2e85828601610ae3565b9150509250929050565b600060208284031215610b4e57610b4d610a5f565b5b6000610b5c84828501610aad565b91505092915050565b610b6e81610ac2565b82525050565b6000602082019050610b896000830184610b65565b92915050565b610b9881610a84565b82525050565b6000602082019050610bb36000830184610b8f565b92915050565b60008060408385031215610bd057610bcf610a5f565b5b6000610bde85828601610ae3565b9250506020610bef85828601610ae3565b9150509250929050565b600082825260208201905092915050565b7f526577617264506f6f6c3a2063616c6c6572206973206e6f7420746865206d6160008201527f726b6574706c6163650000000000000000000000000000000000000000000000602082015250565b6000610c66602983610bf9565b9150610c7182610c0a565b604082019050919050565b60006020820190508181036000830152610c9581610c59565b9050919050565b7f526577617264506f6f6c3a20616d6f756e74206973207a65726f000000000000600082015250565b6000610cd2601a83610bf9565b9150610cdd82610c9c565b602082019050919050565b60006020820190508181036000830152610d0181610cc5565b9050919050565b7f526577617264506f6f6c3a206e6f7420656e6f7567682072657365727665642060008201527f616d6f756e740000000000000000000000000000000000000000000000000000602082015250565b6000610d64602683610bf9565b9150610d6f82610d08565b604082019050919050565b60006020820190508181036000830152610d9381610d57565b9050919050565b6000604082019050610daf6000830185610b8f565b610dbc6020830184610b65565b9392505050565b7f4e487b7100000000000000000000000000000000000000000000000000000000600052601160045260246000fd5b6000610dfd82610ac2565b9150610e0883610ac2565b9250828203905081811115610e2057610e1f610dc3565b5b92915050565b600081519050610e3581610acc565b92915050565b600060208284031215610e5157610e50610a5f565b5b6000610e5f84828501610e26565b91505092915050565b6000610e7382610ac2565b9150610e7e83610ac2565b9250828201905080821115610e9657610e95610dc3565b5b92915050565b7f526577617264506f6f6c3a2063616c6c6572206973206e6f742064656665727260008201527f6564000000000000000000000000000000000000000000000000000000000000602082015250565b6000610ef8602283610bf9565b9150610f0382610e9c565b604082019050919050565b60006020820190508181036000830152610f2781610eeb565b9050919050565b7f526577617264506f6f6c3a20726577617264206973207a65726f000000000000600082015250565b6000610f64601a83610bf9565b9150610f6f82610f2e565b602082019050919050565b60006020820190508181036000830152610f9381610f57565b9050919050565b6000610fa582610ac2565b9150610fb083610ac2565b9250828202610fbe81610ac2565b91508282048414831517610fd557610fd4610dc3565b5b5092915050565b7f526577617264506f6f6c3a2072657761726420706f6f6c20686173206e6f742060008201527f656e6f756768206c697175696469747900000000000000000000000000000000602082015250565b6000611038603083610bf9565b915061104382610fdc565b604082019050919050565b600060208201905081810360008301526110678161102b565b9050919050565b60006040820190506110836000830185610b65565b6110906020830184610b65565b939250505056fea264697066735822122023f31964e3aa7aeea44c7c8eb5ffef95f94726d706b04eef6168e2316771ffb264736f6c63430008140033",
  "linkReferences": {},
  "deployedLinkReferences": {}
}